{
  "contractName": "ChilliSwap",
  "abi": [
    {
      "inputs": [],
      "stateMutability": "nonpayable",
      "type": "constructor"
    },
    {
      "anonymous": false,
      "inputs": [
        {
          "indexed": true,
          "internalType": "address",
          "name": "owner",
          "type": "address"
        },
        {
          "indexed": true,
          "internalType": "address",
          "name": "approved",
          "type": "address"
        },
        {
          "indexed": true,
          "internalType": "uint256",
          "name": "tokenId",
          "type": "uint256"
        }
      ],
      "name": "Approval",
      "type": "event"
    },
    {
      "anonymous": false,
      "inputs": [
        {
          "indexed": true,
          "internalType": "address",
          "name": "owner",
          "type": "address"
        },
        {
          "indexed": true,
          "internalType": "address",
          "name": "operator",
          "type": "address"
        },
        {
          "indexed": false,
          "internalType": "bool",
          "name": "approved",
          "type": "bool"
        }
      ],
      "name": "ApprovalForAll",
      "type": "event"
    },
    {
      "anonymous": false,
      "inputs": [
        {
          "indexed": true,
          "internalType": "address",
          "name": "to",
          "type": "address"
        },
        {
          "indexed": false,
          "internalType": "uint256",
          "name": "tokenId",
          "type": "uint256"
        },
        {
          "indexed": false,
          "internalType": "string",
          "name": "artwork",
          "type": "string"
        }
      ],
      "name": "Mint",
      "type": "event"
    },
    {
      "anonymous": false,
      "inputs": [
        {
          "indexed": true,
          "internalType": "address",
          "name": "previousOwner",
          "type": "address"
        },
        {
          "indexed": true,
          "internalType": "address",
          "name": "newOwner",
          "type": "address"
        }
      ],
      "name": "OwnershipTransferred",
      "type": "event"
    },
    {
      "anonymous": false,
      "inputs": [
        {
          "indexed": true,
          "internalType": "address",
          "name": "from",
          "type": "address"
        },
        {
          "indexed": true,
          "internalType": "address",
          "name": "to",
          "type": "address"
        },
        {
          "indexed": true,
          "internalType": "uint256",
          "name": "tokenId",
          "type": "uint256"
        }
      ],
      "name": "Transfer",
      "type": "event"
    },
    {
      "inputs": [
        {
          "internalType": "address",
          "name": "to",
          "type": "address"
        },
        {
          "internalType": "uint256",
          "name": "tokenId",
          "type": "uint256"
        }
      ],
      "name": "approve",
      "outputs": [],
      "stateMutability": "nonpayable",
      "type": "function"
    },
    {
      "inputs": [
        {
          "internalType": "address",
          "name": "owner",
          "type": "address"
        }
      ],
      "name": "balanceOf",
      "outputs": [
        {
          "internalType": "uint256",
          "name": "",
          "type": "uint256"
        }
      ],
      "stateMutability": "view",
      "type": "function"
    },
    {
      "inputs": [
        {
          "internalType": "uint256",
          "name": "tokenId",
          "type": "uint256"
        }
      ],
      "name": "getApproved",
      "outputs": [
        {
          "internalType": "address",
          "name": "",
          "type": "address"
        }
      ],
      "stateMutability": "view",
      "type": "function"
    },
    {
      "inputs": [
        {
          "internalType": "address",
          "name": "owner",
          "type": "address"
        },
        {
          "internalType": "address",
          "name": "operator",
          "type": "address"
        }
      ],
      "name": "isApprovedForAll",
      "outputs": [
        {
          "internalType": "bool",
          "name": "",
          "type": "bool"
        }
      ],
      "stateMutability": "view",
      "type": "function"
    },
    {
      "inputs": [],
      "name": "name",
      "outputs": [
        {
          "internalType": "string",
          "name": "",
          "type": "string"
        }
      ],
      "stateMutability": "view",
      "type": "function"
    },
    {
      "inputs": [],
      "name": "owner",
      "outputs": [
        {
          "internalType": "address",
          "name": "",
          "type": "address"
        }
      ],
      "stateMutability": "view",
      "type": "function"
    },
    {
      "inputs": [
        {
          "internalType": "uint256",
          "name": "tokenId",
          "type": "uint256"
        }
      ],
      "name": "ownerOf",
      "outputs": [
        {
          "internalType": "address",
          "name": "",
          "type": "address"
        }
      ],
      "stateMutability": "view",
      "type": "function"
    },
    {
      "inputs": [],
      "name": "renounceOwnership",
      "outputs": [],
      "stateMutability": "nonpayable",
      "type": "function"
    },
    {
      "inputs": [
        {
          "internalType": "address",
          "name": "from",
          "type": "address"
        },
        {
          "internalType": "address",
          "name": "to",
          "type": "address"
        },
        {
          "internalType": "uint256",
          "name": "tokenId",
          "type": "uint256"
        }
      ],
      "name": "safeTransferFrom",
      "outputs": [],
      "stateMutability": "nonpayable",
      "type": "function"
    },
    {
      "inputs": [
        {
          "internalType": "address",
          "name": "from",
          "type": "address"
        },
        {
          "internalType": "address",
          "name": "to",
          "type": "address"
        },
        {
          "internalType": "uint256",
          "name": "tokenId",
          "type": "uint256"
        },
        {
          "internalType": "bytes",
          "name": "_data",
          "type": "bytes"
        }
      ],
      "name": "safeTransferFrom",
      "outputs": [],
      "stateMutability": "nonpayable",
      "type": "function"
    },
    {
      "inputs": [
        {
          "internalType": "address",
          "name": "operator",
          "type": "address"
        },
        {
          "internalType": "bool",
          "name": "approved",
          "type": "bool"
        }
      ],
      "name": "setApprovalForAll",
      "outputs": [],
      "stateMutability": "nonpayable",
      "type": "function"
    },
    {
      "inputs": [
        {
          "internalType": "bytes4",
          "name": "interfaceId",
          "type": "bytes4"
        }
      ],
      "name": "supportsInterface",
      "outputs": [
        {
          "internalType": "bool",
          "name": "",
          "type": "bool"
        }
      ],
      "stateMutability": "view",
      "type": "function"
    },
    {
      "inputs": [],
      "name": "symbol",
      "outputs": [
        {
          "internalType": "string",
          "name": "",
          "type": "string"
        }
      ],
      "stateMutability": "view",
      "type": "function"
    },
    {
      "inputs": [
        {
          "internalType": "uint256",
          "name": "tokenId",
          "type": "uint256"
        }
      ],
      "name": "tokenURI",
      "outputs": [
        {
          "internalType": "string",
          "name": "",
          "type": "string"
        }
      ],
      "stateMutability": "view",
      "type": "function"
    },
    {
      "inputs": [
        {
          "internalType": "address",
          "name": "from",
          "type": "address"
        },
        {
          "internalType": "address",
          "name": "to",
          "type": "address"
        },
        {
          "internalType": "uint256",
          "name": "tokenId",
          "type": "uint256"
        }
      ],
      "name": "transferFrom",
      "outputs": [],
      "stateMutability": "nonpayable",
      "type": "function"
    },
    {
      "inputs": [
        {
          "internalType": "address",
          "name": "newOwner",
          "type": "address"
        }
      ],
      "name": "transferOwnership",
      "outputs": [],
      "stateMutability": "nonpayable",
      "type": "function"
    },
    {
      "inputs": [
        {
          "internalType": "address",
          "name": "recipient",
          "type": "address"
        },
        {
          "internalType": "string",
          "name": "_metadata",
          "type": "string"
        },
        {
          "internalType": "string",
          "name": "_artwork",
          "type": "string"
        },
        {
          "internalType": "uint256",
          "name": "_royalty",
          "type": "uint256"
        }
      ],
      "name": "mintNFT",
      "outputs": [
        {
          "internalType": "uint256",
          "name": "",
          "type": "uint256"
        }
      ],
      "stateMutability": "nonpayable",
      "type": "function"
    },
    {
      "inputs": [
        {
          "internalType": "uint256",
          "name": "_tokenId",
          "type": "uint256"
        }
      ],
      "name": "getArtwork",
      "outputs": [
        {
          "components": [
            {
              "internalType": "uint256",
              "name": "date",
              "type": "uint256"
            },
            {
              "internalType": "address",
              "name": "creator",
              "type": "address"
            },
            {
              "internalType": "string",
              "name": "metadata",
              "type": "string"
            },
            {
              "internalType": "uint256",
              "name": "royalty",
              "type": "uint256"
            }
          ],
          "internalType": "struct IChilliSwap.Artwork",
          "name": "",
          "type": "tuple"
        }
      ],
      "stateMutability": "view",
      "type": "function"
    },
    {
      "inputs": [
        {
          "internalType": "address",
          "name": "_address",
          "type": "address"
        }
      ],
      "name": "addCreator",
      "outputs": [
        {
          "internalType": "bool",
          "name": "",
          "type": "bool"
        }
      ],
      "stateMutability": "nonpayable",
      "type": "function"
    },
    {
      "inputs": [
        {
          "internalType": "address",
          "name": "_address",
          "type": "address"
        }
      ],
      "name": "removeCreator",
      "outputs": [
        {
          "internalType": "bool",
          "name": "",
          "type": "bool"
        }
      ],
      "stateMutability": "nonpayable",
      "type": "function"
    },
    {
      "inputs": [
        {
          "internalType": "address",
          "name": "_address",
          "type": "address"
        }
      ],
      "name": "isCreator",
      "outputs": [
        {
          "internalType": "bool",
          "name": "",
          "type": "bool"
        }
      ],
      "stateMutability": "view",
      "type": "function"
    }
  ],
  "bytecode": "0x60806040523480156200001157600080fd5b506040518060400160405280600a81526020017f4368696c6c6953776170000000000000000000000000000000000000000000008152506040518060400160405280600481526020017f435357500000000000000000000000000000000000000000000000000000000081525081600090805190602001906200009692919062000171565b508060019080519060200190620000af92919062000171565b5050506000620000c46200016960201b60201c565b905080600660006101000a81548173ffffffffffffffffffffffffffffffffffffffff021916908373ffffffffffffffffffffffffffffffffffffffff1602179055508073ffffffffffffffffffffffffffffffffffffffff16600073ffffffffffffffffffffffffffffffffffffffff167f8be0079c531659141344cd1fd0a4f28419497f9722a3daafe3b4186f6b6457e060405160405180910390a35062000286565b600033905090565b8280546200017f9062000221565b90600052602060002090601f016020900481019282620001a35760008555620001ef565b82601f10620001be57805160ff1916838001178555620001ef565b82800160010185558215620001ef579182015b82811115620001ee578251825591602001919060010190620001d1565b5b509050620001fe919062000202565b5090565b5b808211156200021d57600081600090555060010162000203565b5090565b600060028204905060018216806200023a57607f821691505b6020821081141562000251576200025062000257565b5b50919050565b7f4e487b7100000000000000000000000000000000000000000000000000000000600052602260045260246000fd5b6138d780620002966000396000f3fe608060405234801561001057600080fd5b50600436106101375760003560e01c806370a08231116100b8578063b88d4fde1161007c578063b88d4fde14610360578063bd6018bb1461037c578063c87b56dd146103ac578063e985e9c5146103dc578063efd460651461040c578063f2fde38b1461043c57610137565b806370a08231146102ce578063715018a6146102fe5780638da5cb5b1461030857806395d89b4114610326578063a22cb4651461034457610137565b806323b872dd116100ff57806323b872dd146102065780633b9dce051461022257806342842e0e1461025257806351f8fefe1461026e5780636352211e1461029e57610137565b806301ffc9a71461013c57806306fdde031461016c578063081812fc1461018a578063095ea7b3146101ba578063167ddf6e146101d6575b600080fd5b610156600480360381019061015191906126e6565b610458565b6040516101639190612c26565b60405180910390f35b61017461053a565b6040516101819190612c41565b60405180910390f35b6101a4600480360381019061019f9190612738565b6105cc565b6040516101b19190612bbf565b60405180910390f35b6101d460048036038101906101cf91906126aa565b610651565b005b6101f060048036038101906101eb9190612738565b610769565b6040516101fd9190612ec3565b60405180910390f35b610220600480360381019061021b9190612511565b6108da565b005b61023c600480360381019061023791906124ac565b61093a565b6040516102499190612c26565b60405180910390f35b61026c60048036038101906102679190612511565b610aad565b005b61028860048036038101906102839190612617565b610acd565b6040516102959190612ee5565b60405180910390f35b6102b860048036038101906102b39190612738565b610d8c565b6040516102c59190612bbf565b60405180910390f35b6102e860048036038101906102e391906124ac565b610e3e565b6040516102f59190612ee5565b60405180910390f35b610306610ef6565b005b610310611033565b60405161031d9190612bbf565b60405180910390f35b61032e61105d565b60405161033b9190612c41565b60405180910390f35b61035e600480360381019061035991906125db565b6110ef565b005b61037a60048036038101906103759190612560565b611270565b005b610396600480360381019061039191906124ac565b6112d2565b6040516103a39190612c26565b60405180910390f35b6103c660048036038101906103c19190612738565b611444565b6040516103d39190612c41565b60405180910390f35b6103f660048036038101906103f191906124d5565b6114eb565b6040516104039190612c26565b60405180910390f35b610426600480360381019061042191906124ac565b61157f565b6040516104339190612c26565b60405180910390f35b610456600480360381019061045191906124ac565b6115db565b005b60007f80ac58cd000000000000000000000000000000000000000000000000000000007bffffffffffffffffffffffffffffffffffffffffffffffffffffffff1916827bffffffffffffffffffffffffffffffffffffffffffffffffffffffff1916148061052357507f5b5e139f000000000000000000000000000000000000000000000000000000007bffffffffffffffffffffffffffffffffffffffffffffffffffffffff1916827bffffffffffffffffffffffffffffffffffffffffffffffffffffffff1916145b80610533575061053282611787565b5b9050919050565b6060600080546105499061317c565b80601f01602080910402602001604051908101604052809291908181526020018280546105759061317c565b80156105c25780601f10610597576101008083540402835291602001916105c2565b820191906000526020600020905b8154815290600101906020018083116105a557829003601f168201915b5050505050905090565b60006105d7826117f1565b610616576040517f08c379a000000000000000000000000000000000000000000000000000000000815260040161060d90612dc3565b60405180910390fd5b6004600083815260200190815260200160002060009054906101000a900473ffffffffffffffffffffffffffffffffffffffff169050919050565b600061065c82610d8c565b90508073ffffffffffffffffffffffffffffffffffffffff168373ffffffffffffffffffffffffffffffffffffffff1614156106cd576040517f08c379a00000000000000000000000000000000000000000000000000000000081526004016106c490612e43565b60405180910390fd5b8073ffffffffffffffffffffffffffffffffffffffff166106ec61185d565b73ffffffffffffffffffffffffffffffffffffffff16148061071b575061071a8161071561185d565b6114eb565b5b61075a576040517f08c379a000000000000000000000000000000000000000000000000000000000815260040161075190612d43565b60405180910390fd5b6107648383611865565b505050565b610771612292565b61077a826117f1565b6107b9576040517f08c379a00000000000000000000000000000000000000000000000000000000081526004016107b090612dc3565b60405180910390fd5b60096000838152602001908152602001600020604051806080016040529081600082015481526020016001820160009054906101000a900473ffffffffffffffffffffffffffffffffffffffff1673ffffffffffffffffffffffffffffffffffffffff1673ffffffffffffffffffffffffffffffffffffffff1681526020016002820180546108479061317c565b80601f01602080910402602001604051908101604052809291908181526020018280546108739061317c565b80156108c05780601f10610895576101008083540402835291602001916108c0565b820191906000526020600020905b8154815290600101906020018083116108a357829003601f168201915b505050505081526020016003820154815250509050919050565b6108eb6108e561185d565b8261191e565b61092a576040517f08c379a000000000000000000000000000000000000000000000000000000000815260040161092190612e63565b60405180910390fd5b6109358383836119fc565b505050565b600061094461185d565b73ffffffffffffffffffffffffffffffffffffffff16610962611033565b73ffffffffffffffffffffffffffffffffffffffff16146109b8576040517f08c379a00000000000000000000000000000000000000000000000000000000081526004016109af90612de3565b60405180910390fd5b6001600a60008473ffffffffffffffffffffffffffffffffffffffff1673ffffffffffffffffffffffffffffffffffffffff16815260200190815260200160002060009054906101000a900460ff1660ff161415610a4b576040517f08c379a0000000000000000000000000000000000000000000000000000000008152600401610a4290612ea3565b60405180910390fd5b6001600a60008473ffffffffffffffffffffffffffffffffffffffff1673ffffffffffffffffffffffffffffffffffffffff16815260200190815260200160002060006101000a81548160ff021916908360ff16021790555060019050919050565b610ac883838360405180602001604052806000815250611270565b505050565b60006001600885604051610ae19190612b84565b908152602001604051809103902060009054906101000a900460ff1660ff161415610b0b57600080fd5b6001600884604051610b1d9190612b84565b908152602001604051809103902060009054906101000a900460ff1660ff161415610b4757600080fd5b6001600a60003373ffffffffffffffffffffffffffffffffffffffff1673ffffffffffffffffffffffffffffffffffffffff16815260200190815260200160002060009054906101000a900460ff1660ff1614610bd9576040517f08c379a0000000000000000000000000000000000000000000000000000000008152600401610bd090612ca3565b60405180910390fd5b6001600885604051610beb9190612b84565b908152602001604051809103902060006101000a81548160ff021916908360ff1602179055506001600884604051610c239190612b84565b908152602001604051809103902060006101000a81548160ff021916908360ff160217905550610c536007611c58565b6000610c5f6007611c6e565b9050610c6b8682611c7c565b60405180608001604052804281526020013373ffffffffffffffffffffffffffffffffffffffff16815260200186815260200184815250600960008381526020019081526020016000206000820151816000015560208201518160010160006101000a81548173ffffffffffffffffffffffffffffffffffffffff021916908373ffffffffffffffffffffffffffffffffffffffff1602179055506040820151816002019080519060200190610d229291906122d0565b50606082015181600301559050508573ffffffffffffffffffffffffffffffffffffffff167f85a66b9141978db9980f7e0ce3b468cebf4f7999f32b23091c5c03e798b1ba7a8286604051610d78929190612f00565b60405180910390a280915050949350505050565b6000806002600084815260200190815260200160002060009054906101000a900473ffffffffffffffffffffffffffffffffffffffff169050600073ffffffffffffffffffffffffffffffffffffffff168173ffffffffffffffffffffffffffffffffffffffff161415610e35576040517f08c379a0000000000000000000000000000000000000000000000000000000008152600401610e2c90612d83565b60405180910390fd5b80915050919050565b60008073ffffffffffffffffffffffffffffffffffffffff168273ffffffffffffffffffffffffffffffffffffffff161415610eaf576040517f08c379a0000000000000000000000000000000000000000000000000000000008152600401610ea690612d63565b60405180910390fd5b600360008373ffffffffffffffffffffffffffffffffffffffff1673ffffffffffffffffffffffffffffffffffffffff168152602001908152602001600020549050919050565b610efe61185d565b73ffffffffffffffffffffffffffffffffffffffff16610f1c611033565b73ffffffffffffffffffffffffffffffffffffffff1614610f72576040517f08c379a0000000000000000000000000000000000000000000000000000000008152600401610f6990612de3565b60405180910390fd5b600073ffffffffffffffffffffffffffffffffffffffff16600660009054906101000a900473ffffffffffffffffffffffffffffffffffffffff1673ffffffffffffffffffffffffffffffffffffffff167f8be0079c531659141344cd1fd0a4f28419497f9722a3daafe3b4186f6b6457e060405160405180910390a36000600660006101000a81548173ffffffffffffffffffffffffffffffffffffffff021916908373ffffffffffffffffffffffffffffffffffffffff160217905550565b6000600660009054906101000a900473ffffffffffffffffffffffffffffffffffffffff16905090565b60606001805461106c9061317c565b80601f01602080910402602001604051908101604052809291908181526020018280546110989061317c565b80156110e55780601f106110ba576101008083540402835291602001916110e5565b820191906000526020600020905b8154815290600101906020018083116110c857829003601f168201915b5050505050905090565b6110f761185d565b73ffffffffffffffffffffffffffffffffffffffff168273ffffffffffffffffffffffffffffffffffffffff161415611165576040517f08c379a000000000000000000000000000000000000000000000000000000000815260040161115c90612d03565b60405180910390fd5b806005600061117261185d565b73ffffffffffffffffffffffffffffffffffffffff1673ffffffffffffffffffffffffffffffffffffffff16815260200190815260200160002060008473ffffffffffffffffffffffffffffffffffffffff1673ffffffffffffffffffffffffffffffffffffffff16815260200190815260200160002060006101000a81548160ff0219169083151502179055508173ffffffffffffffffffffffffffffffffffffffff1661121f61185d565b73ffffffffffffffffffffffffffffffffffffffff167f17307eab39ab6107e8899845ad3d59bd9653f200f220920489ca2b5937696c31836040516112649190612c26565b60405180910390a35050565b61128161127b61185d565b8361191e565b6112c0576040517f08c379a00000000000000000000000000000000000000000000000000000000081526004016112b790612e63565b60405180910390fd5b6112cc84848484611c9a565b50505050565b60006112dc61185d565b73ffffffffffffffffffffffffffffffffffffffff166112fa611033565b73ffffffffffffffffffffffffffffffffffffffff1614611350576040517f08c379a000000000000000000000000000000000000000000000000000000000815260040161134790612de3565b60405180910390fd5b6001600a60008473ffffffffffffffffffffffffffffffffffffffff1673ffffffffffffffffffffffffffffffffffffffff16815260200190815260200160002060009054906101000a900460ff1660ff16146113e2576040517f08c379a00000000000000000000000000000000000000000000000000000000081526004016113d990612e83565b60405180910390fd5b6000600a60008473ffffffffffffffffffffffffffffffffffffffff1673ffffffffffffffffffffffffffffffffffffffff16815260200190815260200160002060006101000a81548160ff021916908360ff16021790555060019050919050565b606061144f826117f1565b61148e576040517f08c379a000000000000000000000000000000000000000000000000000000000815260040161148590612e23565b60405180910390fd5b6000611498611cf6565b905060008151116114b857604051806020016040528060008152506114e3565b806114c284611d0d565b6040516020016114d3929190612b9b565b6040516020818303038152906040525b915050919050565b6000600560008473ffffffffffffffffffffffffffffffffffffffff1673ffffffffffffffffffffffffffffffffffffffff16815260200190815260200160002060008373ffffffffffffffffffffffffffffffffffffffff1673ffffffffffffffffffffffffffffffffffffffff16815260200190815260200160002060009054906101000a900460ff16905092915050565b60006001600a60008473ffffffffffffffffffffffffffffffffffffffff1673ffffffffffffffffffffffffffffffffffffffff16815260200190815260200160002060009054906101000a900460ff1660ff16149050919050565b6115e361185d565b73ffffffffffffffffffffffffffffffffffffffff16611601611033565b73ffffffffffffffffffffffffffffffffffffffff1614611657576040517f08c379a000000000000000000000000000000000000000000000000000000000815260040161164e90612de3565b60405180910390fd5b600073ffffffffffffffffffffffffffffffffffffffff168173ffffffffffffffffffffffffffffffffffffffff1614156116c7576040517f08c379a00000000000000000000000000000000000000000000000000000000081526004016116be90612c83565b60405180910390fd5b8073ffffffffffffffffffffffffffffffffffffffff16600660009054906101000a900473ffffffffffffffffffffffffffffffffffffffff1673ffffffffffffffffffffffffffffffffffffffff167f8be0079c531659141344cd1fd0a4f28419497f9722a3daafe3b4186f6b6457e060405160405180910390a380600660006101000a81548173ffffffffffffffffffffffffffffffffffffffff021916908373ffffffffffffffffffffffffffffffffffffffff16021790555050565b60007f01ffc9a7000000000000000000000000000000000000000000000000000000007bffffffffffffffffffffffffffffffffffffffffffffffffffffffff1916827bffffffffffffffffffffffffffffffffffffffffffffffffffffffff1916149050919050565b60008073ffffffffffffffffffffffffffffffffffffffff166002600084815260200190815260200160002060009054906101000a900473ffffffffffffffffffffffffffffffffffffffff1673ffffffffffffffffffffffffffffffffffffffff1614159050919050565b600033905090565b816004600083815260200190815260200160002060006101000a81548173ffffffffffffffffffffffffffffffffffffffff021916908373ffffffffffffffffffffffffffffffffffffffff160217905550808273ffffffffffffffffffffffffffffffffffffffff166118d883610d8c565b73ffffffffffffffffffffffffffffffffffffffff167f8c5be1e5ebec7d5bd14f71427d1e84f3dd0314c0f7b2291e5b200ac8c7c3b92560405160405180910390a45050565b6000611929826117f1565b611968576040517f08c379a000000000000000000000000000000000000000000000000000000000815260040161195f90612d23565b60405180910390fd5b600061197383610d8c565b90508073ffffffffffffffffffffffffffffffffffffffff168473ffffffffffffffffffffffffffffffffffffffff1614806119e257508373ffffffffffffffffffffffffffffffffffffffff166119ca846105cc565b73ffffffffffffffffffffffffffffffffffffffff16145b806119f357506119f281856114eb565b5b91505092915050565b8273ffffffffffffffffffffffffffffffffffffffff16611a1c82610d8c565b73ffffffffffffffffffffffffffffffffffffffff1614611a72576040517f08c379a0000000000000000000000000000000000000000000000000000000008152600401611a6990612e03565b60405180910390fd5b600073ffffffffffffffffffffffffffffffffffffffff168273ffffffffffffffffffffffffffffffffffffffff161415611ae2576040517f08c379a0000000000000000000000000000000000000000000000000000000008152600401611ad990612ce3565b60405180910390fd5b611aed838383611eba565b611af8600082611865565b6001600360008573ffffffffffffffffffffffffffffffffffffffff1673ffffffffffffffffffffffffffffffffffffffff1681526020019081526020016000206000828254611b489190613092565b925050819055506001600360008473ffffffffffffffffffffffffffffffffffffffff1673ffffffffffffffffffffffffffffffffffffffff1681526020019081526020016000206000828254611b9f919061300b565b92505081905550816002600083815260200190815260200160002060006101000a81548173ffffffffffffffffffffffffffffffffffffffff021916908373ffffffffffffffffffffffffffffffffffffffff160217905550808273ffffffffffffffffffffffffffffffffffffffff168473ffffffffffffffffffffffffffffffffffffffff167fddf252ad1be2c89b69c2b068fc378daa952ba7f163c4a11628f55a4df523b3ef60405160405180910390a4505050565b6001816000016000828254019250508190555050565b600081600001549050919050565b611c96828260405180602001604052806000815250611ebf565b5050565b611ca58484846119fc565b611cb184848484611f1a565b611cf0576040517f08c379a0000000000000000000000000000000000000000000000000000000008152600401611ce790612c63565b60405180910390fd5b50505050565b606060405180602001604052806000815250905090565b60606000821415611d55576040518060400160405280600181526020017f30000000000000000000000000000000000000000000000000000000000000008152509050611eb5565b600082905060005b60008214611d87578080611d70906131df565b915050600a82611d809190613061565b9150611d5d565b60008167ffffffffffffffff811115611dc9577f4e487b7100000000000000000000000000000000000000000000000000000000600052604160045260246000fd5b6040519080825280601f01601f191660200182016040528015611dfb5781602001600182028036833780820191505090505b5090505b60008514611eae57600182611e149190613092565b9150600a85611e239190613228565b6030611e2f919061300b565b60f81b818381518110611e6b577f4e487b7100000000000000000000000000000000000000000000000000000000600052603260045260246000fd5b60200101907effffffffffffffffffffffffffffffffffffffffffffffffffffffffffffff1916908160001a905350600a85611ea79190613061565b9450611dff565b8093505050505b919050565b505050565b611ec983836120b1565b611ed66000848484611f1a565b611f15576040517f08c379a0000000000000000000000000000000000000000000000000000000008152600401611f0c90612c63565b60405180910390fd5b505050565b6000611f3b8473ffffffffffffffffffffffffffffffffffffffff1661227f565b156120a4578373ffffffffffffffffffffffffffffffffffffffff1663150b7a02611f6461185d565b8786866040518563ffffffff1660e01b8152600401611f869493929190612bda565b602060405180830381600087803b158015611fa057600080fd5b505af1925050508015611fd157506040513d601f19601f82011682018060405250810190611fce919061270f565b60015b612054573d8060008114612001576040519150601f19603f3d011682016040523d82523d6000602084013e612006565b606091505b5060008151141561204c576040517f08c379a000000000000000000000000000000000000000000000000000000000815260040161204390612c63565b60405180910390fd5b805181602001fd5b63150b7a0260e01b7bffffffffffffffffffffffffffffffffffffffffffffffffffffffff1916817bffffffffffffffffffffffffffffffffffffffffffffffffffffffff1916149150506120a9565b600190505b949350505050565b600073ffffffffffffffffffffffffffffffffffffffff168273ffffffffffffffffffffffffffffffffffffffff161415612121576040517f08c379a000000000000000000000000000000000000000000000000000000000815260040161211890612da3565b60405180910390fd5b61212a816117f1565b1561216a576040517f08c379a000000000000000000000000000000000000000000000000000000000815260040161216190612cc3565b60405180910390fd5b61217660008383611eba565b6001600360008473ffffffffffffffffffffffffffffffffffffffff1673ffffffffffffffffffffffffffffffffffffffff16815260200190815260200160002060008282546121c6919061300b565b92505081905550816002600083815260200190815260200160002060006101000a81548173ffffffffffffffffffffffffffffffffffffffff021916908373ffffffffffffffffffffffffffffffffffffffff160217905550808273ffffffffffffffffffffffffffffffffffffffff16600073ffffffffffffffffffffffffffffffffffffffff167fddf252ad1be2c89b69c2b068fc378daa952ba7f163c4a11628f55a4df523b3ef60405160405180910390a45050565b600080823b905060008111915050919050565b604051806080016040528060008152602001600073ffffffffffffffffffffffffffffffffffffffff16815260200160608152602001600081525090565b8280546122dc9061317c565b90600052602060002090601f0160209004810192826122fe5760008555612345565b82601f1061231757805160ff1916838001178555612345565b82800160010185558215612345579182015b82811115612344578251825591602001919060010190612329565b5b5090506123529190612356565b5090565b5b8082111561236f576000816000905550600101612357565b5090565b600061238661238184612f55565b612f30565b90508281526020810184848401111561239e57600080fd5b6123a984828561313a565b509392505050565b60006123c46123bf84612f86565b612f30565b9050828152602081018484840111156123dc57600080fd5b6123e784828561313a565b509392505050565b6000813590506123fe81613845565b92915050565b6000813590506124138161385c565b92915050565b60008135905061242881613873565b92915050565b60008151905061243d81613873565b92915050565b600082601f83011261245457600080fd5b8135612464848260208601612373565b91505092915050565b600082601f83011261247e57600080fd5b813561248e8482602086016123b1565b91505092915050565b6000813590506124a68161388a565b92915050565b6000602082840312156124be57600080fd5b60006124cc848285016123ef565b91505092915050565b600080604083850312156124e857600080fd5b60006124f6858286016123ef565b9250506020612507858286016123ef565b9150509250929050565b60008060006060848603121561252657600080fd5b6000612534868287016123ef565b9350506020612545868287016123ef565b925050604061255686828701612497565b9150509250925092565b6000806000806080858703121561257657600080fd5b6000612584878288016123ef565b9450506020612595878288016123ef565b93505060406125a687828801612497565b925050606085013567ffffffffffffffff8111156125c357600080fd5b6125cf87828801612443565b91505092959194509250565b600080604083850312156125ee57600080fd5b60006125fc858286016123ef565b925050602061260d85828601612404565b9150509250929050565b6000806000806080858703121561262d57600080fd5b600061263b878288016123ef565b945050602085013567ffffffffffffffff81111561265857600080fd5b6126648782880161246d565b935050604085013567ffffffffffffffff81111561268157600080fd5b61268d8782880161246d565b925050606061269e87828801612497565b91505092959194509250565b600080604083850312156126bd57600080fd5b60006126cb858286016123ef565b92505060206126dc85828601612497565b9150509250929050565b6000602082840312156126f857600080fd5b600061270684828501612419565b91505092915050565b60006020828403121561272157600080fd5b600061272f8482850161242e565b91505092915050565b60006020828403121561274a57600080fd5b600061275884828501612497565b91505092915050565b61276a816130c6565b82525050565b612779816130c6565b82525050565b612788816130d8565b82525050565b600061279982612fb7565b6127a38185612fcd565b93506127b3818560208601613149565b6127bc81613315565b840191505092915050565b60006127d282612fc2565b6127dc8185612fde565b93506127ec818560208601613149565b6127f581613315565b840191505092915050565b600061280b82612fc2565b6128158185612fef565b9350612825818560208601613149565b61282e81613315565b840191505092915050565b600061284482612fc2565b61284e8185613000565b935061285e818560208601613149565b80840191505092915050565b6000612877603283612fef565b915061288282613326565b604082019050919050565b600061289a602683612fef565b91506128a582613375565b604082019050919050565b60006128bd601883612fef565b91506128c8826133c4565b602082019050919050565b60006128e0601c83612fef565b91506128eb826133ed565b602082019050919050565b6000612903602483612fef565b915061290e82613416565b604082019050919050565b6000612926601983612fef565b915061293182613465565b602082019050919050565b6000612949602c83612fef565b91506129548261348e565b604082019050919050565b600061296c603883612fef565b9150612977826134dd565b604082019050919050565b600061298f602a83612fef565b915061299a8261352c565b604082019050919050565b60006129b2602983612fef565b91506129bd8261357b565b604082019050919050565b60006129d5602083612fef565b91506129e0826135ca565b602082019050919050565b60006129f8602c83612fef565b9150612a03826135f3565b604082019050919050565b6000612a1b602083612fef565b9150612a2682613642565b602082019050919050565b6000612a3e602983612fef565b9150612a498261366b565b604082019050919050565b6000612a61602f83612fef565b9150612a6c826136ba565b604082019050919050565b6000612a84602183612fef565b9150612a8f82613709565b604082019050919050565b6000612aa7603183612fef565b9150612ab282613758565b604082019050919050565b6000612aca602183612fef565b9150612ad5826137a7565b604082019050919050565b6000612aed602183612fef565b9150612af8826137f6565b604082019050919050565b6000608083016000830151612b1b6000860182612b66565b506020830151612b2e6020860182612761565b5060408301518482036040860152612b4682826127c7565b9150506060830151612b5b6060860182612b66565b508091505092915050565b612b6f81613130565b82525050565b612b7e81613130565b82525050565b6000612b908284612839565b915081905092915050565b6000612ba78285612839565b9150612bb38284612839565b91508190509392505050565b6000602082019050612bd46000830184612770565b92915050565b6000608082019050612bef6000830187612770565b612bfc6020830186612770565b612c096040830185612b75565b8181036060830152612c1b818461278e565b905095945050505050565b6000602082019050612c3b600083018461277f565b92915050565b60006020820190508181036000830152612c5b8184612800565b905092915050565b60006020820190508181036000830152612c7c8161286a565b9050919050565b60006020820190508181036000830152612c9c8161288d565b9050919050565b60006020820190508181036000830152612cbc816128b0565b9050919050565b60006020820190508181036000830152612cdc816128d3565b9050919050565b60006020820190508181036000830152612cfc816128f6565b9050919050565b60006020820190508181036000830152612d1c81612919565b9050919050565b60006020820190508181036000830152612d3c8161293c565b9050919050565b60006020820190508181036000830152612d5c8161295f565b9050919050565b60006020820190508181036000830152612d7c81612982565b9050919050565b60006020820190508181036000830152612d9c816129a5565b9050919050565b60006020820190508181036000830152612dbc816129c8565b9050919050565b60006020820190508181036000830152612ddc816129eb565b9050919050565b60006020820190508181036000830152612dfc81612a0e565b9050919050565b60006020820190508181036000830152612e1c81612a31565b9050919050565b60006020820190508181036000830152612e3c81612a54565b9050919050565b60006020820190508181036000830152612e5c81612a77565b9050919050565b60006020820190508181036000830152612e7c81612a9a565b9050919050565b60006020820190508181036000830152612e9c81612abd565b9050919050565b60006020820190508181036000830152612ebc81612ae0565b9050919050565b60006020820190508181036000830152612edd8184612b03565b905092915050565b6000602082019050612efa6000830184612b75565b92915050565b6000604082019050612f156000830185612b75565b8181036020830152612f278184612800565b90509392505050565b6000612f3a612f4b565b9050612f4682826131ae565b919050565b6000604051905090565b600067ffffffffffffffff821115612f7057612f6f6132e6565b5b612f7982613315565b9050602081019050919050565b600067ffffffffffffffff821115612fa157612fa06132e6565b5b612faa82613315565b9050602081019050919050565b600081519050919050565b600081519050919050565b600082825260208201905092915050565b600082825260208201905092915050565b600082825260208201905092915050565b600081905092915050565b600061301682613130565b915061302183613130565b9250827fffffffffffffffffffffffffffffffffffffffffffffffffffffffffffffffff0382111561305657613055613259565b5b828201905092915050565b600061306c82613130565b915061307783613130565b92508261308757613086613288565b5b828204905092915050565b600061309d82613130565b91506130a883613130565b9250828210156130bb576130ba613259565b5b828203905092915050565b60006130d182613110565b9050919050565b60008115159050919050565b60007fffffffff0000000000000000000000000000000000000000000000000000000082169050919050565b600073ffffffffffffffffffffffffffffffffffffffff82169050919050565b6000819050919050565b82818337600083830152505050565b60005b8381101561316757808201518184015260208101905061314c565b83811115613176576000848401525b50505050565b6000600282049050600182168061319457607f821691505b602082108114156131a8576131a76132b7565b5b50919050565b6131b782613315565b810181811067ffffffffffffffff821117156131d6576131d56132e6565b5b80604052505050565b60006131ea82613130565b91507fffffffffffffffffffffffffffffffffffffffffffffffffffffffffffffffff82141561321d5761321c613259565b5b600182019050919050565b600061323382613130565b915061323e83613130565b92508261324e5761324d613288565b5b828206905092915050565b7f4e487b7100000000000000000000000000000000000000000000000000000000600052601160045260246000fd5b7f4e487b7100000000000000000000000000000000000000000000000000000000600052601260045260246000fd5b7f4e487b7100000000000000000000000000000000000000000000000000000000600052602260045260246000fd5b7f4e487b7100000000000000000000000000000000000000000000000000000000600052604160045260246000fd5b6000601f19601f8301169050919050565b7f4552433732313a207472616e7366657220746f206e6f6e20455243373231526560008201527f63656976657220696d706c656d656e7465720000000000000000000000000000602082015250565b7f4f776e61626c653a206e6577206f776e657220697320746865207a65726f206160008201527f6464726573730000000000000000000000000000000000000000000000000000602082015250565b7f4368696c6c69537761703a20626520612063726561746f720000000000000000600082015250565b7f4552433732313a20746f6b656e20616c7265616479206d696e74656400000000600082015250565b7f4552433732313a207472616e7366657220746f20746865207a65726f2061646460008201527f7265737300000000000000000000000000000000000000000000000000000000602082015250565b7f4552433732313a20617070726f766520746f2063616c6c657200000000000000600082015250565b7f4552433732313a206f70657261746f7220717565727920666f72206e6f6e657860008201527f697374656e7420746f6b656e0000000000000000000000000000000000000000602082015250565b7f4552433732313a20617070726f76652063616c6c6572206973206e6f74206f7760008201527f6e6572206e6f7220617070726f76656420666f7220616c6c0000000000000000602082015250565b7f4552433732313a2062616c616e636520717565727920666f7220746865207a6560008201527f726f206164647265737300000000000000000000000000000000000000000000602082015250565b7f4552433732313a206f776e657220717565727920666f72206e6f6e657869737460008201527f656e7420746f6b656e0000000000000000000000000000000000000000000000602082015250565b7f4552433732313a206d696e7420746f20746865207a65726f2061646472657373600082015250565b7f4552433732313a20617070726f76656420717565727920666f72206e6f6e657860008201527f697374656e7420746f6b656e0000000000000000000000000000000000000000602082015250565b7f4f776e61626c653a2063616c6c6572206973206e6f7420746865206f776e6572600082015250565b7f4552433732313a207472616e73666572206f6620746f6b656e2074686174206960008201527f73206e6f74206f776e0000000000000000000000000000000000000000000000602082015250565b7f4552433732314d657461646174613a2055524920717565727920666f72206e6f60008201527f6e6578697374656e7420746f6b656e0000000000000000000000000000000000602082015250565b7f4552433732313a20617070726f76616c20746f2063757272656e74206f776e6560008201527f7200000000000000000000000000000000000000000000000000000000000000602082015250565b7f4552433732313a207472616e736665722063616c6c6572206973206e6f74206f60008201527f776e6572206e6f7220617070726f766564000000000000000000000000000000602082015250565b7f4368696c6c69537761703a2063726561746f7220646f65736e2774206578697360008201527f7400000000000000000000000000000000000000000000000000000000000000602082015250565b7f4368696c6c69537761703a2063726561746f7220616c7265616479206578697360008201527f7400000000000000000000000000000000000000000000000000000000000000602082015250565b61384e816130c6565b811461385957600080fd5b50565b613865816130d8565b811461387057600080fd5b50565b61387c816130e4565b811461388757600080fd5b50565b61389381613130565b811461389e57600080fd5b5056fea2646970667358221220eff99b5a6adb6f30484dc39e2d9b53a502abdf1c43a406fd6a6ec1195ba9f8c264736f6c63430008040033",
  "immutableReferences": {},
  "source": "// SPDX-License-Identifier: MIT\r\n\r\npragma solidity ^0.8.0;\r\n\r\nimport \"@openzeppelin/contracts/token/ERC721/ERC721.sol\";\r\nimport \"@openzeppelin/contracts/utils/Counters.sol\";\r\nimport \"@openzeppelin/contracts/access/Ownable.sol\";\r\n\r\nimport \"./IChilliSwap.sol\";\r\n\r\n\r\ncontract ChilliSwap is ERC721, IChilliSwap,Ownable {\r\n    using Counters for Counters.Counter;\r\n    Counters.Counter private _tokenIds;\r\n\r\n    // uint256 public constant DAY = 86400;\r\n    // uint256 public constant FIFTEEN_MINUTES = 900;\r\n\r\n    // uint256 public constant AUCTION_TIME = DAY;\r\n    // uint256 public constant LAST_BIDDER_RESET_TIME = FIFTEEN_MINUTES;\r\n\r\n    // uint256 public FEE = 15;\r\n    // uint256 public TOKEN_FEE = 15;\r\n    // uint256 public NEXT_BID_PERCENTAGE = 5;\r\n    // address public TOKEN_ADDRESS;\r\n\r\n    //Hashes helps to prevent from using the same hash\r\n    mapping(string => uint8) hashes;\r\n    mapping(uint256 => Artwork) private artworks;\r\n    mapping(address => uint8) private creators;\r\n    //mapping(uint256 => Auction) private auctionList;\r\n\r\n    constructor() ERC721(\"ChilliSwap\", \"CSWP\") {}\r\n\r\n\r\n    function mintNFT(address recipient, string memory _metadata, string memory _artwork,  uint256 _royalty ) public override returns (uint256) {\r\n        require(hashes[_metadata] != 1);\r\n        require(hashes[_artwork] != 1);\r\n        require(creators[msg.sender] == 1, \"ChilliSwap: be a creator\");\r\n\r\n        hashes[_metadata] = 1;\r\n        hashes[_artwork] = 1;\r\n\r\n        _tokenIds.increment();\r\n        uint256 newItemId = _tokenIds.current();\r\n        _safeMint(recipient, newItemId);\r\n\r\n        artworks[newItemId] = Artwork(block.timestamp, msg.sender, _metadata,  _royalty);\r\n        emit Mint(recipient, newItemId, _artwork);\r\n        return newItemId;\r\n    }\r\n\r\n    function getArtwork(uint256 _tokenId) public view override returns (Artwork memory){\r\n        require( _exists(_tokenId), \"ERC721: approved query for nonexistent token\" );\r\n        return artworks[_tokenId];\r\n    }\r\n\r\n    function addCreator(address _address) public override onlyOwner returns(bool){\r\n        require(creators[_address] != 1, \"ChilliSwap: creator already exist\");\r\n        creators[_address] = 1;\r\n        return true;\r\n    }\r\n    function removeCreator(address _address)  public  override onlyOwner returns(bool){\r\n        require(creators[_address] == 1, \"ChilliSwap: creator doesn't exist\");\r\n        creators[_address] = 0;\r\n        return true;\r\n    }\r\n    function isCreator(address _address) public view override returns(bool){\r\n        return creators[_address] == 1;\r\n    }\r\n\r\n\r\n    // function listOnAuction(uint256 tokenId, uint256 price, CURRENCY currency ) public override returns (Auction memory) {\r\n    //     require( ownerOf(tokenId) == msg.sender, \"ChilliSwap: Only owner can list the token to auction\");\r\n    //     require(!auctionList[tokenId].active, \"ChilliSwap: Already List in Auction\" );\r\n\r\n    //     uint256 endTime = AUCTION_TIME + block.timestamp;\r\n\r\n    //     Auction memory newAuction = auctionList[tokenId];\r\n\r\n    //     newAuction = Auction(true, msg.sender, address(0), price, endTime, currency );\r\n\r\n    //     auctionList[tokenId] = newAuction;\r\n    //     _transfer(msg.sender, address(this), tokenId);\r\n\r\n    //     emit ListOnAuction(msg.sender, tokenId, price, endTime,  currency);\r\n\r\n    //     return newAuction;\r\n    // }\r\n\r\n    // function bid(uint256 _tokenId) public payable override returns(Auction memory){\r\n    //     Auction memory auctionItem = auctionList[_tokenId];\r\n    //     require(auctionItem.active, \"ChilliSwap: Not in Auction\");\r\n    //     require(auctionItem.currency == CURRENCY.ETH, \"ChilliSwap: invalid currency type\");\r\n\r\n    //     if(block.timestamp > auctionItem.endTime){\r\n    //         if(auctionItem.owner == address(0)){\r\n    //             auctionItem.endTime = AUCTION_TIME + block.timestamp;\r\n    //         }else{\r\n    //            revert(\"ChilliSwap: Auction Time Ended\");\r\n    //         }\r\n    //     }\r\n    //    // require( block.timestamp < auctionItem.endTime, \"ChilliSwap: Auction Time Ended\");\r\n\r\n    //     uint256 bidValueMust = auctionItem.value;\r\n    //     bidValueMust = bidValueMust + (bidValueMust * NEXT_BID_PERCENTAGE / 100);\r\n    //     require( bidValueMust <= msg.value, \"ChilliSwap: bid value must be greater than pervious bidder\" );\r\n\r\n    //     // release the funds to the old user\r\n    //     if(auctionItem.owner != address(0)) {\r\n    //         payable(auctionItem.owner).transfer(auctionItem.value);\r\n    //     }\r\n    //     auctionItem.owner = msg.sender;\r\n    //     auctionItem.value = msg.value;\r\n        \r\n    //     uint256 remainingTime = auctionItem.endTime - block.timestamp;\r\n    //     if (remainingTime < LAST_BIDDER_RESET_TIME) {\r\n    //         auctionItem.endTime = LAST_BIDDER_RESET_TIME + block.timestamp;\r\n    //     }\r\n\r\n    //     auctionList[_tokenId] = auctionItem;\r\n\r\n    //      emit Bid(msg.sender,  _tokenId, msg.value,  CURRENCY.ETH);\r\n\r\n    //     return auctionList[_tokenId];\r\n    // }\r\n\r\n    // function bidToken(uint256 _tokenId, uint256 price) public override returns(Auction memory) {\r\n    //     Auction memory auctionItem = auctionList[_tokenId];\r\n    //     require(auctionItem.active, \"ChilliSwap: Not in Auction\");\r\n    //     require(auctionItem.currency == CURRENCY.TOKEN, \"ChilliSwap: invalid currency type\");\r\n\r\n    //     if(block.timestamp > auctionItem.endTime){\r\n    //         if(auctionItem.owner == address(0)){\r\n    //             auctionItem.endTime = AUCTION_TIME + block.timestamp;\r\n    //         }else{\r\n    //            revert(\"ChilliSwap: Auction Time Ended\");\r\n    //         }\r\n    //     }\r\n\r\n    //     uint256 bidValueMust = auctionItem.value;\r\n    //     bidValueMust = bidValueMust + (bidValueMust * NEXT_BID_PERCENTAGE / 100);\r\n    //     require( bidValueMust <= price, \"ChilliSwap: bid value must be greater than pervious bidder\" );\r\n    //     require(Token(TOKEN_ADDRESS).allowance(msg.sender, address(this)) >= price, \"ChilliSwap: insufficient Allowance\");\r\n\r\n    //     Token(TOKEN_ADDRESS).transferFrom(msg.sender, address(this), price);\r\n\r\n    //     if(auctionItem.owner != address(0)) {\r\n    //         Token(TOKEN_ADDRESS).transfer(auctionItem.owner,auctionItem.value);\r\n    //     }\r\n    //     auctionItem.owner = msg.sender;\r\n    //     auctionItem.value = price;\r\n        \r\n    //     uint256 remainingTime = auctionItem.endTime - block.timestamp;\r\n    //     if (remainingTime < LAST_BIDDER_RESET_TIME) {\r\n    //         auctionItem.endTime = LAST_BIDDER_RESET_TIME + block.timestamp;\r\n    //     }\r\n\r\n    //     auctionList[_tokenId] = auctionItem;\r\n\r\n    //     emit Bid(msg.sender,  _tokenId, price, CURRENCY.TOKEN);\r\n\r\n    //     return auctionList[_tokenId];\r\n    // }\r\n\r\n    // function claimNft(uint256 _tokenId) public override returns(uint256) {\r\n    //     Auction memory auctionItem = auctionList[_tokenId];\r\n\r\n    //     require(auctionItem.active, \"ChilliSwap: Not in Auction\");\r\n\r\n    //     require(block.timestamp > auctionItem.endTime, \"ChilliSwap: Auction Still onGoing\");\r\n\r\n    //     if ( auctionItem.creator == msg.sender || auctionItem.owner == msg.sender ) {\r\n\r\n    //         if (auctionItem.owner == address(0)) {\r\n    //             _transfer(address(this), auctionItem.creator, _tokenId);\r\n    //         } else {\r\n    //             _transfer(address(this), auctionItem.owner, _tokenId);\r\n\r\n    //             if(auctionItem.currency == CURRENCY.ETH){\r\n    //                 uint256 value = auctionItem.value - ((auctionItem.value * FEE) / 100);\r\n    //                 payable(auctionItem.creator).transfer(value);\r\n    //             }else{\r\n    //                 uint256 value = auctionItem.value - ((auctionItem.value * TOKEN_FEE) / 100);\r\n    //                 Token(TOKEN_ADDRESS).transfer(auctionItem.creator,value);\r\n    //             }\r\n    //         }\r\n\r\n    //         delete auctionList[_tokenId];\r\n\r\n    //         emit ClaimNft(auctionItem.owner, _tokenId);\r\n\r\n    //         return _tokenId;\r\n    //     } else {\r\n    //         revert(\"ChilliSwap: Must be Owner\");\r\n    //     }\r\n    // }\r\n\r\n    \r\n   \r\n\r\n\r\n\r\n    // function getAuction(uint256 _tokenId) public view override returns (Auction memory) {\r\n    //     return auctionList[_tokenId];\r\n    // }\r\n\r\n    // function setTokenAddress(address tokenAddress) public override onlyOwner {\r\n    //     TOKEN_ADDRESS = tokenAddress;\r\n    // }\r\n\r\n    // function setFee(uint256 fee, uint256 tokenFee) public override onlyOwner {\r\n    //     FEE = fee;\r\n    //     TOKEN_FEE = tokenFee;\r\n    // }\r\n\r\n    // function setNextBidPercentage(uint256 nextBidPercent) public override onlyOwner {\r\n    //     NEXT_BID_PERCENTAGE = nextBidPercent;\r\n    // }\r\n    \r\n    // function getDetails(uint256 fee, uint256 tokenFee) public override  {\r\n    //     return \r\n    // }\r\n    \r\n\r\n    // function withdraw(address _address, uint256 _value, CURRENCY currency) public override onlyOwner {\r\n\r\n    //     if(currency == CURRENCY.ETH){\r\n    //         payable(_address).transfer(_value);\r\n    //     }else{\r\n    //         Token(TOKEN_ADDRESS).transfer(_address,_value);\r\n    //     }\r\n    // }\r\n\r\n\r\n  }\r\n",
  "sourcePath": "E:\\Workspace\\Projects\\Production\\NFTs\\Chilliswap\\chilliswap\\contracts\\contracts\\ChilliSwap.sol",
  "compiler": {
    "name": "solc",
    "version": "0.8.4+commit.c7e474f2.Emscripten.clang"
  },
  "schemaVersion": "3.3.4",
  "updatedAt": "2021-06-03T05:35:28.312Z",
  "devdoc": {
    "kind": "dev",
    "methods": {
      "approve(address,uint256)": {
        "details": "See {IERC721-approve}."
      },
      "balanceOf(address)": {
        "details": "See {IERC721-balanceOf}."
      },
      "getApproved(uint256)": {
        "details": "See {IERC721-getApproved}."
      },
      "isApprovedForAll(address,address)": {
        "details": "See {IERC721-isApprovedForAll}."
      },
      "name()": {
        "details": "See {IERC721Metadata-name}."
      },
      "owner()": {
        "details": "Returns the address of the current owner."
      },
      "ownerOf(uint256)": {
        "details": "See {IERC721-ownerOf}."
      },
      "renounceOwnership()": {
        "details": "Leaves the contract without owner. It will not be possible to call `onlyOwner` functions anymore. Can only be called by the current owner. NOTE: Renouncing ownership will leave the contract without an owner, thereby removing any functionality that is only available to the owner."
      },
      "safeTransferFrom(address,address,uint256)": {
        "details": "See {IERC721-safeTransferFrom}."
      },
      "safeTransferFrom(address,address,uint256,bytes)": {
        "details": "See {IERC721-safeTransferFrom}."
      },
      "setApprovalForAll(address,bool)": {
        "details": "See {IERC721-setApprovalForAll}."
      },
      "supportsInterface(bytes4)": {
        "details": "See {IERC165-supportsInterface}."
      },
      "symbol()": {
        "details": "See {IERC721Metadata-symbol}."
      },
      "tokenURI(uint256)": {
        "details": "See {IERC721Metadata-tokenURI}."
      },
      "transferFrom(address,address,uint256)": {
        "details": "See {IERC721-transferFrom}."
      },
      "transferOwnership(address)": {
        "details": "Transfers ownership of the contract to a new account (`newOwner`). Can only be called by the current owner."
      }
    },
    "version": 1
  },
  "userdoc": {
    "kind": "user",
    "methods": {},
    "version": 1
  }
}