{
  "contractName": "Digiplaza",
  "abi": [
    {
      "inputs": [],
      "stateMutability": "nonpayable",
      "type": "constructor"
    },
    {
      "anonymous": false,
      "inputs": [
        {
          "indexed": true,
          "internalType": "address",
          "name": "owner",
          "type": "address"
        },
        {
          "indexed": true,
          "internalType": "address",
          "name": "approved",
          "type": "address"
        },
        {
          "indexed": true,
          "internalType": "uint256",
          "name": "tokenId",
          "type": "uint256"
        }
      ],
      "name": "Approval",
      "type": "event"
    },
    {
      "anonymous": false,
      "inputs": [
        {
          "indexed": true,
          "internalType": "address",
          "name": "owner",
          "type": "address"
        },
        {
          "indexed": true,
          "internalType": "address",
          "name": "operator",
          "type": "address"
        },
        {
          "indexed": false,
          "internalType": "bool",
          "name": "approved",
          "type": "bool"
        }
      ],
      "name": "ApprovalForAll",
      "type": "event"
    },
    {
      "anonymous": false,
      "inputs": [
        {
          "indexed": false,
          "internalType": "address",
          "name": "bidder",
          "type": "address"
        },
        {
          "indexed": true,
          "internalType": "uint256",
          "name": "tokenId",
          "type": "uint256"
        },
        {
          "indexed": false,
          "internalType": "uint256",
          "name": "value",
          "type": "uint256"
        },
        {
          "indexed": false,
          "internalType": "enum IDigiplaza.CURRENCY",
          "name": "currency",
          "type": "uint8"
        }
      ],
      "name": "Bid",
      "type": "event"
    },
    {
      "anonymous": false,
      "inputs": [
        {
          "indexed": false,
          "internalType": "address",
          "name": "collector",
          "type": "address"
        },
        {
          "indexed": true,
          "internalType": "uint256",
          "name": "tokenId",
          "type": "uint256"
        }
      ],
      "name": "ClaimNft",
      "type": "event"
    },
    {
      "anonymous": false,
      "inputs": [
        {
          "indexed": true,
          "internalType": "address",
          "name": "owner",
          "type": "address"
        },
        {
          "indexed": false,
          "internalType": "uint256",
          "name": "tokenId",
          "type": "uint256"
        },
        {
          "indexed": false,
          "internalType": "uint256",
          "name": "price",
          "type": "uint256"
        },
        {
          "indexed": false,
          "internalType": "uint256",
          "name": "endTime",
          "type": "uint256"
        },
        {
          "indexed": false,
          "internalType": "enum IDigiplaza.CURRENCY",
          "name": "currency",
          "type": "uint8"
        }
      ],
      "name": "ListOnAuction",
      "type": "event"
    },
    {
      "anonymous": false,
      "inputs": [
        {
          "indexed": true,
          "internalType": "address",
          "name": "to",
          "type": "address"
        },
        {
          "indexed": false,
          "internalType": "uint256",
          "name": "tokenId",
          "type": "uint256"
        },
        {
          "indexed": false,
          "internalType": "string",
          "name": "artwork",
          "type": "string"
        }
      ],
      "name": "Mint",
      "type": "event"
    },
    {
      "anonymous": false,
      "inputs": [
        {
          "indexed": true,
          "internalType": "address",
          "name": "previousOwner",
          "type": "address"
        },
        {
          "indexed": true,
          "internalType": "address",
          "name": "newOwner",
          "type": "address"
        }
      ],
      "name": "OwnershipTransferred",
      "type": "event"
    },
    {
      "anonymous": false,
      "inputs": [
        {
          "indexed": true,
          "internalType": "address",
          "name": "from",
          "type": "address"
        },
        {
          "indexed": true,
          "internalType": "address",
          "name": "to",
          "type": "address"
        },
        {
          "indexed": true,
          "internalType": "uint256",
          "name": "tokenId",
          "type": "uint256"
        }
      ],
      "name": "Transfer",
      "type": "event"
    },
    {
      "inputs": [],
      "name": "AUCTION_TIME",
      "outputs": [
        {
          "internalType": "uint256",
          "name": "",
          "type": "uint256"
        }
      ],
      "stateMutability": "view",
      "type": "function"
    },
    {
      "inputs": [],
      "name": "DAY",
      "outputs": [
        {
          "internalType": "uint256",
          "name": "",
          "type": "uint256"
        }
      ],
      "stateMutability": "view",
      "type": "function"
    },
    {
      "inputs": [],
      "name": "FIFTEEN_MINUTES",
      "outputs": [
        {
          "internalType": "uint256",
          "name": "",
          "type": "uint256"
        }
      ],
      "stateMutability": "view",
      "type": "function"
    },
    {
      "inputs": [],
      "name": "LAST_BIDDER_RESET_TIME",
      "outputs": [
        {
          "internalType": "uint256",
          "name": "",
          "type": "uint256"
        }
      ],
      "stateMutability": "view",
      "type": "function"
    },
    {
      "inputs": [
        {
          "internalType": "address",
          "name": "to",
          "type": "address"
        },
        {
          "internalType": "uint256",
          "name": "tokenId",
          "type": "uint256"
        }
      ],
      "name": "approve",
      "outputs": [],
      "stateMutability": "nonpayable",
      "type": "function"
    },
    {
      "inputs": [
        {
          "internalType": "address",
          "name": "owner",
          "type": "address"
        }
      ],
      "name": "balanceOf",
      "outputs": [
        {
          "internalType": "uint256",
          "name": "",
          "type": "uint256"
        }
      ],
      "stateMutability": "view",
      "type": "function"
    },
    {
      "inputs": [
        {
          "internalType": "uint256",
          "name": "tokenId",
          "type": "uint256"
        }
      ],
      "name": "getApproved",
      "outputs": [
        {
          "internalType": "address",
          "name": "",
          "type": "address"
        }
      ],
      "stateMutability": "view",
      "type": "function"
    },
    {
      "inputs": [
        {
          "internalType": "address",
          "name": "owner",
          "type": "address"
        },
        {
          "internalType": "address",
          "name": "operator",
          "type": "address"
        }
      ],
      "name": "isApprovedForAll",
      "outputs": [
        {
          "internalType": "bool",
          "name": "",
          "type": "bool"
        }
      ],
      "stateMutability": "view",
      "type": "function"
    },
    {
      "inputs": [],
      "name": "name",
      "outputs": [
        {
          "internalType": "string",
          "name": "",
          "type": "string"
        }
      ],
      "stateMutability": "view",
      "type": "function"
    },
    {
      "inputs": [],
      "name": "owner",
      "outputs": [
        {
          "internalType": "address",
          "name": "",
          "type": "address"
        }
      ],
      "stateMutability": "view",
      "type": "function"
    },
    {
      "inputs": [
        {
          "internalType": "uint256",
          "name": "tokenId",
          "type": "uint256"
        }
      ],
      "name": "ownerOf",
      "outputs": [
        {
          "internalType": "address",
          "name": "",
          "type": "address"
        }
      ],
      "stateMutability": "view",
      "type": "function"
    },
    {
      "inputs": [],
      "name": "renounceOwnership",
      "outputs": [],
      "stateMutability": "nonpayable",
      "type": "function"
    },
    {
      "inputs": [
        {
          "internalType": "address",
          "name": "from",
          "type": "address"
        },
        {
          "internalType": "address",
          "name": "to",
          "type": "address"
        },
        {
          "internalType": "uint256",
          "name": "tokenId",
          "type": "uint256"
        }
      ],
      "name": "safeTransferFrom",
      "outputs": [],
      "stateMutability": "nonpayable",
      "type": "function"
    },
    {
      "inputs": [
        {
          "internalType": "address",
          "name": "from",
          "type": "address"
        },
        {
          "internalType": "address",
          "name": "to",
          "type": "address"
        },
        {
          "internalType": "uint256",
          "name": "tokenId",
          "type": "uint256"
        },
        {
          "internalType": "bytes",
          "name": "_data",
          "type": "bytes"
        }
      ],
      "name": "safeTransferFrom",
      "outputs": [],
      "stateMutability": "nonpayable",
      "type": "function"
    },
    {
      "inputs": [
        {
          "internalType": "address",
          "name": "operator",
          "type": "address"
        },
        {
          "internalType": "bool",
          "name": "approved",
          "type": "bool"
        }
      ],
      "name": "setApprovalForAll",
      "outputs": [],
      "stateMutability": "nonpayable",
      "type": "function"
    },
    {
      "inputs": [
        {
          "internalType": "bytes4",
          "name": "interfaceId",
          "type": "bytes4"
        }
      ],
      "name": "supportsInterface",
      "outputs": [
        {
          "internalType": "bool",
          "name": "",
          "type": "bool"
        }
      ],
      "stateMutability": "view",
      "type": "function"
    },
    {
      "inputs": [],
      "name": "symbol",
      "outputs": [
        {
          "internalType": "string",
          "name": "",
          "type": "string"
        }
      ],
      "stateMutability": "view",
      "type": "function"
    },
    {
      "inputs": [
        {
          "internalType": "uint256",
          "name": "tokenId",
          "type": "uint256"
        }
      ],
      "name": "tokenURI",
      "outputs": [
        {
          "internalType": "string",
          "name": "",
          "type": "string"
        }
      ],
      "stateMutability": "view",
      "type": "function"
    },
    {
      "inputs": [
        {
          "internalType": "address",
          "name": "from",
          "type": "address"
        },
        {
          "internalType": "address",
          "name": "to",
          "type": "address"
        },
        {
          "internalType": "uint256",
          "name": "tokenId",
          "type": "uint256"
        }
      ],
      "name": "transferFrom",
      "outputs": [],
      "stateMutability": "nonpayable",
      "type": "function"
    },
    {
      "inputs": [
        {
          "internalType": "address",
          "name": "newOwner",
          "type": "address"
        }
      ],
      "name": "transferOwnership",
      "outputs": [],
      "stateMutability": "nonpayable",
      "type": "function"
    },
    {
      "inputs": [
        {
          "internalType": "address",
          "name": "recipient",
          "type": "address"
        },
        {
          "internalType": "string",
          "name": "_metadata",
          "type": "string"
        },
        {
          "internalType": "string",
          "name": "_artwork",
          "type": "string"
        }
      ],
      "name": "mintNFT",
      "outputs": [
        {
          "internalType": "uint256",
          "name": "",
          "type": "uint256"
        }
      ],
      "stateMutability": "nonpayable",
      "type": "function"
    },
    {
      "inputs": [
        {
          "internalType": "uint256",
          "name": "tokenId",
          "type": "uint256"
        },
        {
          "internalType": "uint256",
          "name": "price",
          "type": "uint256"
        },
        {
          "internalType": "enum IDigiplaza.CURRENCY",
          "name": "currency",
          "type": "uint8"
        }
      ],
      "name": "listOnAuction",
      "outputs": [
        {
          "components": [
            {
              "internalType": "bool",
              "name": "active",
              "type": "bool"
            },
            {
              "internalType": "address",
              "name": "creator",
              "type": "address"
            },
            {
              "internalType": "address",
              "name": "owner",
              "type": "address"
            },
            {
              "internalType": "uint256",
              "name": "value",
              "type": "uint256"
            },
            {
              "internalType": "uint256",
              "name": "endTime",
              "type": "uint256"
            },
            {
              "internalType": "enum IDigiplaza.CURRENCY",
              "name": "currency",
              "type": "uint8"
            }
          ],
          "internalType": "struct IDigiplaza.Auction",
          "name": "",
          "type": "tuple"
        }
      ],
      "stateMutability": "nonpayable",
      "type": "function"
    },
    {
      "inputs": [
        {
          "internalType": "uint256",
          "name": "_tokenId",
          "type": "uint256"
        }
      ],
      "name": "bid",
      "outputs": [
        {
          "components": [
            {
              "internalType": "bool",
              "name": "active",
              "type": "bool"
            },
            {
              "internalType": "address",
              "name": "creator",
              "type": "address"
            },
            {
              "internalType": "address",
              "name": "owner",
              "type": "address"
            },
            {
              "internalType": "uint256",
              "name": "value",
              "type": "uint256"
            },
            {
              "internalType": "uint256",
              "name": "endTime",
              "type": "uint256"
            },
            {
              "internalType": "enum IDigiplaza.CURRENCY",
              "name": "currency",
              "type": "uint8"
            }
          ],
          "internalType": "struct IDigiplaza.Auction",
          "name": "",
          "type": "tuple"
        }
      ],
      "stateMutability": "payable",
      "type": "function"
    },
    {
      "inputs": [
        {
          "internalType": "uint256",
          "name": "_tokenId",
          "type": "uint256"
        },
        {
          "internalType": "uint256",
          "name": "price",
          "type": "uint256"
        }
      ],
      "name": "bidToken",
      "outputs": [
        {
          "components": [
            {
              "internalType": "bool",
              "name": "active",
              "type": "bool"
            },
            {
              "internalType": "address",
              "name": "creator",
              "type": "address"
            },
            {
              "internalType": "address",
              "name": "owner",
              "type": "address"
            },
            {
              "internalType": "uint256",
              "name": "value",
              "type": "uint256"
            },
            {
              "internalType": "uint256",
              "name": "endTime",
              "type": "uint256"
            },
            {
              "internalType": "enum IDigiplaza.CURRENCY",
              "name": "currency",
              "type": "uint8"
            }
          ],
          "internalType": "struct IDigiplaza.Auction",
          "name": "",
          "type": "tuple"
        }
      ],
      "stateMutability": "nonpayable",
      "type": "function"
    },
    {
      "inputs": [
        {
          "internalType": "uint256",
          "name": "_tokenId",
          "type": "uint256"
        }
      ],
      "name": "claimNft",
      "outputs": [
        {
          "internalType": "uint256",
          "name": "",
          "type": "uint256"
        }
      ],
      "stateMutability": "nonpayable",
      "type": "function"
    },
    {
      "inputs": [
        {
          "internalType": "uint256",
          "name": "_tokenId",
          "type": "uint256"
        }
      ],
      "name": "getTokenMetaData",
      "outputs": [
        {
          "internalType": "string",
          "name": "",
          "type": "string"
        }
      ],
      "stateMutability": "view",
      "type": "function"
    },
    {
      "inputs": [
        {
          "internalType": "uint256",
          "name": "_tokenId",
          "type": "uint256"
        }
      ],
      "name": "getAuction",
      "outputs": [
        {
          "components": [
            {
              "internalType": "bool",
              "name": "active",
              "type": "bool"
            },
            {
              "internalType": "address",
              "name": "creator",
              "type": "address"
            },
            {
              "internalType": "address",
              "name": "owner",
              "type": "address"
            },
            {
              "internalType": "uint256",
              "name": "value",
              "type": "uint256"
            },
            {
              "internalType": "uint256",
              "name": "endTime",
              "type": "uint256"
            },
            {
              "internalType": "enum IDigiplaza.CURRENCY",
              "name": "currency",
              "type": "uint8"
            }
          ],
          "internalType": "struct IDigiplaza.Auction",
          "name": "",
          "type": "tuple"
        }
      ],
      "stateMutability": "view",
      "type": "function"
    },
    {
      "inputs": [
        {
          "internalType": "address",
          "name": "tokenAddress",
          "type": "address"
        }
      ],
      "name": "setTokenAddress",
      "outputs": [],
      "stateMutability": "nonpayable",
      "type": "function"
    },
    {
      "inputs": [
        {
          "internalType": "uint256",
          "name": "fee",
          "type": "uint256"
        },
        {
          "internalType": "uint256",
          "name": "tokenFee",
          "type": "uint256"
        }
      ],
      "name": "setFee",
      "outputs": [],
      "stateMutability": "nonpayable",
      "type": "function"
    },
    {
      "inputs": [
        {
          "internalType": "uint256",
          "name": "fee",
          "type": "uint256"
        },
        {
          "internalType": "uint256",
          "name": "tokenFee",
          "type": "uint256"
        }
      ],
      "name": "setNextBidPercentage",
      "outputs": [],
      "stateMutability": "nonpayable",
      "type": "function"
    },
    {
      "inputs": [
        {
          "internalType": "address",
          "name": "_address",
          "type": "address"
        },
        {
          "internalType": "uint256",
          "name": "_value",
          "type": "uint256"
        },
        {
          "internalType": "enum IDigiplaza.CURRENCY",
          "name": "currency",
          "type": "uint8"
        }
      ],
      "name": "withdraw",
      "outputs": [],
      "stateMutability": "nonpayable",
      "type": "function"
    }
  ],
  "bytecode": "0x6080604052600f600855600f6009556005600a553480156200002057600080fd5b506040518060400160405280600981526020017f44696769706c617a6100000000000000000000000000000000000000000000008152506040518060400160405280600581526020017f44494749500000000000000000000000000000000000000000000000000000008152508160009080519060200190620000a592919062000180565b508060019080519060200190620000be92919062000180565b5050506000620000d36200017860201b60201c565b905080600660006101000a81548173ffffffffffffffffffffffffffffffffffffffff021916908373ffffffffffffffffffffffffffffffffffffffff1602179055508073ffffffffffffffffffffffffffffffffffffffff16600073ffffffffffffffffffffffffffffffffffffffff167f8be0079c531659141344cd1fd0a4f28419497f9722a3daafe3b4186f6b6457e060405160405180910390a35062000295565b600033905090565b8280546200018e9062000230565b90600052602060002090601f016020900481019282620001b25760008555620001fe565b82601f10620001cd57805160ff1916838001178555620001fe565b82800160010185558215620001fe579182015b82811115620001fd578251825591602001919060010190620001e0565b5b5090506200020d919062000211565b5090565b5b808211156200022c57600081600090555060010162000212565b5090565b600060028204905060018216806200024957607f821691505b6020821081141562000260576200025f62000266565b5b50919050565b7f4e487b7100000000000000000000000000000000000000000000000000000000600052602260045260246000fd5b615ed680620002a56000396000f3fe6080604052600436106101d85760003560e01c806370a0823111610102578063b88d4fde11610095578063e592301a11610064578063e592301a1461070d578063e76abfff14610738578063e985e9c514610761578063f2fde38b1461079e576101d8565b8063b88d4fde1461062d578063bb39694b14610656578063c0368fe814610693578063c87b56dd146106d0576101d8565b806395d89b41116100d157806395d89b4114610571578063a22cb4651461059c578063a3ee38ae146105c5578063aa9ab17414610602576101d8565b806370a08231146104b5578063715018a6146104f257806378bd7935146105095780638da5cb5b14610546576101d8565b80632892a9771161017a578063454a2ab311610149578063454a2ab3146103e257806352f7c988146104125780636352211e1461043b57806367c623cf14610478576101d8565b80632892a977146103285780632ec09d391461035157806337d83e651461038e57806342842e0e146103b9576101d8565b8063095ea7b3116101b6578063095ea7b31461028257806323b872dd146102ab57806326a4e8d2146102d457806327cfe856146102fd576101d8565b806301ffc9a7146101dd57806306fdde031461021a578063081812fc14610245575b600080fd5b3480156101e957600080fd5b5061020460048036038101906101ff9190614792565b6107c7565b6040516102119190614f24565b60405180910390f35b34801561022657600080fd5b5061022f6108a9565b60405161023c9190614f3f565b60405180910390f35b34801561025157600080fd5b5061026c600480360381019061026791906147e4565b61093b565b6040516102799190614dfd565b60405180910390f35b34801561028e57600080fd5b506102a960048036038101906102a491906146de565b6109c0565b005b3480156102b757600080fd5b506102d260048036038101906102cd9190614559565b610ad8565b005b3480156102e057600080fd5b506102fb60048036038101906102f691906144f4565b610b38565b005b34801561030957600080fd5b50610312610bf8565b60405161031f919061529c565b60405180910390f35b34801561033457600080fd5b5061034f600480360381019061034a919061471a565b610bff565b005b34801561035d57600080fd5b50610378600480360381019061037391906147e4565b610df6565b604051610385919061529c565b60405180910390f35b34801561039a57600080fd5b506103a36113db565b6040516103b0919061529c565b60405180910390f35b3480156103c557600080fd5b506103e060048036038101906103db9190614559565b6113e1565b005b6103fc60048036038101906103f791906147e4565b611401565b6040516104099190615281565b60405180910390f35b34801561041e57600080fd5b5061043960048036038101906104349190614836565b611b8f565b005b34801561044757600080fd5b50610462600480360381019061045d91906147e4565b611c1d565b60405161046f9190614dfd565b60405180910390f35b34801561048457600080fd5b5061049f600480360381019061049a91906147e4565b611ccf565b6040516104ac9190614f3f565b60405180910390f35b3480156104c157600080fd5b506104dc60048036038101906104d791906144f4565b611dbc565b6040516104e9919061529c565b60405180910390f35b3480156104fe57600080fd5b50610507611e74565b005b34801561051557600080fd5b50610530600480360381019061052b91906147e4565b611fb1565b60405161053d9190615281565b60405180910390f35b34801561055257600080fd5b5061055b612140565b6040516105689190614dfd565b60405180910390f35b34801561057d57600080fd5b5061058661216a565b6040516105939190614f3f565b60405180910390f35b3480156105a857600080fd5b506105c360048036038101906105be9190614623565b6121fc565b005b3480156105d157600080fd5b506105ec60048036038101906105e7919061465f565b61237d565b6040516105f9919061529c565b60405180910390f35b34801561060e57600080fd5b5061061761250c565b604051610624919061529c565b60405180910390f35b34801561063957600080fd5b50610654600480360381019061064f91906145a8565b612512565b005b34801561066257600080fd5b5061067d60048036038101906106789190614836565b612574565b60405161068a9190615281565b60405180910390f35b34801561069f57600080fd5b506106ba60048036038101906106b59190614872565b612f0c565b6040516106c79190615281565b60405180910390f35b3480156106dc57600080fd5b506106f760048036038101906106f291906147e4565b6133b6565b6040516107049190614f3f565b60405180910390f35b34801561071957600080fd5b5061072261345d565b60405161072f919061529c565b60405180910390f35b34801561074457600080fd5b5061075f600480360381019061075a9190614836565b613464565b005b34801561076d57600080fd5b506107886004803603810190610783919061451d565b6134f2565b6040516107959190614f24565b60405180910390f35b3480156107aa57600080fd5b506107c560048036038101906107c091906144f4565b613586565b005b60007f80ac58cd000000000000000000000000000000000000000000000000000000007bffffffffffffffffffffffffffffffffffffffffffffffffffffffff1916827bffffffffffffffffffffffffffffffffffffffffffffffffffffffff1916148061089257507f5b5e139f000000000000000000000000000000000000000000000000000000007bffffffffffffffffffffffffffffffffffffffffffffffffffffffff1916827bffffffffffffffffffffffffffffffffffffffffffffffffffffffff1916145b806108a257506108a182613732565b5b9050919050565b6060600080546108b8906155e6565b80601f01602080910402602001604051908101604052809291908181526020018280546108e4906155e6565b80156109315780601f1061090657610100808354040283529160200191610931565b820191906000526020600020905b81548152906001019060200180831161091457829003601f168201915b5050505050905090565b60006109468261379c565b610985576040517f08c379a000000000000000000000000000000000000000000000000000000000815260040161097c90615141565b60405180910390fd5b6004600083815260200190815260200160002060009054906101000a900473ffffffffffffffffffffffffffffffffffffffff169050919050565b60006109cb82611c1d565b90508073ffffffffffffffffffffffffffffffffffffffff168373ffffffffffffffffffffffffffffffffffffffff161415610a3c576040517f08c379a0000000000000000000000000000000000000000000000000000000008152600401610a3390615221565b60405180910390fd5b8073ffffffffffffffffffffffffffffffffffffffff16610a5b613808565b73ffffffffffffffffffffffffffffffffffffffff161480610a8a5750610a8981610a84613808565b6134f2565b5b610ac9576040517f08c379a0000000000000000000000000000000000000000000000000000000008152600401610ac0906150a1565b60405180910390fd5b610ad38383613810565b505050565b610ae9610ae3613808565b826138c9565b610b28576040517f08c379a0000000000000000000000000000000000000000000000000000000008152600401610b1f90615261565b60405180910390fd5b610b338383836139a7565b505050565b610b40613808565b73ffffffffffffffffffffffffffffffffffffffff16610b5e612140565b73ffffffffffffffffffffffffffffffffffffffff1614610bb4576040517f08c379a0000000000000000000000000000000000000000000000000000000008152600401610bab90615161565b60405180910390fd5b80600b60006101000a81548173ffffffffffffffffffffffffffffffffffffffff021916908373ffffffffffffffffffffffffffffffffffffffff16021790555050565b6201518081565b610c07613808565b73ffffffffffffffffffffffffffffffffffffffff16610c25612140565b73ffffffffffffffffffffffffffffffffffffffff1614610c7b576040517f08c379a0000000000000000000000000000000000000000000000000000000008152600401610c7290615161565b60405180910390fd5b60006001811115610cb5577f4e487b7100000000000000000000000000000000000000000000000000000000600052602160045260246000fd5b816001811115610cee577f4e487b7100000000000000000000000000000000000000000000000000000000600052602160045260246000fd5b1415610d40578273ffffffffffffffffffffffffffffffffffffffff166108fc839081150290604051600060405180830381858888f19350505050158015610d3a573d6000803e3d6000fd5b50610df1565b600b60009054906101000a900473ffffffffffffffffffffffffffffffffffffffff1673ffffffffffffffffffffffffffffffffffffffff1663a9059cbb84846040518363ffffffff1660e01b8152600401610d9d929190614ec4565b602060405180830381600087803b158015610db757600080fd5b505af1158015610dcb573d6000803e3d6000fd5b505050506040513d601f19601f82011682018060405250810190610def9190614769565b505b505050565b600080600e60008481526020019081526020016000206040518060c00160405290816000820160009054906101000a900460ff161515151581526020016000820160019054906101000a900473ffffffffffffffffffffffffffffffffffffffff1673ffffffffffffffffffffffffffffffffffffffff1673ffffffffffffffffffffffffffffffffffffffff1681526020016001820160009054906101000a900473ffffffffffffffffffffffffffffffffffffffff1673ffffffffffffffffffffffffffffffffffffffff1673ffffffffffffffffffffffffffffffffffffffff16815260200160028201548152602001600382015481526020016004820160009054906101000a900460ff166001811115610f3d577f4e487b7100000000000000000000000000000000000000000000000000000000600052602160045260246000fd5b6001811115610f75577f4e487b7100000000000000000000000000000000000000000000000000000000600052602160045260246000fd5b8152505090508060000151610fbf576040517f08c379a0000000000000000000000000000000000000000000000000000000008152600401610fb690614fe1565b60405180910390fd5b80608001514211611005576040517f08c379a0000000000000000000000000000000000000000000000000000000008152600401610ffc90615241565b60405180910390fd5b3373ffffffffffffffffffffffffffffffffffffffff16816020015173ffffffffffffffffffffffffffffffffffffffff16148061107257503373ffffffffffffffffffffffffffffffffffffffff16816040015173ffffffffffffffffffffffffffffffffffffffff16145b1561139b57600073ffffffffffffffffffffffffffffffffffffffff16816040015173ffffffffffffffffffffffffffffffffffffffff1614156110c4576110bf308260200151856139a7565b6112ba565b6110d3308260400151856139a7565b6000600181111561110d577f4e487b7100000000000000000000000000000000000000000000000000000000600052602160045260246000fd5b8160a00151600181111561114a577f4e487b7100000000000000000000000000000000000000000000000000000000600052602160045260246000fd5b14156111d257600060646008548360600151611166919061547d565b611170919061544c565b826060015161117f91906154d7565b9050816020015173ffffffffffffffffffffffffffffffffffffffff166108fc829081150290604051600060405180830381858888f193505050501580156111cb573d6000803e3d6000fd5b50506112b9565b6000606460095483606001516111e8919061547d565b6111f2919061544c565b826060015161120191906154d7565b9050600b60009054906101000a900473ffffffffffffffffffffffffffffffffffffffff1673ffffffffffffffffffffffffffffffffffffffff1663a9059cbb8360200151836040518363ffffffff1660e01b8152600401611264929190614ec4565b602060405180830381600087803b15801561127e57600080fd5b505af1158015611292573d6000803e3d6000fd5b505050506040513d601f19601f820116820180604052508101906112b69190614769565b50505b5b600e6000848152602001908152602001600020600080820160006101000a81549060ff02191690556000820160016101000a81549073ffffffffffffffffffffffffffffffffffffffff02191690556001820160006101000a81549073ffffffffffffffffffffffffffffffffffffffff0219169055600282016000905560038201600090556004820160006101000a81549060ff02191690555050827f30f4e2ff758c62d61bb151d75a67e6e282c1536c30d83481c7f0855937d2eae5826040015160405161138a9190614dfd565b60405180910390a2829150506113d6565b6040517f08c379a00000000000000000000000000000000000000000000000000000000081526004016113cd90615081565b60405180910390fd5b919050565b61038481565b6113fc83838360405180602001604052806000815250612512565b505050565b61140961423d565b6000600e60008481526020019081526020016000206040518060c00160405290816000820160009054906101000a900460ff161515151581526020016000820160019054906101000a900473ffffffffffffffffffffffffffffffffffffffff1673ffffffffffffffffffffffffffffffffffffffff1673ffffffffffffffffffffffffffffffffffffffff1681526020016001820160009054906101000a900473ffffffffffffffffffffffffffffffffffffffff1673ffffffffffffffffffffffffffffffffffffffff1673ffffffffffffffffffffffffffffffffffffffff16815260200160028201548152602001600382015481526020016004820160009054906101000a900460ff16600181111561154f577f4e487b7100000000000000000000000000000000000000000000000000000000600052602160045260246000fd5b6001811115611587577f4e487b7100000000000000000000000000000000000000000000000000000000600052602160045260246000fd5b81525050905080600001516115d1576040517f08c379a00000000000000000000000000000000000000000000000000000000081526004016115c890614fe1565b60405180910390fd5b6000600181111561160b577f4e487b7100000000000000000000000000000000000000000000000000000000600052602160045260246000fd5b8160a001516001811115611648577f4e487b7100000000000000000000000000000000000000000000000000000000600052602160045260246000fd5b14611688576040517f08c379a000000000000000000000000000000000000000000000000000000000815260040161167f90615201565b60405180910390fd5b806080015142111561172657600073ffffffffffffffffffffffffffffffffffffffff16816040015173ffffffffffffffffffffffffffffffffffffffff1614156116ea5742620151806116dc91906153f6565b816080018181525050611725565b6040517f08c379a000000000000000000000000000000000000000000000000000000000815260040161171c90614f61565b60405180910390fd5b5b6000816060015190506064600a548261173f919061547d565b611749919061544c565b8161175491906153f6565b905034811115611799576040517f08c379a0000000000000000000000000000000000000000000000000000000008152600401611790906151c1565b60405180910390fd5b600073ffffffffffffffffffffffffffffffffffffffff16826040015173ffffffffffffffffffffffffffffffffffffffff161461182157816040015173ffffffffffffffffffffffffffffffffffffffff166108fc83606001519081150290604051600060405180830381858888f1935050505015801561181f573d6000803e3d6000fd5b505b33826040019073ffffffffffffffffffffffffffffffffffffffff16908173ffffffffffffffffffffffffffffffffffffffff168152505034826060018181525050600042836080015161187591906154d7565b9050610384811015611899574261038461188f91906153f6565b8360800181815250505b82600e600087815260200190815260200160002060008201518160000160006101000a81548160ff02191690831515021790555060208201518160000160016101000a81548173ffffffffffffffffffffffffffffffffffffffff021916908373ffffffffffffffffffffffffffffffffffffffff16021790555060408201518160010160006101000a81548173ffffffffffffffffffffffffffffffffffffffff021916908373ffffffffffffffffffffffffffffffffffffffff160217905550606082015181600201556080820151816003015560a08201518160040160006101000a81548160ff021916908360018111156119c0577f4e487b7100000000000000000000000000000000000000000000000000000000600052602160045260246000fd5b0217905550905050847f209b13671cce6f252f05be352152cc8a6236d8f374f81ce4342cc94a47be7338333460006040516119fd93929190614eed565b60405180910390a2600e60008681526020019081526020016000206040518060c00160405290816000820160009054906101000a900460ff161515151581526020016000820160019054906101000a900473ffffffffffffffffffffffffffffffffffffffff1673ffffffffffffffffffffffffffffffffffffffff1673ffffffffffffffffffffffffffffffffffffffff1681526020016001820160009054906101000a900473ffffffffffffffffffffffffffffffffffffffff1673ffffffffffffffffffffffffffffffffffffffff1673ffffffffffffffffffffffffffffffffffffffff16815260200160028201548152602001600382015481526020016004820160009054906101000a900460ff166001811115611b49577f4e487b7100000000000000000000000000000000000000000000000000000000600052602160045260246000fd5b6001811115611b81577f4e487b7100000000000000000000000000000000000000000000000000000000600052602160045260246000fd5b815250509350505050919050565b611b97613808565b73ffffffffffffffffffffffffffffffffffffffff16611bb5612140565b73ffffffffffffffffffffffffffffffffffffffff1614611c0b576040517f08c379a0000000000000000000000000000000000000000000000000000000008152600401611c0290615161565b60405180910390fd5b81600881905550806009819055505050565b6000806002600084815260200190815260200160002060009054906101000a900473ffffffffffffffffffffffffffffffffffffffff169050600073ffffffffffffffffffffffffffffffffffffffff168173ffffffffffffffffffffffffffffffffffffffff161415611cc6576040517f08c379a0000000000000000000000000000000000000000000000000000000008152600401611cbd906150e1565b60405180910390fd5b80915050919050565b6060611cda8261379c565b611d19576040517f08c379a0000000000000000000000000000000000000000000000000000000008152600401611d1090615141565b60405180910390fd5b600d60008381526020019081526020016000208054611d37906155e6565b80601f0160208091040260200160405190810160405280929190818152602001828054611d63906155e6565b8015611db05780601f10611d8557610100808354040283529160200191611db0565b820191906000526020600020905b815481529060010190602001808311611d9357829003601f168201915b50505050509050919050565b60008073ffffffffffffffffffffffffffffffffffffffff168273ffffffffffffffffffffffffffffffffffffffff161415611e2d576040517f08c379a0000000000000000000000000000000000000000000000000000000008152600401611e24906150c1565b60405180910390fd5b600360008373ffffffffffffffffffffffffffffffffffffffff1673ffffffffffffffffffffffffffffffffffffffff168152602001908152602001600020549050919050565b611e7c613808565b73ffffffffffffffffffffffffffffffffffffffff16611e9a612140565b73ffffffffffffffffffffffffffffffffffffffff1614611ef0576040517f08c379a0000000000000000000000000000000000000000000000000000000008152600401611ee790615161565b60405180910390fd5b600073ffffffffffffffffffffffffffffffffffffffff16600660009054906101000a900473ffffffffffffffffffffffffffffffffffffffff1673ffffffffffffffffffffffffffffffffffffffff167f8be0079c531659141344cd1fd0a4f28419497f9722a3daafe3b4186f6b6457e060405160405180910390a36000600660006101000a81548173ffffffffffffffffffffffffffffffffffffffff021916908373ffffffffffffffffffffffffffffffffffffffff160217905550565b611fb961423d565b600e60008381526020019081526020016000206040518060c00160405290816000820160009054906101000a900460ff161515151581526020016000820160019054906101000a900473ffffffffffffffffffffffffffffffffffffffff1673ffffffffffffffffffffffffffffffffffffffff1673ffffffffffffffffffffffffffffffffffffffff1681526020016001820160009054906101000a900473ffffffffffffffffffffffffffffffffffffffff1673ffffffffffffffffffffffffffffffffffffffff1673ffffffffffffffffffffffffffffffffffffffff16815260200160028201548152602001600382015481526020016004820160009054906101000a900460ff1660018111156120fd577f4e487b7100000000000000000000000000000000000000000000000000000000600052602160045260246000fd5b6001811115612135577f4e487b7100000000000000000000000000000000000000000000000000000000600052602160045260246000fd5b815250509050919050565b6000600660009054906101000a900473ffffffffffffffffffffffffffffffffffffffff16905090565b606060018054612179906155e6565b80601f01602080910402602001604051908101604052809291908181526020018280546121a5906155e6565b80156121f25780601f106121c7576101008083540402835291602001916121f2565b820191906000526020600020905b8154815290600101906020018083116121d557829003601f168201915b5050505050905090565b612204613808565b73ffffffffffffffffffffffffffffffffffffffff168273ffffffffffffffffffffffffffffffffffffffff161415612272576040517f08c379a000000000000000000000000000000000000000000000000000000000815260040161226990615021565b60405180910390fd5b806005600061227f613808565b73ffffffffffffffffffffffffffffffffffffffff1673ffffffffffffffffffffffffffffffffffffffff16815260200190815260200160002060008473ffffffffffffffffffffffffffffffffffffffff1673ffffffffffffffffffffffffffffffffffffffff16815260200190815260200160002060006101000a81548160ff0219169083151502179055508173ffffffffffffffffffffffffffffffffffffffff1661232c613808565b73ffffffffffffffffffffffffffffffffffffffff167f17307eab39ab6107e8899845ad3d59bd9653f200f220920489ca2b5937696c31836040516123719190614f24565b60405180910390a35050565b60006001600c846040516123919190614dc2565b908152602001604051809103902060009054906101000a900460ff1660ff1614156123bb57600080fd5b6001600c836040516123cd9190614dc2565b908152602001604051809103902060009054906101000a900460ff1660ff1614156123f757600080fd5b6001600c846040516124099190614dc2565b908152602001604051809103902060006101000a81548160ff021916908360ff1602179055506001600c836040516124419190614dc2565b908152602001604051809103902060006101000a81548160ff021916908360ff1602179055506124716007613c03565b600061247d6007613c19565b90506124898582613c27565b83600d600083815260200190815260200160002090805190602001906124b09291906142d9565b508473ffffffffffffffffffffffffffffffffffffffff167f85a66b9141978db9980f7e0ce3b468cebf4f7999f32b23091c5c03e798b1ba7a82856040516124f99291906152b7565b60405180910390a2809150509392505050565b61038481565b61252361251d613808565b836138c9565b612562576040517f08c379a000000000000000000000000000000000000000000000000000000000815260040161255990615261565b60405180910390fd5b61256e84848484613c45565b50505050565b61257c61423d565b6000600e60008581526020019081526020016000206040518060c00160405290816000820160009054906101000a900460ff161515151581526020016000820160019054906101000a900473ffffffffffffffffffffffffffffffffffffffff1673ffffffffffffffffffffffffffffffffffffffff1673ffffffffffffffffffffffffffffffffffffffff1681526020016001820160009054906101000a900473ffffffffffffffffffffffffffffffffffffffff1673ffffffffffffffffffffffffffffffffffffffff1673ffffffffffffffffffffffffffffffffffffffff16815260200160028201548152602001600382015481526020016004820160009054906101000a900460ff1660018111156126c2577f4e487b7100000000000000000000000000000000000000000000000000000000600052602160045260246000fd5b60018111156126fa577f4e487b7100000000000000000000000000000000000000000000000000000000600052602160045260246000fd5b8152505090508060000151612744576040517f08c379a000000000000000000000000000000000000000000000000000000000815260040161273b90614fe1565b60405180910390fd5b60018081111561277d577f4e487b7100000000000000000000000000000000000000000000000000000000600052602160045260246000fd5b8160a0015160018111156127ba577f4e487b7100000000000000000000000000000000000000000000000000000000600052602160045260246000fd5b146127fa576040517f08c379a00000000000000000000000000000000000000000000000000000000081526004016127f190615201565b60405180910390fd5b806080015142111561289857600073ffffffffffffffffffffffffffffffffffffffff16816040015173ffffffffffffffffffffffffffffffffffffffff16141561285c57426201518061284e91906153f6565b816080018181525050612897565b6040517f08c379a000000000000000000000000000000000000000000000000000000000815260040161288e90614f61565b60405180910390fd5b5b6000816060015190506064600a54826128b1919061547d565b6128bb919061544c565b816128c691906153f6565b90508381111561290b576040517f08c379a0000000000000000000000000000000000000000000000000000000008152600401612902906151c1565b60405180910390fd5b83600b60009054906101000a900473ffffffffffffffffffffffffffffffffffffffff1673ffffffffffffffffffffffffffffffffffffffff1663dd62ed3e33306040518363ffffffff1660e01b8152600401612969929190614e18565b60206040518083038186803b15801561298157600080fd5b505afa158015612995573d6000803e3d6000fd5b505050506040513d601f19601f820116820180604052508101906129b9919061480d565b10156129fa576040517f08c379a00000000000000000000000000000000000000000000000000000000081526004016129f190615041565b60405180910390fd5b600b60009054906101000a900473ffffffffffffffffffffffffffffffffffffffff1673ffffffffffffffffffffffffffffffffffffffff166323b872dd3330876040518463ffffffff1660e01b8152600401612a5993929190614e41565b602060405180830381600087803b158015612a7357600080fd5b505af1158015612a87573d6000803e3d6000fd5b505050506040513d601f19601f82011682018060405250810190612aab9190614769565b50600073ffffffffffffffffffffffffffffffffffffffff16826040015173ffffffffffffffffffffffffffffffffffffffff1614612b9d57600b60009054906101000a900473ffffffffffffffffffffffffffffffffffffffff1673ffffffffffffffffffffffffffffffffffffffff1663a9059cbb836040015184606001516040518363ffffffff1660e01b8152600401612b49929190614ec4565b602060405180830381600087803b158015612b6357600080fd5b505af1158015612b77573d6000803e3d6000fd5b505050506040513d601f19601f82011682018060405250810190612b9b9190614769565b505b33826040019073ffffffffffffffffffffffffffffffffffffffff16908173ffffffffffffffffffffffffffffffffffffffff1681525050838260600181815250506000428360800151612bf191906154d7565b9050610384811015612c155742610384612c0b91906153f6565b8360800181815250505b82600e600088815260200190815260200160002060008201518160000160006101000a81548160ff02191690831515021790555060208201518160000160016101000a81548173ffffffffffffffffffffffffffffffffffffffff021916908373ffffffffffffffffffffffffffffffffffffffff16021790555060408201518160010160006101000a81548173ffffffffffffffffffffffffffffffffffffffff021916908373ffffffffffffffffffffffffffffffffffffffff160217905550606082015181600201556080820151816003015560a08201518160040160006101000a81548160ff02191690836001811115612d3c577f4e487b7100000000000000000000000000000000000000000000000000000000600052602160045260246000fd5b0217905550905050857f209b13671cce6f252f05be352152cc8a6236d8f374f81ce4342cc94a47be733833876001604051612d7993929190614eed565b60405180910390a2600e60008781526020019081526020016000206040518060c00160405290816000820160009054906101000a900460ff161515151581526020016000820160019054906101000a900473ffffffffffffffffffffffffffffffffffffffff1673ffffffffffffffffffffffffffffffffffffffff1673ffffffffffffffffffffffffffffffffffffffff1681526020016001820160009054906101000a900473ffffffffffffffffffffffffffffffffffffffff1673ffffffffffffffffffffffffffffffffffffffff1673ffffffffffffffffffffffffffffffffffffffff16815260200160028201548152602001600382015481526020016004820160009054906101000a900460ff166001811115612ec5577f4e487b7100000000000000000000000000000000000000000000000000000000600052602160045260246000fd5b6001811115612efd577f4e487b7100000000000000000000000000000000000000000000000000000000600052602160045260246000fd5b81525050935050505092915050565b612f1461423d565b3373ffffffffffffffffffffffffffffffffffffffff16612f3485611c1d565b73ffffffffffffffffffffffffffffffffffffffff1614612f8a576040517f08c379a0000000000000000000000000000000000000000000000000000000008152600401612f81906151e1565b60405180910390fd5b600e600085815260200190815260200160002060000160009054906101000a900460ff1615612fee576040517f08c379a0000000000000000000000000000000000000000000000000000000008152600401612fe590615101565b60405180910390fd5b60004262015180612fff91906153f6565b90506000600e60008781526020019081526020016000206040518060c00160405290816000820160009054906101000a900460ff161515151581526020016000820160019054906101000a900473ffffffffffffffffffffffffffffffffffffffff1673ffffffffffffffffffffffffffffffffffffffff1673ffffffffffffffffffffffffffffffffffffffff1681526020016001820160009054906101000a900473ffffffffffffffffffffffffffffffffffffffff1673ffffffffffffffffffffffffffffffffffffffff1673ffffffffffffffffffffffffffffffffffffffff16815260200160028201548152602001600382015481526020016004820160009054906101000a900460ff166001811115613147577f4e487b7100000000000000000000000000000000000000000000000000000000600052602160045260246000fd5b600181111561317f577f4e487b7100000000000000000000000000000000000000000000000000000000600052602160045260246000fd5b8152505090506040518060c001604052806001151581526020013373ffffffffffffffffffffffffffffffffffffffff168152602001600073ffffffffffffffffffffffffffffffffffffffff168152602001868152602001838152602001856001811115613217577f4e487b7100000000000000000000000000000000000000000000000000000000600052602160045260246000fd5b815250905080600e600088815260200190815260200160002060008201518160000160006101000a81548160ff02191690831515021790555060208201518160000160016101000a81548173ffffffffffffffffffffffffffffffffffffffff021916908373ffffffffffffffffffffffffffffffffffffffff16021790555060408201518160010160006101000a81548173ffffffffffffffffffffffffffffffffffffffff021916908373ffffffffffffffffffffffffffffffffffffffff160217905550606082015181600201556080820151816003015560a08201518160040160006101000a81548160ff02191690836001811115613343577f4e487b7100000000000000000000000000000000000000000000000000000000600052602160045260246000fd5b02179055509050506133563330886139a7565b3373ffffffffffffffffffffffffffffffffffffffff167fc5660d56ca28521ee094f4313486f25d77a03c0f8de39c52fd3933d858c83fb6878785886040516133a294939291906152e7565b60405180910390a280925050509392505050565b60606133c18261379c565b613400576040517f08c379a00000000000000000000000000000000000000000000000000000000081526004016133f7906151a1565b60405180910390fd5b600061340a613ca1565b9050600081511161342a5760405180602001604052806000815250613455565b8061343484613cb8565b604051602001613445929190614dd9565b6040516020818303038152906040525b915050919050565b6201518081565b61346c613808565b73ffffffffffffffffffffffffffffffffffffffff1661348a612140565b73ffffffffffffffffffffffffffffffffffffffff16146134e0576040517f08c379a00000000000000000000000000000000000000000000000000000000081526004016134d790615161565b60405180910390fd5b81600881905550806009819055505050565b6000600560008473ffffffffffffffffffffffffffffffffffffffff1673ffffffffffffffffffffffffffffffffffffffff16815260200190815260200160002060008373ffffffffffffffffffffffffffffffffffffffff1673ffffffffffffffffffffffffffffffffffffffff16815260200190815260200160002060009054906101000a900460ff16905092915050565b61358e613808565b73ffffffffffffffffffffffffffffffffffffffff166135ac612140565b73ffffffffffffffffffffffffffffffffffffffff1614613602576040517f08c379a00000000000000000000000000000000000000000000000000000000081526004016135f990615161565b60405180910390fd5b600073ffffffffffffffffffffffffffffffffffffffff168173ffffffffffffffffffffffffffffffffffffffff161415613672576040517f08c379a000000000000000000000000000000000000000000000000000000000815260040161366990614fa1565b60405180910390fd5b8073ffffffffffffffffffffffffffffffffffffffff16600660009054906101000a900473ffffffffffffffffffffffffffffffffffffffff1673ffffffffffffffffffffffffffffffffffffffff167f8be0079c531659141344cd1fd0a4f28419497f9722a3daafe3b4186f6b6457e060405160405180910390a380600660006101000a81548173ffffffffffffffffffffffffffffffffffffffff021916908373ffffffffffffffffffffffffffffffffffffffff16021790555050565b60007f01ffc9a7000000000000000000000000000000000000000000000000000000007bffffffffffffffffffffffffffffffffffffffffffffffffffffffff1916827bffffffffffffffffffffffffffffffffffffffffffffffffffffffff1916149050919050565b60008073ffffffffffffffffffffffffffffffffffffffff166002600084815260200190815260200160002060009054906101000a900473ffffffffffffffffffffffffffffffffffffffff1673ffffffffffffffffffffffffffffffffffffffff1614159050919050565b600033905090565b816004600083815260200190815260200160002060006101000a81548173ffffffffffffffffffffffffffffffffffffffff021916908373ffffffffffffffffffffffffffffffffffffffff160217905550808273ffffffffffffffffffffffffffffffffffffffff1661388383611c1d565b73ffffffffffffffffffffffffffffffffffffffff167f8c5be1e5ebec7d5bd14f71427d1e84f3dd0314c0f7b2291e5b200ac8c7c3b92560405160405180910390a45050565b60006138d48261379c565b613913576040517f08c379a000000000000000000000000000000000000000000000000000000000815260040161390a90615061565b60405180910390fd5b600061391e83611c1d565b90508073ffffffffffffffffffffffffffffffffffffffff168473ffffffffffffffffffffffffffffffffffffffff16148061398d57508373ffffffffffffffffffffffffffffffffffffffff166139758461093b565b73ffffffffffffffffffffffffffffffffffffffff16145b8061399e575061399d81856134f2565b5b91505092915050565b8273ffffffffffffffffffffffffffffffffffffffff166139c782611c1d565b73ffffffffffffffffffffffffffffffffffffffff1614613a1d576040517f08c379a0000000000000000000000000000000000000000000000000000000008152600401613a1490615181565b60405180910390fd5b600073ffffffffffffffffffffffffffffffffffffffff168273ffffffffffffffffffffffffffffffffffffffff161415613a8d576040517f08c379a0000000000000000000000000000000000000000000000000000000008152600401613a8490615001565b60405180910390fd5b613a98838383613e65565b613aa3600082613810565b6001600360008573ffffffffffffffffffffffffffffffffffffffff1673ffffffffffffffffffffffffffffffffffffffff1681526020019081526020016000206000828254613af391906154d7565b925050819055506001600360008473ffffffffffffffffffffffffffffffffffffffff1673ffffffffffffffffffffffffffffffffffffffff1681526020019081526020016000206000828254613b4a91906153f6565b92505081905550816002600083815260200190815260200160002060006101000a81548173ffffffffffffffffffffffffffffffffffffffff021916908373ffffffffffffffffffffffffffffffffffffffff160217905550808273ffffffffffffffffffffffffffffffffffffffff168473ffffffffffffffffffffffffffffffffffffffff167fddf252ad1be2c89b69c2b068fc378daa952ba7f163c4a11628f55a4df523b3ef60405160405180910390a4505050565b6001816000016000828254019250508190555050565b600081600001549050919050565b613c41828260405180602001604052806000815250613e6a565b5050565b613c508484846139a7565b613c5c84848484613ec5565b613c9b576040517f08c379a0000000000000000000000000000000000000000000000000000000008152600401613c9290614f81565b60405180910390fd5b50505050565b606060405180602001604052806000815250905090565b60606000821415613d00576040518060400160405280600181526020017f30000000000000000000000000000000000000000000000000000000000000008152509050613e60565b600082905060005b60008214613d32578080613d1b90615649565b915050600a82613d2b919061544c565b9150613d08565b60008167ffffffffffffffff811115613d74577f4e487b7100000000000000000000000000000000000000000000000000000000600052604160045260246000fd5b6040519080825280601f01601f191660200182016040528015613da65781602001600182028036833780820191505090505b5090505b60008514613e5957600182613dbf91906154d7565b9150600a85613dce9190615692565b6030613dda91906153f6565b60f81b818381518110613e16577f4e487b7100000000000000000000000000000000000000000000000000000000600052603260045260246000fd5b60200101907effffffffffffffffffffffffffffffffffffffffffffffffffffffffffffff1916908160001a905350600a85613e52919061544c565b9450613daa565b8093505050505b919050565b505050565b613e74838361405c565b613e816000848484613ec5565b613ec0576040517f08c379a0000000000000000000000000000000000000000000000000000000008152600401613eb790614f81565b60405180910390fd5b505050565b6000613ee68473ffffffffffffffffffffffffffffffffffffffff1661422a565b1561404f578373ffffffffffffffffffffffffffffffffffffffff1663150b7a02613f0f613808565b8786866040518563ffffffff1660e01b8152600401613f319493929190614e78565b602060405180830381600087803b158015613f4b57600080fd5b505af1925050508015613f7c57506040513d601f19601f82011682018060405250810190613f7991906147bb565b60015b613fff573d8060008114613fac576040519150601f19603f3d011682016040523d82523d6000602084013e613fb1565b606091505b50600081511415613ff7576040517f08c379a0000000000000000000000000000000000000000000000000000000008152600401613fee90614f81565b60405180910390fd5b805181602001fd5b63150b7a0260e01b7bffffffffffffffffffffffffffffffffffffffffffffffffffffffff1916817bffffffffffffffffffffffffffffffffffffffffffffffffffffffff191614915050614054565b600190505b949350505050565b600073ffffffffffffffffffffffffffffffffffffffff168273ffffffffffffffffffffffffffffffffffffffff1614156140cc576040517f08c379a00000000000000000000000000000000000000000000000000000000081526004016140c390615121565b60405180910390fd5b6140d58161379c565b15614115576040517f08c379a000000000000000000000000000000000000000000000000000000000815260040161410c90614fc1565b60405180910390fd5b61412160008383613e65565b6001600360008473ffffffffffffffffffffffffffffffffffffffff1673ffffffffffffffffffffffffffffffffffffffff168152602001908152602001600020600082825461417191906153f6565b92505081905550816002600083815260200190815260200160002060006101000a81548173ffffffffffffffffffffffffffffffffffffffff021916908373ffffffffffffffffffffffffffffffffffffffff160217905550808273ffffffffffffffffffffffffffffffffffffffff16600073ffffffffffffffffffffffffffffffffffffffff167fddf252ad1be2c89b69c2b068fc378daa952ba7f163c4a11628f55a4df523b3ef60405160405180910390a45050565b600080823b905060008111915050919050565b6040518060c00160405280600015158152602001600073ffffffffffffffffffffffffffffffffffffffff168152602001600073ffffffffffffffffffffffffffffffffffffffff1681526020016000815260200160008152602001600060018111156142d3577f4e487b7100000000000000000000000000000000000000000000000000000000600052602160045260246000fd5b81525090565b8280546142e5906155e6565b90600052602060002090601f016020900481019282614307576000855561434e565b82601f1061432057805160ff191683800117855561434e565b8280016001018555821561434e579182015b8281111561434d578251825591602001919060010190614332565b5b50905061435b919061435f565b5090565b5b80821115614378576000816000905550600101614360565b5090565b600061438f61438a84615351565b61532c565b9050828152602081018484840111156143a757600080fd5b6143b28482856155a4565b509392505050565b60006143cd6143c884615382565b61532c565b9050828152602081018484840111156143e557600080fd5b6143f08482856155a4565b509392505050565b60008135905061440781615e34565b92915050565b60008135905061441c81615e4b565b92915050565b60008151905061443181615e4b565b92915050565b60008135905061444681615e62565b92915050565b60008151905061445b81615e62565b92915050565b600082601f83011261447257600080fd5b813561448284826020860161437c565b91505092915050565b60008135905061449a81615e79565b92915050565b600082601f8301126144b157600080fd5b81356144c18482602086016143ba565b91505092915050565b6000813590506144d981615e89565b92915050565b6000815190506144ee81615e89565b92915050565b60006020828403121561450657600080fd5b6000614514848285016143f8565b91505092915050565b6000806040838503121561453057600080fd5b600061453e858286016143f8565b925050602061454f858286016143f8565b9150509250929050565b60008060006060848603121561456e57600080fd5b600061457c868287016143f8565b935050602061458d868287016143f8565b925050604061459e868287016144ca565b9150509250925092565b600080600080608085870312156145be57600080fd5b60006145cc878288016143f8565b94505060206145dd878288016143f8565b93505060406145ee878288016144ca565b925050606085013567ffffffffffffffff81111561460b57600080fd5b61461787828801614461565b91505092959194509250565b6000806040838503121561463657600080fd5b6000614644858286016143f8565b92505060206146558582860161440d565b9150509250929050565b60008060006060848603121561467457600080fd5b6000614682868287016143f8565b935050602084013567ffffffffffffffff81111561469f57600080fd5b6146ab868287016144a0565b925050604084013567ffffffffffffffff8111156146c857600080fd5b6146d4868287016144a0565b9150509250925092565b600080604083850312156146f157600080fd5b60006146ff858286016143f8565b9250506020614710858286016144ca565b9150509250929050565b60008060006060848603121561472f57600080fd5b600061473d868287016143f8565b935050602061474e868287016144ca565b925050604061475f8682870161448b565b9150509250925092565b60006020828403121561477b57600080fd5b600061478984828501614422565b91505092915050565b6000602082840312156147a457600080fd5b60006147b284828501614437565b91505092915050565b6000602082840312156147cd57600080fd5b60006147db8482850161444c565b91505092915050565b6000602082840312156147f657600080fd5b6000614804848285016144ca565b91505092915050565b60006020828403121561481f57600080fd5b600061482d848285016144df565b91505092915050565b6000806040838503121561484957600080fd5b6000614857858286016144ca565b9250506020614868858286016144ca565b9150509250929050565b60008060006060848603121561488757600080fd5b6000614895868287016144ca565b93505060206148a6868287016144ca565b92505060406148b78682870161448b565b9150509250925092565b6148ca8161550b565b82525050565b6148d98161550b565b82525050565b6148e88161551d565b82525050565b6148f78161551d565b82525050565b6000614908826153b3565b61491281856153c9565b93506149228185602086016155b3565b61492b816157ae565b840191505092915050565b61493f81615592565b82525050565b61494e81615592565b82525050565b600061495f826153be565b61496981856153da565b93506149798185602086016155b3565b614982816157ae565b840191505092915050565b6000614998826153be565b6149a281856153eb565b93506149b28185602086016155b3565b80840191505092915050565b60006149cb601d836153da565b91506149d6826157bf565b602082019050919050565b60006149ee6032836153da565b91506149f9826157e8565b604082019050919050565b6000614a116026836153da565b9150614a1c82615837565b604082019050919050565b6000614a34601c836153da565b9150614a3f82615886565b602082019050919050565b6000614a576019836153da565b9150614a62826158af565b602082019050919050565b6000614a7a6024836153da565b9150614a85826158d8565b604082019050919050565b6000614a9d6019836153da565b9150614aa882615927565b602082019050919050565b6000614ac06021836153da565b9150614acb82615950565b604082019050919050565b6000614ae3602c836153da565b9150614aee8261599f565b604082019050919050565b6000614b066018836153da565b9150614b11826159ee565b602082019050919050565b6000614b296038836153da565b9150614b3482615a17565b604082019050919050565b6000614b4c602a836153da565b9150614b5782615a66565b604082019050919050565b6000614b6f6029836153da565b9150614b7a82615ab5565b604082019050919050565b6000614b926022836153da565b9150614b9d82615b04565b604082019050919050565b6000614bb56020836153da565b9150614bc082615b53565b602082019050919050565b6000614bd8602c836153da565b9150614be382615b7c565b604082019050919050565b6000614bfb6020836153da565b9150614c0682615bcb565b602082019050919050565b6000614c1e6029836153da565b9150614c2982615bf4565b604082019050919050565b6000614c41602f836153da565b9150614c4c82615c43565b604082019050919050565b6000614c646039836153da565b9150614c6f82615c92565b604082019050919050565b6000614c876033836153da565b9150614c9282615ce1565b604082019050919050565b6000614caa6020836153da565b9150614cb582615d30565b602082019050919050565b6000614ccd6021836153da565b9150614cd882615d59565b604082019050919050565b6000614cf06020836153da565b9150614cfb82615da8565b602082019050919050565b6000614d136031836153da565b9150614d1e82615dd1565b604082019050919050565b60c082016000820151614d3f60008501826148df565b506020820151614d5260208501826148c1565b506040820151614d6560408501826148c1565b506060820151614d786060850182614da4565b506080820151614d8b6080850182614da4565b5060a0820151614d9e60a0850182614936565b50505050565b614dad81615588565b82525050565b614dbc81615588565b82525050565b6000614dce828461498d565b915081905092915050565b6000614de5828561498d565b9150614df1828461498d565b91508190509392505050565b6000602082019050614e1260008301846148d0565b92915050565b6000604082019050614e2d60008301856148d0565b614e3a60208301846148d0565b9392505050565b6000606082019050614e5660008301866148d0565b614e6360208301856148d0565b614e706040830184614db3565b949350505050565b6000608082019050614e8d60008301876148d0565b614e9a60208301866148d0565b614ea76040830185614db3565b8181036060830152614eb981846148fd565b905095945050505050565b6000604082019050614ed960008301856148d0565b614ee66020830184614db3565b9392505050565b6000606082019050614f0260008301866148d0565b614f0f6020830185614db3565b614f1c6040830184614945565b949350505050565b6000602082019050614f3960008301846148ee565b92915050565b60006020820190508181036000830152614f598184614954565b905092915050565b60006020820190508181036000830152614f7a816149be565b9050919050565b60006020820190508181036000830152614f9a816149e1565b9050919050565b60006020820190508181036000830152614fba81614a04565b9050919050565b60006020820190508181036000830152614fda81614a27565b9050919050565b60006020820190508181036000830152614ffa81614a4a565b9050919050565b6000602082019050818103600083015261501a81614a6d565b9050919050565b6000602082019050818103600083015261503a81614a90565b9050919050565b6000602082019050818103600083015261505a81614ab3565b9050919050565b6000602082019050818103600083015261507a81614ad6565b9050919050565b6000602082019050818103600083015261509a81614af9565b9050919050565b600060208201905081810360008301526150ba81614b1c565b9050919050565b600060208201905081810360008301526150da81614b3f565b9050919050565b600060208201905081810360008301526150fa81614b62565b9050919050565b6000602082019050818103600083015261511a81614b85565b9050919050565b6000602082019050818103600083015261513a81614ba8565b9050919050565b6000602082019050818103600083015261515a81614bcb565b9050919050565b6000602082019050818103600083015261517a81614bee565b9050919050565b6000602082019050818103600083015261519a81614c11565b9050919050565b600060208201905081810360008301526151ba81614c34565b9050919050565b600060208201905081810360008301526151da81614c57565b9050919050565b600060208201905081810360008301526151fa81614c7a565b9050919050565b6000602082019050818103600083015261521a81614c9d565b9050919050565b6000602082019050818103600083015261523a81614cc0565b9050919050565b6000602082019050818103600083015261525a81614ce3565b9050919050565b6000602082019050818103600083015261527a81614d06565b9050919050565b600060c0820190506152966000830184614d29565b92915050565b60006020820190506152b16000830184614db3565b92915050565b60006040820190506152cc6000830185614db3565b81810360208301526152de8184614954565b90509392505050565b60006080820190506152fc6000830187614db3565b6153096020830186614db3565b6153166040830185614db3565b6153236060830184614945565b95945050505050565b6000615336615347565b90506153428282615618565b919050565b6000604051905090565b600067ffffffffffffffff82111561536c5761536b61577f565b5b615375826157ae565b9050602081019050919050565b600067ffffffffffffffff82111561539d5761539c61577f565b5b6153a6826157ae565b9050602081019050919050565b600081519050919050565b600081519050919050565b600082825260208201905092915050565b600082825260208201905092915050565b600081905092915050565b600061540182615588565b915061540c83615588565b9250827fffffffffffffffffffffffffffffffffffffffffffffffffffffffffffffffff03821115615441576154406156c3565b5b828201905092915050565b600061545782615588565b915061546283615588565b925082615472576154716156f2565b5b828204905092915050565b600061548882615588565b915061549383615588565b9250817fffffffffffffffffffffffffffffffffffffffffffffffffffffffffffffffff04831182151516156154cc576154cb6156c3565b5b828202905092915050565b60006154e282615588565b91506154ed83615588565b925082821015615500576154ff6156c3565b5b828203905092915050565b600061551682615568565b9050919050565b60008115159050919050565b60007fffffffff0000000000000000000000000000000000000000000000000000000082169050919050565b600081905061556382615e20565b919050565b600073ffffffffffffffffffffffffffffffffffffffff82169050919050565b6000819050919050565b600061559d82615555565b9050919050565b82818337600083830152505050565b60005b838110156155d15780820151818401526020810190506155b6565b838111156155e0576000848401525b50505050565b600060028204905060018216806155fe57607f821691505b6020821081141561561257615611615750565b5b50919050565b615621826157ae565b810181811067ffffffffffffffff821117156156405761563f61577f565b5b80604052505050565b600061565482615588565b91507fffffffffffffffffffffffffffffffffffffffffffffffffffffffffffffffff821415615687576156866156c3565b5b600182019050919050565b600061569d82615588565b91506156a883615588565b9250826156b8576156b76156f2565b5b828206905092915050565b7f4e487b7100000000000000000000000000000000000000000000000000000000600052601160045260246000fd5b7f4e487b7100000000000000000000000000000000000000000000000000000000600052601260045260246000fd5b7f4e487b7100000000000000000000000000000000000000000000000000000000600052602160045260246000fd5b7f4e487b7100000000000000000000000000000000000000000000000000000000600052602260045260246000fd5b7f4e487b7100000000000000000000000000000000000000000000000000000000600052604160045260246000fd5b6000601f19601f8301169050919050565b7f44696769706c617a613a2041756374696f6e2054696d6520456e646564000000600082015250565b7f4552433732313a207472616e7366657220746f206e6f6e20455243373231526560008201527f63656976657220696d706c656d656e7465720000000000000000000000000000602082015250565b7f4f776e61626c653a206e6577206f776e657220697320746865207a65726f206160008201527f6464726573730000000000000000000000000000000000000000000000000000602082015250565b7f4552433732313a20746f6b656e20616c7265616479206d696e74656400000000600082015250565b7f44696769706c617a613a204e6f7420696e2041756374696f6e00000000000000600082015250565b7f4552433732313a207472616e7366657220746f20746865207a65726f2061646460008201527f7265737300000000000000000000000000000000000000000000000000000000602082015250565b7f4552433732313a20617070726f766520746f2063616c6c657200000000000000600082015250565b7f44696769706c617a613a20696e73756666696369656e7420416c6c6f77616e6360008201527f6500000000000000000000000000000000000000000000000000000000000000602082015250565b7f4552433732313a206f70657261746f7220717565727920666f72206e6f6e657860008201527f697374656e7420746f6b656e0000000000000000000000000000000000000000602082015250565b7f44696769706c617a613a204d757374206265204f776e65720000000000000000600082015250565b7f4552433732313a20617070726f76652063616c6c6572206973206e6f74206f7760008201527f6e6572206e6f7220617070726f76656420666f7220616c6c0000000000000000602082015250565b7f4552433732313a2062616c616e636520717565727920666f7220746865207a6560008201527f726f206164647265737300000000000000000000000000000000000000000000602082015250565b7f4552433732313a206f776e657220717565727920666f72206e6f6e657869737460008201527f656e7420746f6b656e0000000000000000000000000000000000000000000000602082015250565b7f44696769706c617a613a20416c7265616479204c69737420696e20417563746960008201527f6f6e000000000000000000000000000000000000000000000000000000000000602082015250565b7f4552433732313a206d696e7420746f20746865207a65726f2061646472657373600082015250565b7f4552433732313a20617070726f76656420717565727920666f72206e6f6e657860008201527f697374656e7420746f6b656e0000000000000000000000000000000000000000602082015250565b7f4f776e61626c653a2063616c6c6572206973206e6f7420746865206f776e6572600082015250565b7f4552433732313a207472616e73666572206f6620746f6b656e2074686174206960008201527f73206e6f74206f776e0000000000000000000000000000000000000000000000602082015250565b7f4552433732314d657461646174613a2055524920717565727920666f72206e6f60008201527f6e6578697374656e7420746f6b656e0000000000000000000000000000000000602082015250565b7f44696769706c617a613a206269642076616c7565206d7573742062652067726560008201527f61746572207468616e2070657276696f75732062696464657200000000000000602082015250565b7f44696769706c617a613a204f6e6c79206f776e65722063616e206c697374207460008201527f686520746f6b656e20746f2061756374696f6e00000000000000000000000000602082015250565b7f44696769706c617a613a20696e76616c69642063757272656e63792074797065600082015250565b7f4552433732313a20617070726f76616c20746f2063757272656e74206f776e6560008201527f7200000000000000000000000000000000000000000000000000000000000000602082015250565b7f44696769706c617a613a2041756374696f6e205374696c6c206f6e476f696e67600082015250565b7f4552433732313a207472616e736665722063616c6c6572206973206e6f74206f60008201527f776e6572206e6f7220617070726f766564000000000000000000000000000000602082015250565b60028110615e3157615e30615721565b5b50565b615e3d8161550b565b8114615e4857600080fd5b50565b615e548161551d565b8114615e5f57600080fd5b50565b615e6b81615529565b8114615e7657600080fd5b50565b60028110615e8657600080fd5b50565b615e9281615588565b8114615e9d57600080fd5b5056fea2646970667358221220e78bc1caa2f916f9b3bb5667d282da1e4d5eb72b30501817ca8bd9ff466f922b64736f6c63430008040033",
  "immutableReferences": {},
  "source": "// SPDX-License-Identifier: MIT\r\n\r\npragma solidity ^0.8.0;\r\n\r\nimport \"@openzeppelin/contracts/token/ERC721/ERC721.sol\";\r\nimport \"@openzeppelin/contracts/utils/Counters.sol\";\r\nimport \"@openzeppelin/contracts/utils/math/SafeMath.sol\";\r\nimport \"@openzeppelin/contracts/access/Ownable.sol\";\r\n\r\nimport \"./IDigiplaza.sol\";\r\nimport \"./Token.sol\";\r\n\r\n\r\ncontract Digiplaza is ERC721, IDigiplaza,Ownable {\r\n    using Counters for Counters.Counter;\r\n    Counters.Counter private _tokenIds;\r\n\r\n    uint256 public constant DAY = 86400;\r\n    uint256 public constant FIFTEEN_MINUTES = 900;\r\n\r\n    uint256 public constant AUCTION_TIME = DAY;\r\n    uint256 public constant LAST_BIDDER_RESET_TIME = FIFTEEN_MINUTES;\r\n\r\n    uint256 private FEE = 15;\r\n    uint256 private TOKEN_FEE = 15;\r\n    uint256 private NEXT_BID_PERCENTAGE = 5;\r\n    address private TOKEN_ADDRESS;\r\n\r\n    //event ListOnAuction (uint256 indexed tokenId, uint256 price);\r\n\r\n    //Hashes helps to prevent from using the same hash\r\n    mapping(string => uint8) hashes;\r\n\r\n    // Mapping from token ID to metdata\r\n    mapping(uint256 => string) private tokenMetaData;\r\n\r\n    \r\n    mapping(uint256 => Auction) private auctionList;\r\n\r\n    constructor() ERC721(\"Digiplaza\", \"DIGIP\") {}\r\n\r\n\r\n    function mintNFT(address recipient, string memory _metadata, string memory _artwork ) public override returns (uint256) {\r\n        require(hashes[_metadata] != 1);\r\n        require(hashes[_artwork] != 1);\r\n\r\n        hashes[_metadata] = 1;\r\n        hashes[_artwork] = 1;\r\n\r\n        _tokenIds.increment();\r\n        uint256 newItemId = _tokenIds.current();\r\n        _safeMint(recipient, newItemId);\r\n\r\n        tokenMetaData[newItemId] = _metadata;\r\n        emit Mint(recipient, newItemId, _artwork);\r\n        return newItemId;\r\n    }\r\n\r\n    function listOnAuction(uint256 tokenId, uint256 price, CURRENCY currency ) public override returns (Auction memory) {\r\n        require( ownerOf(tokenId) == msg.sender, \"Digiplaza: Only owner can list the token to auction\");\r\n        require(!auctionList[tokenId].active, \"Digiplaza: Already List in Auction\" );\r\n\r\n        uint256 endTime = AUCTION_TIME + block.timestamp;\r\n\r\n        Auction memory newAuction = auctionList[tokenId];\r\n\r\n        newAuction = Auction(true, msg.sender, address(0), price, endTime, currency );\r\n\r\n        auctionList[tokenId] = newAuction;\r\n        _transfer(msg.sender, address(this), tokenId);\r\n\r\n        emit ListOnAuction(msg.sender, tokenId, price, endTime,  currency);\r\n\r\n        return newAuction;\r\n    }\r\n\r\n    function bid(uint256 _tokenId) public payable override returns(Auction memory){\r\n        Auction memory auctionItem = auctionList[_tokenId];\r\n        require(auctionItem.active, \"Digiplaza: Not in Auction\");\r\n        require(auctionItem.currency == CURRENCY.ETH, \"Digiplaza: invalid currency type\");\r\n\r\n        if(block.timestamp > auctionItem.endTime){\r\n            if(auctionItem.owner == address(0)){\r\n                auctionItem.endTime = AUCTION_TIME + block.timestamp;\r\n            }else{\r\n               revert(\"Digiplaza: Auction Time Ended\");\r\n            }\r\n        }\r\n       // require( block.timestamp < auctionItem.endTime, \"Digiplaza: Auction Time Ended\");\r\n\r\n        uint256 bidValueMust = auctionItem.value;\r\n        bidValueMust = bidValueMust + (bidValueMust * NEXT_BID_PERCENTAGE / 100);\r\n        require( bidValueMust <= msg.value, \"Digiplaza: bid value must be greater than pervious bidder\" );\r\n\r\n        // release the funds to the old user\r\n        if(auctionItem.owner != address(0)) {\r\n            payable(auctionItem.owner).transfer(auctionItem.value);\r\n        }\r\n        auctionItem.owner = msg.sender;\r\n        auctionItem.value = msg.value;\r\n        \r\n        uint256 remainingTime = auctionItem.endTime - block.timestamp;\r\n        if (remainingTime < LAST_BIDDER_RESET_TIME) {\r\n            auctionItem.endTime = LAST_BIDDER_RESET_TIME + block.timestamp;\r\n        }\r\n\r\n        auctionList[_tokenId] = auctionItem;\r\n\r\n         emit Bid(msg.sender,  _tokenId, msg.value,  CURRENCY.ETH);\r\n\r\n        return auctionList[_tokenId];\r\n    }\r\n\r\n    function bidToken(uint256 _tokenId, uint256 price) public override returns(Auction memory) {\r\n        Auction memory auctionItem = auctionList[_tokenId];\r\n        require(auctionItem.active, \"Digiplaza: Not in Auction\");\r\n        require(auctionItem.currency == CURRENCY.TOKEN, \"Digiplaza: invalid currency type\");\r\n\r\n        if(block.timestamp > auctionItem.endTime){\r\n            if(auctionItem.owner == address(0)){\r\n                auctionItem.endTime = AUCTION_TIME + block.timestamp;\r\n            }else{\r\n               revert(\"Digiplaza: Auction Time Ended\");\r\n            }\r\n        }\r\n\r\n        uint256 bidValueMust = auctionItem.value;\r\n        bidValueMust = bidValueMust + (bidValueMust * NEXT_BID_PERCENTAGE / 100);\r\n        require( bidValueMust <= price, \"Digiplaza: bid value must be greater than pervious bidder\" );\r\n        require(Token(TOKEN_ADDRESS).allowance(msg.sender, address(this)) >= price, \"Digiplaza: insufficient Allowance\");\r\n\r\n        Token(TOKEN_ADDRESS).transferFrom(msg.sender, address(this), price);\r\n\r\n        if(auctionItem.owner != address(0)) {\r\n            Token(TOKEN_ADDRESS).transfer(auctionItem.owner,auctionItem.value);\r\n        }\r\n        auctionItem.owner = msg.sender;\r\n        auctionItem.value = price;\r\n        \r\n        uint256 remainingTime = auctionItem.endTime - block.timestamp;\r\n        if (remainingTime < LAST_BIDDER_RESET_TIME) {\r\n            auctionItem.endTime = LAST_BIDDER_RESET_TIME + block.timestamp;\r\n        }\r\n\r\n        auctionList[_tokenId] = auctionItem;\r\n\r\n        emit Bid(msg.sender,  _tokenId, price, CURRENCY.TOKEN);\r\n\r\n        return auctionList[_tokenId];\r\n    }\r\n\r\n    function claimNft(uint256 _tokenId) public override returns(uint256) {\r\n        Auction memory auctionItem = auctionList[_tokenId];\r\n\r\n        require(auctionItem.active, \"Digiplaza: Not in Auction\");\r\n\r\n        require(block.timestamp > auctionItem.endTime, \"Digiplaza: Auction Still onGoing\");\r\n\r\n        if ( auctionItem.creator == msg.sender || auctionItem.owner == msg.sender ) {\r\n\r\n            if (auctionItem.owner == address(0)) {\r\n                _transfer(address(this), auctionItem.creator, _tokenId);\r\n            } else {\r\n                _transfer(address(this), auctionItem.owner, _tokenId);\r\n\r\n                if(auctionItem.currency == CURRENCY.ETH){\r\n                    uint256 value = auctionItem.value - ((auctionItem.value * FEE) / 100);\r\n                    payable(auctionItem.creator).transfer(value);\r\n                }else{\r\n                    uint256 value = auctionItem.value - ((auctionItem.value * TOKEN_FEE) / 100);\r\n                    Token(TOKEN_ADDRESS).transfer(auctionItem.creator,value);\r\n                }\r\n            }\r\n\r\n            delete auctionList[_tokenId];\r\n\r\n            emit ClaimNft(auctionItem.owner, _tokenId);\r\n\r\n            return _tokenId;\r\n        } else {\r\n            revert(\"Digiplaza: Must be Owner\");\r\n        }\r\n    }\r\n\r\n    \r\n   \r\n\r\n\r\n    function getTokenMetaData(uint256 _tokenId) public view override returns (string memory){\r\n        require( _exists(_tokenId), \"ERC721: approved query for nonexistent token\" );\r\n        return tokenMetaData[_tokenId];\r\n    }\r\n\r\n    function getAuction(uint256 _tokenId) public view override returns (Auction memory) {\r\n        return auctionList[_tokenId];\r\n    }\r\n\r\n    function setTokenAddress(address tokenAddress) public override onlyOwner {\r\n        TOKEN_ADDRESS = tokenAddress;\r\n    }\r\n\r\n    function setFee(uint256 fee, uint256 tokenFee) public override onlyOwner {\r\n        FEE = fee;\r\n        TOKEN_FEE = tokenFee;\r\n    }\r\n\r\n    function setNextBidPercentage(uint256 fee, uint256 tokenFee) public override onlyOwner {\r\n        FEE = fee;\r\n        TOKEN_FEE = tokenFee;\r\n    }\r\n    \r\n\r\n    function withdraw(address _address, uint256 _value, CURRENCY currency) public override onlyOwner {\r\n\r\n        if(currency == CURRENCY.ETH){\r\n            payable(_address).transfer(_value);\r\n        }else{\r\n            Token(TOKEN_ADDRESS).transfer(_address,_value);\r\n        }\r\n    }\r\n\r\n\r\n  }\r\n",
  "sourcePath": "E:/Workspace/Projects/Production/NFTs/Digiplaza/Digiplaza/contracts/contracts/Digiplaza.sol",
  "compiler": {
    "name": "solc",
    "version": "0.8.4+commit.c7e474f2.Emscripten.clang"
  },
  "schemaVersion": "3.3.4",
  "updatedAt": "2021-04-29T14:48:09.735Z",
  "devdoc": {
    "kind": "dev",
    "methods": {
      "approve(address,uint256)": {
        "details": "See {IERC721-approve}."
      },
      "balanceOf(address)": {
        "details": "See {IERC721-balanceOf}."
      },
      "getApproved(uint256)": {
        "details": "See {IERC721-getApproved}."
      },
      "isApprovedForAll(address,address)": {
        "details": "See {IERC721-isApprovedForAll}."
      },
      "name()": {
        "details": "See {IERC721Metadata-name}."
      },
      "owner()": {
        "details": "Returns the address of the current owner."
      },
      "ownerOf(uint256)": {
        "details": "See {IERC721-ownerOf}."
      },
      "renounceOwnership()": {
        "details": "Leaves the contract without owner. It will not be possible to call `onlyOwner` functions anymore. Can only be called by the current owner. NOTE: Renouncing ownership will leave the contract without an owner, thereby removing any functionality that is only available to the owner."
      },
      "safeTransferFrom(address,address,uint256)": {
        "details": "See {IERC721-safeTransferFrom}."
      },
      "safeTransferFrom(address,address,uint256,bytes)": {
        "details": "See {IERC721-safeTransferFrom}."
      },
      "setApprovalForAll(address,bool)": {
        "details": "See {IERC721-setApprovalForAll}."
      },
      "supportsInterface(bytes4)": {
        "details": "See {IERC165-supportsInterface}."
      },
      "symbol()": {
        "details": "See {IERC721Metadata-symbol}."
      },
      "tokenURI(uint256)": {
        "details": "See {IERC721Metadata-tokenURI}."
      },
      "transferFrom(address,address,uint256)": {
        "details": "See {IERC721-transferFrom}."
      },
      "transferOwnership(address)": {
        "details": "Transfers ownership of the contract to a new account (`newOwner`). Can only be called by the current owner."
      }
    },
    "version": 1
  },
  "userdoc": {
    "kind": "user",
    "methods": {},
    "version": 1
  }
}