{
  "contractName": "Market",
  "abi": [
    {
      "anonymous": false,
      "inputs": [
        {
          "indexed": false,
          "internalType": "address",
          "name": "bidder",
          "type": "address"
        },
        {
          "indexed": true,
          "internalType": "uint256",
          "name": "tokenId",
          "type": "uint256"
        },
        {
          "indexed": false,
          "internalType": "uint256",
          "name": "value",
          "type": "uint256"
        },
        {
          "indexed": false,
          "internalType": "enum IMarket.CURRENCY",
          "name": "currency",
          "type": "uint8"
        }
      ],
      "name": "Bid",
      "type": "event"
    },
    {
      "anonymous": false,
      "inputs": [
        {
          "indexed": false,
          "internalType": "address",
          "name": "collector",
          "type": "address"
        },
        {
          "indexed": true,
          "internalType": "uint256",
          "name": "tokenId",
          "type": "uint256"
        },
        {
          "indexed": false,
          "internalType": "uint256",
          "name": "value",
          "type": "uint256"
        }
      ],
      "name": "ClaimNft",
      "type": "event"
    },
    {
      "anonymous": false,
      "inputs": [
        {
          "indexed": true,
          "internalType": "address",
          "name": "owner",
          "type": "address"
        },
        {
          "indexed": false,
          "internalType": "uint256",
          "name": "tokenId",
          "type": "uint256"
        },
        {
          "indexed": false,
          "internalType": "uint256",
          "name": "price",
          "type": "uint256"
        },
        {
          "indexed": false,
          "internalType": "uint256",
          "name": "endTime",
          "type": "uint256"
        },
        {
          "indexed": false,
          "internalType": "enum IMarket.CURRENCY",
          "name": "currency",
          "type": "uint8"
        }
      ],
      "name": "ListOnAuction",
      "type": "event"
    },
    {
      "anonymous": false,
      "inputs": [
        {
          "indexed": true,
          "internalType": "address",
          "name": "previousOwner",
          "type": "address"
        },
        {
          "indexed": true,
          "internalType": "address",
          "name": "newOwner",
          "type": "address"
        }
      ],
      "name": "OwnershipTransferred",
      "type": "event"
    },
    {
      "inputs": [],
      "name": "AUCTION_TIME",
      "outputs": [
        {
          "internalType": "uint256",
          "name": "",
          "type": "uint256"
        }
      ],
      "stateMutability": "view",
      "type": "function"
    },
    {
      "inputs": [],
      "name": "DAY",
      "outputs": [
        {
          "internalType": "uint256",
          "name": "",
          "type": "uint256"
        }
      ],
      "stateMutability": "view",
      "type": "function"
    },
    {
      "inputs": [],
      "name": "ERC20_TOKEN_ADDRESS",
      "outputs": [
        {
          "internalType": "address",
          "name": "",
          "type": "address"
        }
      ],
      "stateMutability": "view",
      "type": "function"
    },
    {
      "inputs": [],
      "name": "ERC721_TOKEN_ADDRESS",
      "outputs": [
        {
          "internalType": "address",
          "name": "",
          "type": "address"
        }
      ],
      "stateMutability": "view",
      "type": "function"
    },
    {
      "inputs": [],
      "name": "FEE",
      "outputs": [
        {
          "internalType": "uint256",
          "name": "",
          "type": "uint256"
        }
      ],
      "stateMutability": "view",
      "type": "function"
    },
    {
      "inputs": [],
      "name": "FIFTEEN_MINUTES",
      "outputs": [
        {
          "internalType": "uint256",
          "name": "",
          "type": "uint256"
        }
      ],
      "stateMutability": "view",
      "type": "function"
    },
    {
      "inputs": [],
      "name": "LAST_BIDDER_RESET_TIME",
      "outputs": [
        {
          "internalType": "uint256",
          "name": "",
          "type": "uint256"
        }
      ],
      "stateMutability": "view",
      "type": "function"
    },
    {
      "inputs": [],
      "name": "NEXT_BID_PERCENTAGE",
      "outputs": [
        {
          "internalType": "uint256",
          "name": "",
          "type": "uint256"
        }
      ],
      "stateMutability": "view",
      "type": "function"
    },
    {
      "inputs": [],
      "name": "TOKEN_FEE",
      "outputs": [
        {
          "internalType": "uint256",
          "name": "",
          "type": "uint256"
        }
      ],
      "stateMutability": "view",
      "type": "function"
    },
    {
      "inputs": [],
      "name": "owner",
      "outputs": [
        {
          "internalType": "address",
          "name": "",
          "type": "address"
        }
      ],
      "stateMutability": "view",
      "type": "function"
    },
    {
      "inputs": [],
      "name": "renounceOwnership",
      "outputs": [],
      "stateMutability": "nonpayable",
      "type": "function"
    },
    {
      "inputs": [
        {
          "internalType": "address",
          "name": "newOwner",
          "type": "address"
        }
      ],
      "name": "transferOwnership",
      "outputs": [],
      "stateMutability": "nonpayable",
      "type": "function"
    },
    {
      "inputs": [
        {
          "internalType": "uint256",
          "name": "tokenId",
          "type": "uint256"
        },
        {
          "internalType": "uint256",
          "name": "price",
          "type": "uint256"
        },
        {
          "internalType": "enum IMarket.CURRENCY",
          "name": "currency",
          "type": "uint8"
        }
      ],
      "name": "listOnAuction",
      "outputs": [
        {
          "components": [
            {
              "internalType": "bool",
              "name": "active",
              "type": "bool"
            },
            {
              "internalType": "address",
              "name": "seller",
              "type": "address"
            },
            {
              "internalType": "address",
              "name": "owner",
              "type": "address"
            },
            {
              "internalType": "uint256",
              "name": "value",
              "type": "uint256"
            },
            {
              "internalType": "uint256",
              "name": "endTime",
              "type": "uint256"
            },
            {
              "internalType": "enum IMarket.CURRENCY",
              "name": "currency",
              "type": "uint8"
            }
          ],
          "internalType": "struct IMarket.Auction",
          "name": "",
          "type": "tuple"
        }
      ],
      "stateMutability": "nonpayable",
      "type": "function"
    },
    {
      "inputs": [
        {
          "internalType": "uint256",
          "name": "_tokenId",
          "type": "uint256"
        },
        {
          "internalType": "uint256",
          "name": "_price",
          "type": "uint256"
        }
      ],
      "name": "bid",
      "outputs": [
        {
          "components": [
            {
              "internalType": "bool",
              "name": "active",
              "type": "bool"
            },
            {
              "internalType": "address",
              "name": "seller",
              "type": "address"
            },
            {
              "internalType": "address",
              "name": "owner",
              "type": "address"
            },
            {
              "internalType": "uint256",
              "name": "value",
              "type": "uint256"
            },
            {
              "internalType": "uint256",
              "name": "endTime",
              "type": "uint256"
            },
            {
              "internalType": "enum IMarket.CURRENCY",
              "name": "currency",
              "type": "uint8"
            }
          ],
          "internalType": "struct IMarket.Auction",
          "name": "",
          "type": "tuple"
        }
      ],
      "stateMutability": "payable",
      "type": "function"
    },
    {
      "inputs": [
        {
          "internalType": "uint256",
          "name": "_tokenId",
          "type": "uint256"
        }
      ],
      "name": "claimNft",
      "outputs": [
        {
          "internalType": "uint256",
          "name": "",
          "type": "uint256"
        }
      ],
      "stateMutability": "nonpayable",
      "type": "function"
    },
    {
      "inputs": [
        {
          "internalType": "uint256",
          "name": "_tokenId",
          "type": "uint256"
        }
      ],
      "name": "getAuction",
      "outputs": [
        {
          "components": [
            {
              "internalType": "bool",
              "name": "active",
              "type": "bool"
            },
            {
              "internalType": "address",
              "name": "seller",
              "type": "address"
            },
            {
              "internalType": "address",
              "name": "owner",
              "type": "address"
            },
            {
              "internalType": "uint256",
              "name": "value",
              "type": "uint256"
            },
            {
              "internalType": "uint256",
              "name": "endTime",
              "type": "uint256"
            },
            {
              "internalType": "enum IMarket.CURRENCY",
              "name": "currency",
              "type": "uint8"
            }
          ],
          "internalType": "struct IMarket.Auction",
          "name": "",
          "type": "tuple"
        }
      ],
      "stateMutability": "view",
      "type": "function"
    },
    {
      "inputs": [
        {
          "internalType": "address",
          "name": "_address",
          "type": "address"
        }
      ],
      "name": "setERC20TokenAddress",
      "outputs": [],
      "stateMutability": "nonpayable",
      "type": "function"
    },
    {
      "inputs": [
        {
          "internalType": "address",
          "name": "_address",
          "type": "address"
        }
      ],
      "name": "setERC721TokenAddress",
      "outputs": [],
      "stateMutability": "nonpayable",
      "type": "function"
    },
    {
      "inputs": [
        {
          "internalType": "uint256",
          "name": "fee",
          "type": "uint256"
        },
        {
          "internalType": "uint256",
          "name": "tokenFee",
          "type": "uint256"
        }
      ],
      "name": "setFee",
      "outputs": [],
      "stateMutability": "nonpayable",
      "type": "function"
    },
    {
      "inputs": [
        {
          "internalType": "uint256",
          "name": "nextBidPercent",
          "type": "uint256"
        }
      ],
      "name": "setNextBidPercentage",
      "outputs": [],
      "stateMutability": "nonpayable",
      "type": "function"
    },
    {
      "inputs": [
        {
          "internalType": "address",
          "name": "_address",
          "type": "address"
        },
        {
          "internalType": "uint256",
          "name": "_value",
          "type": "uint256"
        },
        {
          "internalType": "enum IMarket.CURRENCY",
          "name": "currency",
          "type": "uint8"
        }
      ],
      "name": "withdraw",
      "outputs": [],
      "stateMutability": "nonpayable",
      "type": "function"
    },
    {
      "inputs": [
        {
          "internalType": "address",
          "name": "_address",
          "type": "address"
        },
        {
          "internalType": "uint256",
          "name": "tokens",
          "type": "uint256"
        }
      ],
      "name": "transferAnyERC20Token",
      "outputs": [
        {
          "internalType": "bool",
          "name": "success",
          "type": "bool"
        }
      ],
      "stateMutability": "nonpayable",
      "type": "function"
    }
  ],
  "bytecode": "0x6080604052600f600155600f60025560056003553480156200002057600080fd5b50600062000033620000d760201b60201c565b9050806000806101000a81548173ffffffffffffffffffffffffffffffffffffffff021916908373ffffffffffffffffffffffffffffffffffffffff1602179055508073ffffffffffffffffffffffffffffffffffffffff16600073ffffffffffffffffffffffffffffffffffffffff167f8be0079c531659141344cd1fd0a4f28419497f9722a3daafe3b4186f6b6457e060405160405180910390a350620000df565b600033905090565b61346980620000ef6000396000f3fe6080604052600436106101355760003560e01c8063ac8972ed116100ab578063dc39d06d1161006f578063dc39d06d1461040b578063dc8c057514610448578063e592301a14610473578063eae483c51461049e578063f2fde38b146104c7578063f8e5601b146104f057610135565b8063ac8972ed14610324578063c0368fe81461034d578063c56f1b5a1461038a578063c57981b5146103b5578063d37231a7146103e057610135565b8063598647f8116100fd578063598647f81461021f578063715018a61461024f57806378bd7935146102665780638da5cb5b146102a357806392f6a3ce146102ce578063aa9ab174146102f957610135565b806327cfe8561461013a5780632892a977146101655780632ec09d391461018e57806337d83e65146101cb57806352f7c988146101f6575b600080fd5b34801561014657600080fd5b5061014f610519565b60405161015c9190612f34565b60405180910390f35b34801561017157600080fd5b5061018c60048036038101906101879190612a08565b610520565b005b34801561019a57600080fd5b506101b560048036038101906101b09190612ac1565b610717565b6040516101c29190612f34565b60405180910390f35b3480156101d757600080fd5b506101e0611017565b6040516101ed9190612f34565b60405180910390f35b34801561020257600080fd5b5061021d60048036038101906102189190612b13565b61101d565b005b61023960048036038101906102349190612b13565b6110ab565b6040516102469190612f19565b60405180910390f35b34801561025b57600080fd5b50610264611ae6565b005b34801561027257600080fd5b5061028d60048036038101906102889190612ac1565b611c20565b60405161029a9190612f19565b60405180910390f35b3480156102af57600080fd5b506102b8611daf565b6040516102c59190612d63565b60405180910390f35b3480156102da57600080fd5b506102e3611dd8565b6040516102f09190612d63565b60405180910390f35b34801561030557600080fd5b5061030e611dfe565b60405161031b9190612f34565b60405180910390f35b34801561033057600080fd5b5061034b6004803603810190610346919061297a565b611e04565b005b34801561035957600080fd5b50610374600480360381019061036f9190612b4f565b611ec4565b6040516103819190612f19565b60405180910390f35b34801561039657600080fd5b5061039f61231c565b6040516103ac9190612f34565b60405180910390f35b3480156103c157600080fd5b506103ca612322565b6040516103d79190612f34565b60405180910390f35b3480156103ec57600080fd5b506103f5612328565b6040516104029190612d63565b60405180910390f35b34801561041757600080fd5b50610432600480360381019061042d91906129cc565b61234e565b60405161043f9190612e3e565b60405180910390f35b34801561045457600080fd5b5061045d612468565b60405161046a9190612f34565b60405180910390f35b34801561047f57600080fd5b5061048861246e565b6040516104959190612f34565b60405180910390f35b3480156104aa57600080fd5b506104c560048036038101906104c0919061297a565b612475565b005b3480156104d357600080fd5b506104ee60048036038101906104e9919061297a565b612535565b005b3480156104fc57600080fd5b5061051760048036038101906105129190612ac1565b6126de565b005b6201518081565b610528612764565b73ffffffffffffffffffffffffffffffffffffffff16610546611daf565b73ffffffffffffffffffffffffffffffffffffffff161461059c576040517f08c379a000000000000000000000000000000000000000000000000000000000815260040161059390612ed9565b60405180910390fd5b600060018111156105d6577f4e487b7100000000000000000000000000000000000000000000000000000000600052602160045260246000fd5b81600181111561060f577f4e487b7100000000000000000000000000000000000000000000000000000000600052602160045260246000fd5b1415610661578273ffffffffffffffffffffffffffffffffffffffff166108fc839081150290604051600060405180830381858888f1935050505015801561065b573d6000803e3d6000fd5b50610712565b600460009054906101000a900473ffffffffffffffffffffffffffffffffffffffff1673ffffffffffffffffffffffffffffffffffffffff1663a9059cbb84846040518363ffffffff1660e01b81526004016106be929190612dde565b602060405180830381600087803b1580156106d857600080fd5b505af11580156106ec573d6000803e3d6000fd5b505050506040513d601f19601f820116820180604052508101906107109190612a57565b505b505050565b600080600660008481526020019081526020016000206040518060c00160405290816000820160009054906101000a900460ff161515151581526020016000820160019054906101000a900473ffffffffffffffffffffffffffffffffffffffff1673ffffffffffffffffffffffffffffffffffffffff1673ffffffffffffffffffffffffffffffffffffffff1681526020016001820160009054906101000a900473ffffffffffffffffffffffffffffffffffffffff1673ffffffffffffffffffffffffffffffffffffffff1673ffffffffffffffffffffffffffffffffffffffff16815260200160028201548152602001600382015481526020016004820160009054906101000a900460ff16600181111561085e577f4e487b7100000000000000000000000000000000000000000000000000000000600052602160045260246000fd5b6001811115610896577f4e487b7100000000000000000000000000000000000000000000000000000000600052602160045260246000fd5b81525050905080600001516108e0576040517f08c379a00000000000000000000000000000000000000000000000000000000081526004016108d790612e99565b60405180910390fd5b80608001514211610926576040517f08c379a000000000000000000000000000000000000000000000000000000000815260040161091d90612e59565b60405180910390fd5b3373ffffffffffffffffffffffffffffffffffffffff16816020015173ffffffffffffffffffffffffffffffffffffffff16148061099357503373ffffffffffffffffffffffffffffffffffffffff16816040015173ffffffffffffffffffffffffffffffffffffffff16145b6109d2576040517f08c379a00000000000000000000000000000000000000000000000000000000081526004016109c990612ef9565b60405180910390fd5b600073ffffffffffffffffffffffffffffffffffffffff16816040015173ffffffffffffffffffffffffffffffffffffffff161415610aa557600560009054906101000a900473ffffffffffffffffffffffffffffffffffffffff1673ffffffffffffffffffffffffffffffffffffffff166323b872dd308360200151866040518463ffffffff1660e01b8152600401610a6e93929190612da7565b600060405180830381600087803b158015610a8857600080fd5b505af1158015610a9c573d6000803e3d6000fd5b50505050610f30565b600560009054906101000a900473ffffffffffffffffffffffffffffffffffffffff1673ffffffffffffffffffffffffffffffffffffffff166323b872dd308360400151866040518463ffffffff1660e01b8152600401610b0893929190612da7565b600060405180830381600087803b158015610b2257600080fd5b505af1158015610b36573d6000803e3d6000fd5b505050506000600560009054906101000a900473ffffffffffffffffffffffffffffffffffffffff1673ffffffffffffffffffffffffffffffffffffffff1663167ddf6e856040518263ffffffff1660e01b8152600401610b979190612f34565b60006040518083038186803b158015610baf57600080fd5b505afa158015610bc3573d6000803e3d6000fd5b505050506040513d6000823e3d601f19601f82011682018060405250810190610bec9190612a80565b90506000606482606001518460600151610c069190613082565b610c109190613051565b905060006001811115610c4c577f4e487b7100000000000000000000000000000000000000000000000000000000600052602160045260246000fd5b8360a001516001811115610c89577f4e487b7100000000000000000000000000000000000000000000000000000000600052602160045260246000fd5b1415610d7757600060646001548560600151610ca59190613082565b610caf9190613051565b905060008282610cbf9190612ffb565b8560600151610cce91906130dc565b9050846020015173ffffffffffffffffffffffffffffffffffffffff166108fc829081150290604051600060405180830381858888f19350505050158015610d1a573d6000803e3d6000fd5b506000831115610d7057836020015173ffffffffffffffffffffffffffffffffffffffff166108fc849081150290604051600060405180830381858888f19350505050158015610d6e573d6000803e3d6000fd5b505b5050610f2d565b600060646002548560600151610d8d9190613082565b610d979190613051565b905060008282610da79190612ffb565b8560600151610db691906130dc565b9050600460009054906101000a900473ffffffffffffffffffffffffffffffffffffffff1673ffffffffffffffffffffffffffffffffffffffff1663a9059cbb8660200151836040518363ffffffff1660e01b8152600401610e19929190612dde565b602060405180830381600087803b158015610e3357600080fd5b505af1158015610e47573d6000803e3d6000fd5b505050506040513d601f19601f82011682018060405250810190610e6b9190612a57565b506000831115610f2a57600460009054906101000a900473ffffffffffffffffffffffffffffffffffffffff1673ffffffffffffffffffffffffffffffffffffffff1663a9059cbb8560200151856040518363ffffffff1660e01b8152600401610ed6929190612dde565b602060405180830381600087803b158015610ef057600080fd5b505af1158015610f04573d6000803e3d6000fd5b505050506040513d601f19601f82011682018060405250810190610f289190612a57565b505b50505b50505b60066000848152602001908152602001600020600080820160006101000a81549060ff02191690556000820160016101000a81549073ffffffffffffffffffffffffffffffffffffffff02191690556001820160006101000a81549073ffffffffffffffffffffffffffffffffffffffff0219169055600282016000905560038201600090556004820160006101000a81549060ff02191690555050827fd4908414cdb2f24c8ce76341e36cb074a61b043c671e9d28eb33c11a2f4edcf982604001518360600151604051611006929190612dde565b60405180910390a282915050919050565b61038481565b611025612764565b73ffffffffffffffffffffffffffffffffffffffff16611043611daf565b73ffffffffffffffffffffffffffffffffffffffff1614611099576040517f08c379a000000000000000000000000000000000000000000000000000000000815260040161109090612ed9565b60405180910390fd5b81600181905550806002819055505050565b6110b361276c565b6000600660008581526020019081526020016000206040518060c00160405290816000820160009054906101000a900460ff161515151581526020016000820160019054906101000a900473ffffffffffffffffffffffffffffffffffffffff1673ffffffffffffffffffffffffffffffffffffffff1673ffffffffffffffffffffffffffffffffffffffff1681526020016001820160009054906101000a900473ffffffffffffffffffffffffffffffffffffffff1673ffffffffffffffffffffffffffffffffffffffff1673ffffffffffffffffffffffffffffffffffffffff16815260200160028201548152602001600382015481526020016004820160009054906101000a900460ff1660018111156111f9577f4e487b7100000000000000000000000000000000000000000000000000000000600052602160045260246000fd5b6001811115611231577f4e487b7100000000000000000000000000000000000000000000000000000000600052602160045260246000fd5b815250509050806000015161127b576040517f08c379a000000000000000000000000000000000000000000000000000000000815260040161127290612e99565b60405180910390fd5b806080015142111561131957600073ffffffffffffffffffffffffffffffffffffffff16816040015173ffffffffffffffffffffffffffffffffffffffff1614156112dd5742620151806112cf9190612ffb565b816080018181525050611318565b6040517f08c379a000000000000000000000000000000000000000000000000000000000815260040161130f90612e59565b60405180910390fd5b5b6000816060015190506064600354826113329190613082565b61133c9190613051565b816113479190612ffb565b905060006001811115611383577f4e487b7100000000000000000000000000000000000000000000000000000000600052602160045260246000fd5b8260a0015160018111156113c0577f4e487b7100000000000000000000000000000000000000000000000000000000600052602160045260246000fd5b14156114a05734811115611409576040517f08c379a000000000000000000000000000000000000000000000000000000000815260040161140090612eb9565b60405180910390fd5b600073ffffffffffffffffffffffffffffffffffffffff16826040015173ffffffffffffffffffffffffffffffffffffffff161461149157816040015173ffffffffffffffffffffffffffffffffffffffff166108fc83606001519081150290604051600060405180830381858888f1935050505015801561148f573d6000803e3d6000fd5b505b34826060018181525050611780565b838111156114e3576040517f08c379a00000000000000000000000000000000000000000000000000000000081526004016114da90612eb9565b60405180910390fd5b83600460009054906101000a900473ffffffffffffffffffffffffffffffffffffffff1673ffffffffffffffffffffffffffffffffffffffff1663dd62ed3e33306040518363ffffffff1660e01b8152600401611541929190612d7e565b60206040518083038186803b15801561155957600080fd5b505afa15801561156d573d6000803e3d6000fd5b505050506040513d601f19601f820116820180604052508101906115919190612aea565b10156115d2576040517f08c379a00000000000000000000000000000000000000000000000000000000081526004016115c990612ef9565b60405180910390fd5b600460009054906101000a900473ffffffffffffffffffffffffffffffffffffffff1673ffffffffffffffffffffffffffffffffffffffff166323b872dd3330876040518463ffffffff1660e01b815260040161163193929190612da7565b602060405180830381600087803b15801561164b57600080fd5b505af115801561165f573d6000803e3d6000fd5b505050506040513d601f19601f820116820180604052508101906116839190612a57565b50600073ffffffffffffffffffffffffffffffffffffffff16826040015173ffffffffffffffffffffffffffffffffffffffff161461177557600460009054906101000a900473ffffffffffffffffffffffffffffffffffffffff1673ffffffffffffffffffffffffffffffffffffffff1663a9059cbb836040015184606001516040518363ffffffff1660e01b8152600401611721929190612dde565b602060405180830381600087803b15801561173b57600080fd5b505af115801561174f573d6000803e3d6000fd5b505050506040513d601f19601f820116820180604052508101906117739190612a57565b505b838260600181815250505b33826040019073ffffffffffffffffffffffffffffffffffffffff16908173ffffffffffffffffffffffffffffffffffffffff16815250506103844283608001516117cb91906130dc565b10156117e957426103846117df9190612ffb565b8260800181815250505b816006600087815260200190815260200160002060008201518160000160006101000a81548160ff02191690831515021790555060208201518160000160016101000a81548173ffffffffffffffffffffffffffffffffffffffff021916908373ffffffffffffffffffffffffffffffffffffffff16021790555060408201518160010160006101000a81548173ffffffffffffffffffffffffffffffffffffffff021916908373ffffffffffffffffffffffffffffffffffffffff160217905550606082015181600201556080820151816003015560a08201518160040160006101000a81548160ff02191690836001811115611910577f4e487b7100000000000000000000000000000000000000000000000000000000600052602160045260246000fd5b0217905550905050847f209b13671cce6f252f05be352152cc8a6236d8f374f81ce4342cc94a47be73383384606001518560a0015160405161195493929190612e07565b60405180910390a2600660008681526020019081526020016000206040518060c00160405290816000820160009054906101000a900460ff161515151581526020016000820160019054906101000a900473ffffffffffffffffffffffffffffffffffffffff1673ffffffffffffffffffffffffffffffffffffffff1673ffffffffffffffffffffffffffffffffffffffff1681526020016001820160009054906101000a900473ffffffffffffffffffffffffffffffffffffffff1673ffffffffffffffffffffffffffffffffffffffff1673ffffffffffffffffffffffffffffffffffffffff16815260200160028201548152602001600382015481526020016004820160009054906101000a900460ff166001811115611aa0577f4e487b7100000000000000000000000000000000000000000000000000000000600052602160045260246000fd5b6001811115611ad8577f4e487b7100000000000000000000000000000000000000000000000000000000600052602160045260246000fd5b815250509250505092915050565b611aee612764565b73ffffffffffffffffffffffffffffffffffffffff16611b0c611daf565b73ffffffffffffffffffffffffffffffffffffffff1614611b62576040517f08c379a0000000000000000000000000000000000000000000000000000000008152600401611b5990612ed9565b60405180910390fd5b600073ffffffffffffffffffffffffffffffffffffffff1660008054906101000a900473ffffffffffffffffffffffffffffffffffffffff1673ffffffffffffffffffffffffffffffffffffffff167f8be0079c531659141344cd1fd0a4f28419497f9722a3daafe3b4186f6b6457e060405160405180910390a360008060006101000a81548173ffffffffffffffffffffffffffffffffffffffff021916908373ffffffffffffffffffffffffffffffffffffffff160217905550565b611c2861276c565b600660008381526020019081526020016000206040518060c00160405290816000820160009054906101000a900460ff161515151581526020016000820160019054906101000a900473ffffffffffffffffffffffffffffffffffffffff1673ffffffffffffffffffffffffffffffffffffffff1673ffffffffffffffffffffffffffffffffffffffff1681526020016001820160009054906101000a900473ffffffffffffffffffffffffffffffffffffffff1673ffffffffffffffffffffffffffffffffffffffff1673ffffffffffffffffffffffffffffffffffffffff16815260200160028201548152602001600382015481526020016004820160009054906101000a900460ff166001811115611d6c577f4e487b7100000000000000000000000000000000000000000000000000000000600052602160045260246000fd5b6001811115611da4577f4e487b7100000000000000000000000000000000000000000000000000000000600052602160045260246000fd5b815250509050919050565b60008060009054906101000a900473ffffffffffffffffffffffffffffffffffffffff16905090565b600560009054906101000a900473ffffffffffffffffffffffffffffffffffffffff1681565b61038481565b611e0c612764565b73ffffffffffffffffffffffffffffffffffffffff16611e2a611daf565b73ffffffffffffffffffffffffffffffffffffffff1614611e80576040517f08c379a0000000000000000000000000000000000000000000000000000000008152600401611e7790612ed9565b60405180910390fd5b80600560006101000a81548173ffffffffffffffffffffffffffffffffffffffff021916908373ffffffffffffffffffffffffffffffffffffffff16021790555050565b611ecc61276c565b3373ffffffffffffffffffffffffffffffffffffffff16600560009054906101000a900473ffffffffffffffffffffffffffffffffffffffff1673ffffffffffffffffffffffffffffffffffffffff16636352211e866040518263ffffffff1660e01b8152600401611f3e9190612f34565b60206040518083038186803b158015611f5657600080fd5b505afa158015611f6a573d6000803e3d6000fd5b505050506040513d601f19601f82011682018060405250810190611f8e91906129a3565b73ffffffffffffffffffffffffffffffffffffffff1614611fe4576040517f08c379a0000000000000000000000000000000000000000000000000000000008152600401611fdb90612ef9565b60405180910390fd5b6006600085815260200190815260200160002060000160009054906101000a900460ff1615612048576040517f08c379a000000000000000000000000000000000000000000000000000000000815260040161203f90612e99565b60405180910390fd5b60006040518060c001604052806001151581526020013373ffffffffffffffffffffffffffffffffffffffff168152602001600073ffffffffffffffffffffffffffffffffffffffff16815260200185815260200142620151806120ac9190612ffb565b81526020018460018111156120ea577f4e487b7100000000000000000000000000000000000000000000000000000000600052602160045260246000fd5b8152509050806006600087815260200190815260200160002060008201518160000160006101000a81548160ff02191690831515021790555060208201518160000160016101000a81548173ffffffffffffffffffffffffffffffffffffffff021916908373ffffffffffffffffffffffffffffffffffffffff16021790555060408201518160010160006101000a81548173ffffffffffffffffffffffffffffffffffffffff021916908373ffffffffffffffffffffffffffffffffffffffff160217905550606082015181600201556080820151816003015560a08201518160040160006101000a81548160ff02191690836001811115612216577f4e487b7100000000000000000000000000000000000000000000000000000000600052602160045260246000fd5b0217905550905050600560009054906101000a900473ffffffffffffffffffffffffffffffffffffffff1673ffffffffffffffffffffffffffffffffffffffff166323b872dd3330886040518463ffffffff1660e01b815260040161227d93929190612da7565b600060405180830381600087803b15801561229757600080fd5b505af11580156122ab573d6000803e3d6000fd5b505050503373ffffffffffffffffffffffffffffffffffffffff167fc5660d56ca28521ee094f4313486f25d77a03c0f8de39c52fd3933d858c83fb6868642620151806122f89190612ffb565b876040516123099493929190612f4f565b60405180910390a2809150509392505050565b60025481565b60015481565b600460009054906101000a900473ffffffffffffffffffffffffffffffffffffffff1681565b6000612358612764565b73ffffffffffffffffffffffffffffffffffffffff16612376611daf565b73ffffffffffffffffffffffffffffffffffffffff16146123cc576040517f08c379a00000000000000000000000000000000000000000000000000000000081526004016123c390612ed9565b60405180910390fd5b8273ffffffffffffffffffffffffffffffffffffffff1663a9059cbb6123f0611daf565b846040518363ffffffff1660e01b815260040161240e929190612dde565b602060405180830381600087803b15801561242857600080fd5b505af115801561243c573d6000803e3d6000fd5b505050506040513d601f19601f820116820180604052508101906124609190612a57565b905092915050565b60035481565b6201518081565b61247d612764565b73ffffffffffffffffffffffffffffffffffffffff1661249b611daf565b73ffffffffffffffffffffffffffffffffffffffff16146124f1576040517f08c379a00000000000000000000000000000000000000000000000000000000081526004016124e890612ed9565b60405180910390fd5b80600460006101000a81548173ffffffffffffffffffffffffffffffffffffffff021916908373ffffffffffffffffffffffffffffffffffffffff16021790555050565b61253d612764565b73ffffffffffffffffffffffffffffffffffffffff1661255b611daf565b73ffffffffffffffffffffffffffffffffffffffff16146125b1576040517f08c379a00000000000000000000000000000000000000000000000000000000081526004016125a890612ed9565b60405180910390fd5b600073ffffffffffffffffffffffffffffffffffffffff168173ffffffffffffffffffffffffffffffffffffffff161415612621576040517f08c379a000000000000000000000000000000000000000000000000000000000815260040161261890612e79565b60405180910390fd5b8073ffffffffffffffffffffffffffffffffffffffff1660008054906101000a900473ffffffffffffffffffffffffffffffffffffffff1673ffffffffffffffffffffffffffffffffffffffff167f8be0079c531659141344cd1fd0a4f28419497f9722a3daafe3b4186f6b6457e060405160405180910390a3806000806101000a81548173ffffffffffffffffffffffffffffffffffffffff021916908373ffffffffffffffffffffffffffffffffffffffff16021790555050565b6126e6612764565b73ffffffffffffffffffffffffffffffffffffffff16612704611daf565b73ffffffffffffffffffffffffffffffffffffffff161461275a576040517f08c379a000000000000000000000000000000000000000000000000000000000815260040161275190612ed9565b60405180910390fd5b8060038190555050565b600033905090565b6040518060c00160405280600015158152602001600073ffffffffffffffffffffffffffffffffffffffff168152602001600073ffffffffffffffffffffffffffffffffffffffff168152602001600081526020016000815260200160006001811115612802577f4e487b7100000000000000000000000000000000000000000000000000000000600052602160045260246000fd5b81525090565b600061281b61281684612fb9565b612f94565b90508281526020810184848401111561283357600080fd5b61283e84828561317d565b509392505050565b600081359050612855816133de565b92915050565b60008151905061286a816133de565b92915050565b60008151905061287f816133f5565b92915050565b6000813590506128948161340c565b92915050565b600082601f8301126128ab57600080fd5b81516128bb848260208601612808565b91505092915050565b6000608082840312156128d657600080fd5b6128e06080612f94565b905060006128f084828501612965565b60008301525060206129048482850161285b565b602083015250604082015167ffffffffffffffff81111561292457600080fd5b6129308482850161289a565b604083015250606061294484828501612965565b60608301525092915050565b60008135905061295f8161341c565b92915050565b6000815190506129748161341c565b92915050565b60006020828403121561298c57600080fd5b600061299a84828501612846565b91505092915050565b6000602082840312156129b557600080fd5b60006129c38482850161285b565b91505092915050565b600080604083850312156129df57600080fd5b60006129ed85828601612846565b92505060206129fe85828601612950565b9150509250929050565b600080600060608486031215612a1d57600080fd5b6000612a2b86828701612846565b9350506020612a3c86828701612950565b9250506040612a4d86828701612885565b9150509250925092565b600060208284031215612a6957600080fd5b6000612a7784828501612870565b91505092915050565b600060208284031215612a9257600080fd5b600082015167ffffffffffffffff811115612aac57600080fd5b612ab8848285016128c4565b91505092915050565b600060208284031215612ad357600080fd5b6000612ae184828501612950565b91505092915050565b600060208284031215612afc57600080fd5b6000612b0a84828501612965565b91505092915050565b60008060408385031215612b2657600080fd5b6000612b3485828601612950565b9250506020612b4585828601612950565b9150509250929050565b600080600060608486031215612b6457600080fd5b6000612b7286828701612950565b9350506020612b8386828701612950565b9250506040612b9486828701612885565b9150509250925092565b612ba781613110565b82525050565b612bb681613110565b82525050565b612bc581613122565b82525050565b612bd481613122565b82525050565b612be38161316b565b82525050565b612bf28161316b565b82525050565b6000612c05600283612fea565b9150612c10826132ae565b602082019050919050565b6000612c28602683612fea565b9150612c33826132d7565b604082019050919050565b6000612c4b600283612fea565b9150612c5682613326565b602082019050919050565b6000612c6e600283612fea565b9150612c798261334f565b602082019050919050565b6000612c91602083612fea565b9150612c9c82613378565b602082019050919050565b6000612cb4600283612fea565b9150612cbf826133a1565b602082019050919050565b60c082016000820151612ce06000850182612bbc565b506020820151612cf36020850182612b9e565b506040820151612d066040850182612b9e565b506060820151612d196060850182612d45565b506080820151612d2c6080850182612d45565b5060a0820151612d3f60a0850182612bda565b50505050565b612d4e81613161565b82525050565b612d5d81613161565b82525050565b6000602082019050612d786000830184612bad565b92915050565b6000604082019050612d936000830185612bad565b612da06020830184612bad565b9392505050565b6000606082019050612dbc6000830186612bad565b612dc96020830185612bad565b612dd66040830184612d54565b949350505050565b6000604082019050612df36000830185612bad565b612e006020830184612d54565b9392505050565b6000606082019050612e1c6000830186612bad565b612e296020830185612d54565b612e366040830184612be9565b949350505050565b6000602082019050612e536000830184612bcb565b92915050565b60006020820190508181036000830152612e7281612bf8565b9050919050565b60006020820190508181036000830152612e9281612c1b565b9050919050565b60006020820190508181036000830152612eb281612c3e565b9050919050565b60006020820190508181036000830152612ed281612c61565b9050919050565b60006020820190508181036000830152612ef281612c84565b9050919050565b60006020820190508181036000830152612f1281612ca7565b9050919050565b600060c082019050612f2e6000830184612cca565b92915050565b6000602082019050612f496000830184612d54565b92915050565b6000608082019050612f646000830187612d54565b612f716020830186612d54565b612f7e6040830185612d54565b612f8b6060830184612be9565b95945050505050565b6000612f9e612faf565b9050612faa82826131b0565b919050565b6000604051905090565b600067ffffffffffffffff821115612fd457612fd361326e565b5b612fdd8261329d565b9050602081019050919050565b600082825260208201905092915050565b600061300682613161565b915061301183613161565b9250827fffffffffffffffffffffffffffffffffffffffffffffffffffffffffffffffff03821115613046576130456131e1565b5b828201905092915050565b600061305c82613161565b915061306783613161565b92508261307757613076613210565b5b828204905092915050565b600061308d82613161565b915061309883613161565b9250817fffffffffffffffffffffffffffffffffffffffffffffffffffffffffffffffff04831182151516156130d1576130d06131e1565b5b828202905092915050565b60006130e782613161565b91506130f283613161565b925082821015613105576131046131e1565b5b828203905092915050565b600061311b82613141565b9050919050565b60008115159050919050565b600081905061313c826133ca565b919050565b600073ffffffffffffffffffffffffffffffffffffffff82169050919050565b6000819050919050565b60006131768261312e565b9050919050565b60005b8381101561319b578082015181840152602081019050613180565b838111156131aa576000848401525b50505050565b6131b98261329d565b810181811067ffffffffffffffff821117156131d8576131d761326e565b5b80604052505050565b7f4e487b7100000000000000000000000000000000000000000000000000000000600052601160045260246000fd5b7f4e487b7100000000000000000000000000000000000000000000000000000000600052601260045260246000fd5b7f4e487b7100000000000000000000000000000000000000000000000000000000600052602160045260246000fd5b7f4e487b7100000000000000000000000000000000000000000000000000000000600052604160045260246000fd5b6000601f19601f8301169050919050565b7f4554000000000000000000000000000000000000000000000000000000000000600082015250565b7f4f776e61626c653a206e6577206f776e657220697320746865207a65726f206160008201527f6464726573730000000000000000000000000000000000000000000000000000602082015250565b7f4553000000000000000000000000000000000000000000000000000000000000600082015250565b7f4556000000000000000000000000000000000000000000000000000000000000600082015250565b7f4f776e61626c653a2063616c6c6572206973206e6f7420746865206f776e6572600082015250565b7f4541000000000000000000000000000000000000000000000000000000000000600082015250565b600281106133db576133da61323f565b5b50565b6133e781613110565b81146133f257600080fd5b50565b6133fe81613122565b811461340957600080fd5b50565b6002811061341957600080fd5b50565b61342581613161565b811461343057600080fd5b5056fea264697066735822122039c64355f0e2e3c5b4648bc49cb6799495048f5dca43d8a4d694ef5a6871be4a64736f6c63430008040033",
  "immutableReferences": {},
  "source": "// SPDX-License-Identifier: MIT\r\n\r\npragma solidity ^0.8.0;\r\n\r\nimport \"@openzeppelin/contracts/token/ERC721/ERC721.sol\";\r\nimport \"@openzeppelin/contracts/utils/Counters.sol\";\r\nimport \"@openzeppelin/contracts/utils/math/SafeMath.sol\";\r\nimport \"@openzeppelin/contracts/access/Ownable.sol\";\r\n\r\nimport \"./IMarket.sol\";\r\nimport \"./ChilliSwap.sol\";\r\nimport \"@openzeppelin/contracts/token/ERC20/IERC20.sol\";\r\n\r\n\r\ncontract Market is IMarket,Ownable {\r\n\r\n    uint256 public constant DAY = 86400;\r\n    uint256 public constant FIFTEEN_MINUTES = 900;\r\n\r\n    uint256 public constant AUCTION_TIME = DAY;\r\n    uint256 public constant LAST_BIDDER_RESET_TIME = FIFTEEN_MINUTES;\r\n\r\n    uint256 public FEE = 15;\r\n    uint256 public TOKEN_FEE = 15;\r\n    uint256 public NEXT_BID_PERCENTAGE = 5;\r\n    address public ERC20_TOKEN_ADDRESS;\r\n    address public ERC721_TOKEN_ADDRESS;\r\n\r\n    mapping(uint256 => Auction) private auctionList;\r\n\r\n    // constructor() {}\r\n    // EA: error authentication \r\n    // ES:  error status (not active or active)\r\n    // EC: error currrency\r\n    // ET: error time\r\n    // EV: error time\r\n\r\n    function listOnAuction(uint256 tokenId, uint256 price, CURRENCY currency ) public override returns (Auction memory) {\r\n        require(ChilliSwap(ERC721_TOKEN_ADDRESS).ownerOf(tokenId) == msg.sender, \"EA\");\r\n        require(!auctionList[tokenId].active, \"ES\" );\r\n\r\n        Auction memory newAuction = Auction(true, msg.sender, address(0), price, AUCTION_TIME + block.timestamp, currency );\r\n        auctionList[tokenId] = newAuction;\r\n\r\n        ChilliSwap(ERC721_TOKEN_ADDRESS).transferFrom(msg.sender, address(this), tokenId);\r\n\r\n        emit ListOnAuction(msg.sender, tokenId, price, AUCTION_TIME + block.timestamp, currency);\r\n\r\n        return newAuction;\r\n    }\r\n\r\n    function bid(uint256 _tokenId, uint256 _price) public payable override returns(Auction memory){\r\n        Auction memory auctionItem = auctionList[_tokenId];\r\n        require(auctionItem.active, \"ES\");\r\n\r\n        if(block.timestamp > auctionItem.endTime){\r\n            if(auctionItem.owner == address(0)){\r\n                auctionItem.endTime = AUCTION_TIME + block.timestamp;\r\n            }else{\r\n               revert(\"ET\");\r\n            }\r\n        }\r\n\r\n        uint256 bidValueMust = auctionItem.value;\r\n        bidValueMust = bidValueMust + (bidValueMust * NEXT_BID_PERCENTAGE / 100);\r\n        if(auctionItem.currency == CURRENCY.ETH){\r\n            require( bidValueMust <= msg.value, \"EV\" );\r\n            if(auctionItem.owner != address(0)) {\r\n                payable(auctionItem.owner).transfer(auctionItem.value);\r\n            }\r\n                auctionItem.value = msg.value;\r\n        }else{\r\n            require( bidValueMust <= _price, \"EV\" );\r\n            require(IERC20(ERC20_TOKEN_ADDRESS).allowance(msg.sender, address(this)) >= _price, \"EA\");\r\n            IERC20(ERC20_TOKEN_ADDRESS).transferFrom(msg.sender, address(this), _price);\r\n            if(auctionItem.owner != address(0)) {\r\n                IERC20(ERC20_TOKEN_ADDRESS).transfer(auctionItem.owner,auctionItem.value);\r\n            }\r\n            auctionItem.value = _price;\r\n        }\r\n        auctionItem.owner = msg.sender;\r\n\r\n        if (auctionItem.endTime - block.timestamp < LAST_BIDDER_RESET_TIME) {\r\n            auctionItem.endTime = LAST_BIDDER_RESET_TIME + block.timestamp;\r\n        }\r\n\r\n        auctionList[_tokenId] = auctionItem;\r\n        emit Bid(msg.sender, _tokenId, auctionItem.value,  auctionItem.currency);\r\n        return auctionList[_tokenId];\r\n    }\r\n\r\n\r\n    function claimNft(uint256 _tokenId) public override returns(uint256) {\r\n        Auction memory auctionItem = auctionList[_tokenId];\r\n        require(auctionItem.active, \"ES\");\r\n        require(block.timestamp > auctionItem.endTime, \"ET\");\r\n        require(auctionItem.seller == msg.sender || auctionItem.owner == msg.sender, \"EA\");\r\n\r\n        if (auctionItem.owner == address(0)) {\r\n            ChilliSwap(ERC721_TOKEN_ADDRESS).transferFrom(address(this), auctionItem.seller, _tokenId);\r\n        } else {\r\n            ChilliSwap(ERC721_TOKEN_ADDRESS).transferFrom(address(this), auctionItem.owner, _tokenId);\r\n\r\n            ChilliSwap.Artwork memory artwork = ChilliSwap(ERC721_TOKEN_ADDRESS).getArtwork(_tokenId);\r\n            uint256 royalityValue = (auctionItem.value * artwork.royalty) / 100;\r\n            \r\n            if(auctionItem.currency == CURRENCY.ETH){\r\n                uint256 serviceFee = (auctionItem.value * FEE) / 100;\r\n                uint256 value = auctionItem.value - (serviceFee + royalityValue);\r\n                payable(auctionItem.seller).transfer(value);\r\n                if(royalityValue > 0){\r\n                    payable(artwork.creator).transfer(royalityValue);\r\n                }\r\n                \r\n            }else{\r\n                uint256 serviceFee = (auctionItem.value * TOKEN_FEE) / 100;\r\n                uint256 value = auctionItem.value - (serviceFee + royalityValue);\r\n                IERC20(ERC20_TOKEN_ADDRESS).transfer(auctionItem.seller,value);\r\n                if(royalityValue > 0){\r\n                    IERC20(ERC20_TOKEN_ADDRESS).transfer(artwork.creator,royalityValue);\r\n                }\r\n            }\r\n        }\r\n\r\n        delete auctionList[_tokenId];\r\n        emit ClaimNft(auctionItem.owner, _tokenId, auctionItem.value);\r\n        return _tokenId;\r\n       \r\n    }\r\n\r\n    \r\n\r\n    function getAuction(uint256 _tokenId) public view override returns (Auction memory) {\r\n        return auctionList[_tokenId];\r\n    }\r\n\r\n    function setERC20TokenAddress(address _address) public override onlyOwner {\r\n        ERC20_TOKEN_ADDRESS = _address;\r\n    }\r\n    function setERC721TokenAddress(address _address) public override onlyOwner {\r\n        ERC721_TOKEN_ADDRESS = _address;\r\n    }\r\n\r\n    function setFee(uint256 fee, uint256 tokenFee) public override onlyOwner {\r\n        FEE = fee;\r\n        TOKEN_FEE = tokenFee;\r\n    }\r\n\r\n    function setNextBidPercentage(uint256 nextBidPercent) public override onlyOwner {\r\n        NEXT_BID_PERCENTAGE = nextBidPercent;\r\n    }\r\n\r\n\r\n    function withdraw(address _address, uint256 _value, CURRENCY currency) public override onlyOwner {\r\n        if(currency == CURRENCY.ETH){\r\n            payable(_address).transfer(_value);\r\n        }else{\r\n           IERC20(ERC20_TOKEN_ADDRESS).transfer(_address,_value);\r\n        }\r\n    }\r\n\r\n  function transferAnyERC20Token(address _address, uint tokens) public onlyOwner returns (bool success) {\r\n        return IERC20(_address).transfer(owner(), tokens);\r\n    }\r\n//   function transferAnyERC721Token(address _address, uint token) public onlyOwner returns (bool success) {\r\n//         return ChilliSwap(_address).transferFrom(address(this), owner(), token);\r\n// }\r\n\r\n  }\r\n",
  "sourcePath": "E:/Workspace/Projects/Production/NFTs/Chilliswap/chilliswap/contracts/contracts/Market.sol",
  "compiler": {
    "name": "solc",
    "version": "0.8.4+commit.c7e474f2.Emscripten.clang"
  },
  "schemaVersion": "3.3.4",
  "updatedAt": "2021-06-03T05:35:28.354Z",
  "devdoc": {
    "kind": "dev",
    "methods": {
      "owner()": {
        "details": "Returns the address of the current owner."
      },
      "renounceOwnership()": {
        "details": "Leaves the contract without owner. It will not be possible to call `onlyOwner` functions anymore. Can only be called by the current owner. NOTE: Renouncing ownership will leave the contract without an owner, thereby removing any functionality that is only available to the owner."
      },
      "transferOwnership(address)": {
        "details": "Transfers ownership of the contract to a new account (`newOwner`). Can only be called by the current owner."
      }
    },
    "version": 1
  },
  "userdoc": {
    "kind": "user",
    "methods": {},
    "version": 1
  }
}