{
  "contractName": "KokoswapNFT",
  "abi": [
    {
      "inputs": [],
      "stateMutability": "nonpayable",
      "type": "constructor"
    },
    {
      "anonymous": false,
      "inputs": [
        {
          "indexed": true,
          "internalType": "address",
          "name": "owner",
          "type": "address"
        },
        {
          "indexed": true,
          "internalType": "address",
          "name": "approved",
          "type": "address"
        },
        {
          "indexed": true,
          "internalType": "uint256",
          "name": "tokenId",
          "type": "uint256"
        }
      ],
      "name": "Approval",
      "type": "event"
    },
    {
      "anonymous": false,
      "inputs": [
        {
          "indexed": true,
          "internalType": "address",
          "name": "owner",
          "type": "address"
        },
        {
          "indexed": true,
          "internalType": "address",
          "name": "operator",
          "type": "address"
        },
        {
          "indexed": false,
          "internalType": "bool",
          "name": "approved",
          "type": "bool"
        }
      ],
      "name": "ApprovalForAll",
      "type": "event"
    },
    {
      "anonymous": false,
      "inputs": [
        {
          "indexed": true,
          "internalType": "address",
          "name": "to",
          "type": "address"
        },
        {
          "indexed": false,
          "internalType": "uint256",
          "name": "tokenId",
          "type": "uint256"
        },
        {
          "indexed": false,
          "internalType": "string",
          "name": "artwork",
          "type": "string"
        }
      ],
      "name": "Mint",
      "type": "event"
    },
    {
      "anonymous": false,
      "inputs": [
        {
          "indexed": true,
          "internalType": "address",
          "name": "previousOwner",
          "type": "address"
        },
        {
          "indexed": true,
          "internalType": "address",
          "name": "newOwner",
          "type": "address"
        }
      ],
      "name": "OwnershipTransferred",
      "type": "event"
    },
    {
      "anonymous": false,
      "inputs": [
        {
          "indexed": true,
          "internalType": "address",
          "name": "from",
          "type": "address"
        },
        {
          "indexed": true,
          "internalType": "address",
          "name": "to",
          "type": "address"
        },
        {
          "indexed": true,
          "internalType": "uint256",
          "name": "tokenId",
          "type": "uint256"
        }
      ],
      "name": "Transfer",
      "type": "event"
    },
    {
      "inputs": [
        {
          "internalType": "address",
          "name": "to",
          "type": "address"
        },
        {
          "internalType": "uint256",
          "name": "tokenId",
          "type": "uint256"
        }
      ],
      "name": "approve",
      "outputs": [],
      "stateMutability": "nonpayable",
      "type": "function"
    },
    {
      "inputs": [
        {
          "internalType": "address",
          "name": "owner",
          "type": "address"
        }
      ],
      "name": "balanceOf",
      "outputs": [
        {
          "internalType": "uint256",
          "name": "",
          "type": "uint256"
        }
      ],
      "stateMutability": "view",
      "type": "function",
      "constant": true
    },
    {
      "inputs": [
        {
          "internalType": "uint256",
          "name": "tokenId",
          "type": "uint256"
        }
      ],
      "name": "getApproved",
      "outputs": [
        {
          "internalType": "address",
          "name": "",
          "type": "address"
        }
      ],
      "stateMutability": "view",
      "type": "function",
      "constant": true
    },
    {
      "inputs": [
        {
          "internalType": "address",
          "name": "owner",
          "type": "address"
        },
        {
          "internalType": "address",
          "name": "operator",
          "type": "address"
        }
      ],
      "name": "isApprovedForAll",
      "outputs": [
        {
          "internalType": "bool",
          "name": "",
          "type": "bool"
        }
      ],
      "stateMutability": "view",
      "type": "function",
      "constant": true
    },
    {
      "inputs": [],
      "name": "name",
      "outputs": [
        {
          "internalType": "string",
          "name": "",
          "type": "string"
        }
      ],
      "stateMutability": "view",
      "type": "function",
      "constant": true
    },
    {
      "inputs": [],
      "name": "nftMarketContract",
      "outputs": [
        {
          "internalType": "address",
          "name": "",
          "type": "address"
        }
      ],
      "stateMutability": "view",
      "type": "function",
      "constant": true
    },
    {
      "inputs": [],
      "name": "owner",
      "outputs": [
        {
          "internalType": "address",
          "name": "",
          "type": "address"
        }
      ],
      "stateMutability": "view",
      "type": "function",
      "constant": true
    },
    {
      "inputs": [
        {
          "internalType": "uint256",
          "name": "tokenId",
          "type": "uint256"
        }
      ],
      "name": "ownerOf",
      "outputs": [
        {
          "internalType": "address",
          "name": "",
          "type": "address"
        }
      ],
      "stateMutability": "view",
      "type": "function",
      "constant": true
    },
    {
      "inputs": [],
      "name": "renounceOwnership",
      "outputs": [],
      "stateMutability": "nonpayable",
      "type": "function"
    },
    {
      "inputs": [
        {
          "internalType": "address",
          "name": "from",
          "type": "address"
        },
        {
          "internalType": "address",
          "name": "to",
          "type": "address"
        },
        {
          "internalType": "uint256",
          "name": "tokenId",
          "type": "uint256"
        }
      ],
      "name": "safeTransferFrom",
      "outputs": [],
      "stateMutability": "nonpayable",
      "type": "function"
    },
    {
      "inputs": [
        {
          "internalType": "address",
          "name": "from",
          "type": "address"
        },
        {
          "internalType": "address",
          "name": "to",
          "type": "address"
        },
        {
          "internalType": "uint256",
          "name": "tokenId",
          "type": "uint256"
        },
        {
          "internalType": "bytes",
          "name": "_data",
          "type": "bytes"
        }
      ],
      "name": "safeTransferFrom",
      "outputs": [],
      "stateMutability": "nonpayable",
      "type": "function"
    },
    {
      "inputs": [
        {
          "internalType": "address",
          "name": "operator",
          "type": "address"
        },
        {
          "internalType": "bool",
          "name": "approved",
          "type": "bool"
        }
      ],
      "name": "setApprovalForAll",
      "outputs": [],
      "stateMutability": "nonpayable",
      "type": "function"
    },
    {
      "inputs": [
        {
          "internalType": "bytes4",
          "name": "interfaceId",
          "type": "bytes4"
        }
      ],
      "name": "supportsInterface",
      "outputs": [
        {
          "internalType": "bool",
          "name": "",
          "type": "bool"
        }
      ],
      "stateMutability": "view",
      "type": "function",
      "constant": true
    },
    {
      "inputs": [],
      "name": "symbol",
      "outputs": [
        {
          "internalType": "string",
          "name": "",
          "type": "string"
        }
      ],
      "stateMutability": "view",
      "type": "function",
      "constant": true
    },
    {
      "inputs": [
        {
          "internalType": "uint256",
          "name": "tokenId",
          "type": "uint256"
        }
      ],
      "name": "tokenURI",
      "outputs": [
        {
          "internalType": "string",
          "name": "",
          "type": "string"
        }
      ],
      "stateMutability": "view",
      "type": "function",
      "constant": true
    },
    {
      "inputs": [
        {
          "internalType": "address",
          "name": "from",
          "type": "address"
        },
        {
          "internalType": "address",
          "name": "to",
          "type": "address"
        },
        {
          "internalType": "uint256",
          "name": "tokenId",
          "type": "uint256"
        }
      ],
      "name": "transferFrom",
      "outputs": [],
      "stateMutability": "nonpayable",
      "type": "function"
    },
    {
      "inputs": [
        {
          "internalType": "address",
          "name": "newOwner",
          "type": "address"
        }
      ],
      "name": "transferOwnership",
      "outputs": [],
      "stateMutability": "nonpayable",
      "type": "function"
    },
    {
      "inputs": [
        {
          "internalType": "address",
          "name": "recipient",
          "type": "address"
        },
        {
          "internalType": "string",
          "name": "metadata",
          "type": "string"
        },
        {
          "internalType": "string",
          "name": "artwork",
          "type": "string"
        },
        {
          "internalType": "uint256",
          "name": "royalty",
          "type": "uint256"
        }
      ],
      "name": "mintNFT",
      "outputs": [
        {
          "internalType": "uint256",
          "name": "",
          "type": "uint256"
        }
      ],
      "stateMutability": "nonpayable",
      "type": "function"
    },
    {
      "inputs": [
        {
          "internalType": "address",
          "name": "recipient",
          "type": "address"
        },
        {
          "internalType": "string",
          "name": "metadata",
          "type": "string"
        },
        {
          "internalType": "string",
          "name": "artwork",
          "type": "string"
        },
        {
          "internalType": "uint256",
          "name": "royalty",
          "type": "uint256"
        }
      ],
      "name": "mintAndApproveNFT",
      "outputs": [
        {
          "internalType": "uint256",
          "name": "",
          "type": "uint256"
        }
      ],
      "stateMutability": "nonpayable",
      "type": "function"
    },
    {
      "inputs": [
        {
          "internalType": "uint256",
          "name": "tokenId",
          "type": "uint256"
        }
      ],
      "name": "burnNFT",
      "outputs": [
        {
          "internalType": "bool",
          "name": "",
          "type": "bool"
        }
      ],
      "stateMutability": "nonpayable",
      "type": "function"
    },
    {
      "inputs": [
        {
          "internalType": "uint256",
          "name": "tokenId",
          "type": "uint256"
        }
      ],
      "name": "getArtwork",
      "outputs": [
        {
          "components": [
            {
              "internalType": "uint256",
              "name": "date",
              "type": "uint256"
            },
            {
              "internalType": "address",
              "name": "creator",
              "type": "address"
            },
            {
              "internalType": "string",
              "name": "artwork",
              "type": "string"
            },
            {
              "internalType": "string",
              "name": "metadata",
              "type": "string"
            },
            {
              "internalType": "uint256",
              "name": "royalty",
              "type": "uint256"
            }
          ],
          "internalType": "struct IKokoswap.Artwork",
          "name": "",
          "type": "tuple"
        }
      ],
      "stateMutability": "view",
      "type": "function",
      "constant": true
    },
    {
      "inputs": [
        {
          "internalType": "address",
          "name": "creator",
          "type": "address"
        }
      ],
      "name": "isCreator",
      "outputs": [
        {
          "internalType": "bool",
          "name": "",
          "type": "bool"
        }
      ],
      "stateMutability": "view",
      "type": "function",
      "constant": true
    },
    {
      "inputs": [
        {
          "internalType": "address",
          "name": "creator",
          "type": "address"
        }
      ],
      "name": "addCreator",
      "outputs": [
        {
          "internalType": "bool",
          "name": "",
          "type": "bool"
        }
      ],
      "stateMutability": "nonpayable",
      "type": "function"
    },
    {
      "inputs": [
        {
          "internalType": "address",
          "name": "creator",
          "type": "address"
        }
      ],
      "name": "removeCreator",
      "outputs": [
        {
          "internalType": "bool",
          "name": "",
          "type": "bool"
        }
      ],
      "stateMutability": "nonpayable",
      "type": "function"
    },
    {
      "inputs": [
        {
          "internalType": "address",
          "name": "marketContract",
          "type": "address"
        }
      ],
      "name": "setNftMarketContract",
      "outputs": [
        {
          "internalType": "bool",
          "name": "",
          "type": "bool"
        }
      ],
      "stateMutability": "nonpayable",
      "type": "function"
    }
  ],
  "bytecode": "0x60806040523480156200001157600080fd5b50604080518082018252600c81526b12dbdadbdcddd85c0813919560a21b60208083019182528351808501909452600784526612d3d2d3d3919560ca1b9084015281519192916200006591600091620000e8565b5080516200007b906001906020840190620000e8565b505050600062000090620000e460201b60201c565b600680546001600160a01b0319166001600160a01b038316908117909155604051919250906000907f8be0079c531659141344cd1fd0a4f28419497f9722a3daafe3b4186f6b6457e0908290a350620001cb565b3390565b828054620000f6906200018e565b90600052602060002090601f0160209004810192826200011a576000855562000165565b82601f106200013557805160ff191683800117855562000165565b8280016001018555821562000165579182015b828111156200016557825182559160200191906001019062000148565b506200017392915062000177565b5090565b5b8082111562000173576000815560010162000178565b600281046001821680620001a357607f821691505b60208210811415620001c557634e487b7160e01b600052602260045260246000fd5b50919050565b6125b780620001db6000396000f3fe608060405234801561001057600080fd5b50600436106101735760003560e01c80636352211e116100de578063b88d4fde11610097578063cdd1e9ba11610071578063cdd1e9ba1461031c578063e985e9c51461032f578063efd4606514610342578063f2fde38b1461035557610173565b8063b88d4fde146102e3578063bd6018bb146102f6578063c87b56dd1461030957610173565b80636352211e1461029257806370a08231146102a5578063715018a6146102b85780638da5cb5b146102c057806395d89b41146102c8578063a22cb465146102d057610173565b806323b872dd1161013057806323b872dd146102135780632890e0d7146102265780633b9dce051461023957806342842e0e1461024c5780634979684c1461025f57806351f8fefe1461027f57610173565b806301ffc9a71461017857806306fdde03146101a1578063081812fc146101b6578063095ea7b3146101d6578063167ddf6e146101eb5780631a7438091461020b575b600080fd5b61018b610186366004611d1b565b610368565b6040516101989190611e33565b60405180910390f35b6101a96103b0565b6040516101989190611e3e565b6101c96101c4366004611d53565b610442565b6040516101989190611de2565b6101e96101e4366004611cf2565b61048e565b005b6101fe6101f9366004611d53565b610526565b60405161019891906123c2565b6101c96106c2565b6101e9610221366004611b8b565b6106d1565b61018b610234366004611d53565b610709565b61018b610247366004611b3f565b61094e565b6101e961025a366004611b8b565b6109f4565b61027261026d366004611c79565b610a0f565b604051610198919061242e565b61027261028d366004611c79565b610c46565b6101c96102a0366004611d53565b610e65565b6102726102b3366004611b3f565b610e9a565b6101e9610ede565b6101c9610f67565b6101a9610f76565b6101e96102de366004611c3f565b610f85565b6101e96102f1366004611bc6565b611053565b61018b610304366004611b3f565b61108c565b6101a9610317366004611d53565b61112d565b61018b61032a366004611b3f565b6111b0565b61018b61033d366004611b59565b611216565b61018b610350366004611b3f565b611244565b6101e9610363366004611b3f565b611265565b60006001600160e01b031982166380ac58cd60e01b148061039957506001600160e01b03198216635b5e139f60e01b145b806103a857506103a882611326565b90505b919050565b6060600080546103bf906124bf565b80601f01602080910402602001604051908101604052809291908181526020018280546103eb906124bf565b80156104385780601f1061040d57610100808354040283529160200191610438565b820191906000526020600020905b81548152906001019060200180831161041b57829003601f168201915b5050505050905090565b600061044d8261133f565b6104725760405162461bcd60e51b81526004016104699061214e565b60405180910390fd5b506000908152600460205260409020546001600160a01b031690565b600061049982610e65565b9050806001600160a01b0316836001600160a01b031614156104cd5760405162461bcd60e51b815260040161046990612267565b806001600160a01b03166104df61135c565b6001600160a01b031614806104fb57506104fb8161033d61135c565b6105175760405162461bcd60e51b815260040161046990612029565b6105218383611360565b505050565b61052e611989565b6105378261133f565b6105535760405162461bcd60e51b81526004016104699061214e565b600082815260096020908152604091829020825160a0810184528154815260018201546001600160a01b031692810192909252600281018054929391929184019161059d906124bf565b80601f01602080910402602001604051908101604052809291908181526020018280546105c9906124bf565b80156106165780601f106105eb57610100808354040283529160200191610616565b820191906000526020600020905b8154815290600101906020018083116105f957829003601f168201915b5050505050815260200160038201805461062f906124bf565b80601f016020809104026020016040519081016040528092919081815260200182805461065b906124bf565b80156106a85780601f1061067d576101008083540402835291602001916106a8565b820191906000526020600020905b81548152906001019060200180831161068b57829003601f168201915b505050505081526020016004820154815250509050919050565b600b546001600160a01b031681565b6106e26106dc61135c565b826113ce565b6106fe5760405162461bcd60e51b8152600401610469906122a8565b61052183838361144b565b600061071c61071661135c565b836113ce565b6107385760405162461bcd60e51b8152600401610469906122f9565b6000828152600960209081526040808320815160a0810183528154815260018201546001600160a01b031693810193909352600281018054919284019161077e906124bf565b80601f01602080910402602001604051908101604052809291908181526020018280546107aa906124bf565b80156107f75780601f106107cc576101008083540402835291602001916107f7565b820191906000526020600020905b8154815290600101906020018083116107da57829003601f168201915b50505050508152602001600382018054610810906124bf565b80601f016020809104026020016040519081016040528092919081815260200182805461083c906124bf565b80156108895780601f1061085e57610100808354040283529160200191610889565b820191906000526020600020905b81548152906001019060200180831161086c57829003601f168201915b50505091835250506004919091015460209182015260008581526009909152604081208181556001810180546001600160a01b03191690559192506108d160028301826119c1565b6108df6003830160006119c1565b60048201600090555050600881606001516040516108fd9190611d97565b90815260408051918290036020018220805460ff191690558201516008916109259190611d97565b908152604051908190036020019020805460ff1916905561094583611578565b50600192915050565b600061095861135c565b6001600160a01b0316610969610f67565b6001600160a01b03161461098f5760405162461bcd60e51b81526004016104699061219a565b6001600160a01b0382166000908152600a602052604090205460ff16600114156109cb5760405162461bcd60e51b815260040161046990612380565b506001600160a01b03166000908152600a60205260409020805460ff1916600190811790915590565b61052183838360405180602001604052806000815250611053565b6000600884604051610a219190611d97565b9081526040519081900360200190205460ff1660011415610a4157600080fd5b600883604051610a519190611d97565b9081526040519081900360200190205460ff1660011415610a7157600080fd5b336000908152600a602052604090205460ff16600114610aa35760405162461bcd60e51b815260040161046990612349565b6032821115610ab157600080fd5b6001600885604051610ac39190611d97565b908152602001604051809103902060006101000a81548160ff021916908360ff1602179055506001600884604051610afb9190611d97565b908152604051908190036020019020805460ff9290921660ff19909216919091179055610b28600761161f565b6000610b346007611628565b6040805160a081018252428152336020808301918252828401898152606084018b905260808401899052600086815260098352949094208351815591516001830180546001600160a01b0319166001600160a01b039092169190911790559251805194955091939092610bae926002850192910190611a00565b5060608201518051610bca916003840191602090910190611a00565b5060808201518160040155905050610be2868261162c565b856001600160a01b03167f85a66b9141978db9980f7e0ce3b468cebf4f7999f32b23091c5c03e798b1ba7a8286604051610c1d929190612437565b60405180910390a2600b54610c3b906001600160a01b031682611360565b90505b949350505050565b6000600884604051610c589190611d97565b9081526040519081900360200190205460ff1660011415610c7857600080fd5b600883604051610c889190611d97565b9081526040519081900360200190205460ff1660011415610ca857600080fd5b336000908152600a602052604090205460ff16600114610cda5760405162461bcd60e51b815260040161046990612349565b6032821115610ce857600080fd5b6001600885604051610cfa9190611d97565b908152602001604051809103902060006101000a81548160ff021916908360ff1602179055506001600884604051610d329190611d97565b908152604051908190036020019020805460ff9290921660ff19909216919091179055610d5f600761161f565b6000610d6b6007611628565b6040805160a081018252428152336020808301918252828401898152606084018b905260808401899052600086815260098352949094208351815591516001830180546001600160a01b0319166001600160a01b039092169190911790559251805194955091939092610de5926002850192910190611a00565b5060608201518051610e01916003840191602090910190611a00565b5060808201518160040155905050610e19868261162c565b856001600160a01b03167f85a66b9141978db9980f7e0ce3b468cebf4f7999f32b23091c5c03e798b1ba7a8286604051610e54929190612437565b60405180910390a295945050505050565b6000818152600260205260408120546001600160a01b0316806103a85760405162461bcd60e51b8152600401610469906120d0565b60006001600160a01b038216610ec25760405162461bcd60e51b815260040161046990612086565b506001600160a01b031660009081526003602052604090205490565b610ee661135c565b6001600160a01b0316610ef7610f67565b6001600160a01b031614610f1d5760405162461bcd60e51b81526004016104699061219a565b6006546040516000916001600160a01b0316907f8be0079c531659141344cd1fd0a4f28419497f9722a3daafe3b4186f6b6457e0908390a3600680546001600160a01b0319169055565b6006546001600160a01b031690565b6060600180546103bf906124bf565b610f8d61135c565b6001600160a01b0316826001600160a01b03161415610fbe5760405162461bcd60e51b815260040161046990611f64565b8060056000610fcb61135c565b6001600160a01b03908116825260208083019390935260409182016000908120918716808252919093529120805460ff19169215159290921790915561100f61135c565b6001600160a01b03167f17307eab39ab6107e8899845ad3d59bd9653f200f220920489ca2b5937696c31836040516110479190611e33565b60405180910390a35050565b61105e61071661135c565b61107a5760405162461bcd60e51b8152600401610469906122a8565b6110868484848461170b565b50505050565b600061109661135c565b6001600160a01b03166110a7610f67565b6001600160a01b0316146110cd5760405162461bcd60e51b81526004016104699061219a565b6001600160a01b0382166000908152600a602052604090205460ff166001146111085760405162461bcd60e51b815260040161046990611fe7565b506001600160a01b03166000908152600a60205260409020805460ff19169055600190565b60606111388261133f565b6111545760405162461bcd60e51b815260040161046990612218565b600061115e61173e565b9050600081511161117e57604051806020016040528060008152506111a9565b8061118884611750565b604051602001611199929190611db3565b6040516020818303038152906040525b9392505050565b60006111ba61135c565b6001600160a01b03166111cb610f67565b6001600160a01b0316146111f15760405162461bcd60e51b81526004016104699061219a565b50600b80546001600160a01b0383166001600160a01b03199091161790556001919050565b6001600160a01b03918216600090815260056020908152604080832093909416825291909152205460ff1690565b6001600160a01b03166000908152600a602052604090205460ff1660011490565b61126d61135c565b6001600160a01b031661127e610f67565b6001600160a01b0316146112a45760405162461bcd60e51b81526004016104699061219a565b6001600160a01b0381166112ca5760405162461bcd60e51b815260040161046990611ea3565b6006546040516001600160a01b038084169216907f8be0079c531659141344cd1fd0a4f28419497f9722a3daafe3b4186f6b6457e090600090a3600680546001600160a01b0319166001600160a01b0392909216919091179055565b6001600160e01b031981166301ffc9a760e01b14919050565b6000908152600260205260409020546001600160a01b0316151590565b3390565b600081815260046020526040902080546001600160a01b0319166001600160a01b038416908117909155819061139582610e65565b6001600160a01b03167f8c5be1e5ebec7d5bd14f71427d1e84f3dd0314c0f7b2291e5b200ac8c7c3b92560405160405180910390a45050565b60006113d98261133f565b6113f55760405162461bcd60e51b815260040161046990611f9b565b600061140083610e65565b9050806001600160a01b0316846001600160a01b0316148061143b5750836001600160a01b031661143084610442565b6001600160a01b0316145b80610c3e5750610c3e8185611216565b826001600160a01b031661145e82610e65565b6001600160a01b0316146114845760405162461bcd60e51b8152600401610469906121cf565b6001600160a01b0382166114aa5760405162461bcd60e51b815260040161046990611f20565b6114b5838383610521565b6114c0600082611360565b6001600160a01b03831660009081526003602052604081208054600192906114e990849061247c565b90915550506001600160a01b0382166000908152600360205260408120805460019290611517908490612450565b909155505060008181526002602052604080822080546001600160a01b0319166001600160a01b0386811691821790925591518493918716917fddf252ad1be2c89b69c2b068fc378daa952ba7f163c4a11628f55a4df523b3ef91a4505050565b600061158382610e65565b905061159181600084610521565b61159c600083611360565b6001600160a01b03811660009081526003602052604081208054600192906115c590849061247c565b909155505060008281526002602052604080822080546001600160a01b0319169055518391906001600160a01b038416907fddf252ad1be2c89b69c2b068fc378daa952ba7f163c4a11628f55a4df523b3ef908390a45050565b80546001019055565b5490565b6001600160a01b0382166116525760405162461bcd60e51b815260040161046990612119565b61165b8161133f565b156116785760405162461bcd60e51b815260040161046990611ee9565b61168460008383610521565b6001600160a01b03821660009081526003602052604081208054600192906116ad908490612450565b909155505060008181526002602052604080822080546001600160a01b0319166001600160a01b03861690811790915590518392907fddf252ad1be2c89b69c2b068fc378daa952ba7f163c4a11628f55a4df523b3ef908290a45050565b61171684848461144b565b6117228484848461186b565b6110865760405162461bcd60e51b815260040161046990611e51565b60408051602081019091526000815290565b60608161177557506040805180820190915260018152600360fc1b60208201526103ab565b8160005b811561179f5780611789816124fa565b91506117989050600a83612468565b9150611779565b60008167ffffffffffffffff8111156117c857634e487b7160e01b600052604160045260246000fd5b6040519080825280601f01601f1916602001820160405280156117f2576020820181803683370190505b5090505b8415610c3e5761180760018361247c565b9150611814600a86612515565b61181f906030612450565b60f81b81838151811061184257634e487b7160e01b600052603260045260246000fd5b60200101906001600160f81b031916908160001a905350611864600a86612468565b94506117f6565b600061187f846001600160a01b0316611983565b1561197b57836001600160a01b031663150b7a0261189b61135c565b8786866040518563ffffffff1660e01b81526004016118bd9493929190611df6565b602060405180830381600087803b1580156118d757600080fd5b505af1925050508015611907575060408051601f3d908101601f1916820190925261190491810190611d37565b60015b611961573d808015611935576040519150601f19603f3d011682016040523d82523d6000602084013e61193a565b606091505b5080516119595760405162461bcd60e51b815260040161046990611e51565b805181602001fd5b6001600160e01b031916630a85bd0160e11b149050610c3e565b506001610c3e565b3b151590565b6040518060a001604052806000815260200160006001600160a01b031681526020016060815260200160608152602001600081525090565b5080546119cd906124bf565b6000825580601f106119df57506119fd565b601f0160209004906000526020600020908101906119fd9190611a84565b50565b828054611a0c906124bf565b90600052602060002090601f016020900481019282611a2e5760008555611a74565b82601f10611a4757805160ff1916838001178555611a74565b82800160010185558215611a74579182015b82811115611a74578251825591602001919060010190611a59565b50611a80929150611a84565b5090565b5b80821115611a805760008155600101611a85565b600067ffffffffffffffff80841115611ab457611ab4612555565b604051601f8501601f191681016020018281118282101715611ad857611ad8612555565b604052848152915081838501861015611af057600080fd5b8484602083013760006020868301015250509392505050565b80356001600160a01b03811681146103ab57600080fd5b600082601f830112611b30578081fd5b6111a983833560208501611a99565b600060208284031215611b50578081fd5b6111a982611b09565b60008060408385031215611b6b578081fd5b611b7483611b09565b9150611b8260208401611b09565b90509250929050565b600080600060608486031215611b9f578081fd5b611ba884611b09565b9250611bb660208501611b09565b9150604084013590509250925092565b60008060008060808587031215611bdb578081fd5b611be485611b09565b9350611bf260208601611b09565b925060408501359150606085013567ffffffffffffffff811115611c14578182fd5b8501601f81018713611c24578182fd5b611c3387823560208401611a99565b91505092959194509250565b60008060408385031215611c51578182fd5b611c5a83611b09565b915060208301358015158114611c6e578182fd5b809150509250929050565b60008060008060808587031215611c8e578384fd5b611c9785611b09565b9350602085013567ffffffffffffffff80821115611cb3578485fd5b611cbf88838901611b20565b94506040870135915080821115611cd4578384fd5b50611ce187828801611b20565b949793965093946060013593505050565b60008060408385031215611d04578182fd5b611d0d83611b09565b946020939093013593505050565b600060208284031215611d2c578081fd5b81356111a98161256b565b600060208284031215611d48578081fd5b81516111a98161256b565b600060208284031215611d64578081fd5b5035919050565b60008151808452611d83816020860160208601612493565b601f01601f19169290920160200192915050565b60008251611da9818460208701612493565b9190910192915050565b60008351611dc5818460208801612493565b835190830190611dd9818360208801612493565b01949350505050565b6001600160a01b0391909116815260200190565b6001600160a01b0385811682528416602082015260408101839052608060608201819052600090611e2990830184611d6b565b9695505050505050565b901515815260200190565b6000602082526111a96020830184611d6b565b60208082526032908201527f4552433732313a207472616e7366657220746f206e6f6e20455243373231526560408201527131b2b4bb32b91034b6b83632b6b2b73a32b960711b606082015260800190565b60208082526026908201527f4f776e61626c653a206e6577206f776e657220697320746865207a65726f206160408201526564647265737360d01b606082015260800190565b6020808252601c908201527f4552433732313a20746f6b656e20616c7265616479206d696e74656400000000604082015260600190565b60208082526024908201527f4552433732313a207472616e7366657220746f20746865207a65726f206164646040820152637265737360e01b606082015260800190565b60208082526019908201527f4552433732313a20617070726f766520746f2063616c6c657200000000000000604082015260600190565b6020808252602c908201527f4552433732313a206f70657261746f7220717565727920666f72206e6f6e657860408201526b34b9ba32b73a103a37b5b2b760a11b606082015260800190565b60208082526022908201527f4b6f6b6f737761704e46543a2063726561746f7220646f65736e2774206578696040820152611cdd60f21b606082015260800190565b60208082526038908201527f4552433732313a20617070726f76652063616c6c6572206973206e6f74206f7760408201527f6e6572206e6f7220617070726f76656420666f7220616c6c0000000000000000606082015260800190565b6020808252602a908201527f4552433732313a2062616c616e636520717565727920666f7220746865207a65604082015269726f206164647265737360b01b606082015260800190565b60208082526029908201527f4552433732313a206f776e657220717565727920666f72206e6f6e657869737460408201526832b73a103a37b5b2b760b91b606082015260800190565b6020808252818101527f4552433732313a206d696e7420746f20746865207a65726f2061646472657373604082015260600190565b6020808252602c908201527f4552433732313a20617070726f76656420717565727920666f72206e6f6e657860408201526b34b9ba32b73a103a37b5b2b760a11b606082015260800190565b6020808252818101527f4f776e61626c653a2063616c6c6572206973206e6f7420746865206f776e6572604082015260600190565b60208082526029908201527f4552433732313a207472616e73666572206f6620746f6b656e2074686174206960408201526839903737ba1037bbb760b91b606082015260800190565b6020808252602f908201527f4552433732314d657461646174613a2055524920717565727920666f72206e6f60408201526e3732bc34b9ba32b73a103a37b5b2b760891b606082015260800190565b60208082526021908201527f4552433732313a20617070726f76616c20746f2063757272656e74206f776e656040820152603960f91b606082015260800190565b60208082526031908201527f4552433732313a207472616e736665722063616c6c6572206973206e6f74206f6040820152701ddb995c881b9bdc88185c1c1c9bdd9959607a1b606082015260800190565b60208082526030908201527f4552433732314275726e61626c653a2063616c6c6572206973206e6f74206f7760408201526f1b995c881b9bdc88185c1c1c9bdd995960821b606082015260800190565b60208082526019908201527f4b6f6b6f737761704e46543a20626520612063726561746f7200000000000000604082015260600190565b60208082526022908201527f4b6f6b6f737761704e46543a2063726561746f7220616c7265616479206578696040820152611cdd60f21b606082015260800190565b6000602082528251602083015260018060a01b036020840151166040830152604083015160a060608401526123fa60c0840182611d6b565b90506060840151601f198483030160808501526124178282611d6b565b915050608084015160a08401528091505092915050565b90815260200190565b600083825260406020830152610c3e6040830184611d6b565b6000821982111561246357612463612529565b500190565b6000826124775761247761253f565b500490565b60008282101561248e5761248e612529565b500390565b60005b838110156124ae578181015183820152602001612496565b838111156110865750506000910152565b6002810460018216806124d357607f821691505b602082108114156124f457634e487b7160e01b600052602260045260246000fd5b50919050565b600060001982141561250e5761250e612529565b5060010190565b6000826125245761252461253f565b500690565b634e487b7160e01b600052601160045260246000fd5b634e487b7160e01b600052601260045260246000fd5b634e487b7160e01b600052604160045260246000fd5b6001600160e01b0319811681146119fd57600080fdfea2646970667358221220f9ca35254400a10b24f2dd787a6780542846510dfbb9e3523655310717a6bf7b64736f6c63430008000033",
  "immutableReferences": {},
  "source": "// SPDX-License-Identifier: MIT\n\npragma solidity ^0.8.0;\n\nimport \"./ERC721.sol\";\nimport \"./Counters.sol\";\nimport \"./Ownable.sol\";\n\nimport \"./IKokoswap.sol\";\n\ncontract KokoswapNFT is ERC721, IKokoswap,Ownable {\n    using Counters for Counters.Counter;\n    Counters.Counter private _tokenIds;\n    \n    mapping(string => uint8) hashes;\n    mapping(uint256 => Artwork) private artworks;\n    mapping(address => uint8) private creators;\n\n    address public nftMarketContract;\n\n\n    constructor() ERC721(\"Kokoswap NFT\", \"KOKONFT\") {}\n\n\n    function mintNFT(address recipient, string memory metadata, string memory artwork,  uint256 royalty ) public override returns (uint256) {\n        require(hashes[metadata] != 1);\n        require(hashes[artwork] != 1);\n        require(creators[msg.sender] == 1, \"KokoswapNFT: be a creator\");\n        require(royalty <= 50);\n\n        hashes[metadata] = 1;\n        hashes[artwork] = 1;\n      \n        _tokenIds.increment();\n        uint256 newItemId = _tokenIds.current();\n        artworks[newItemId] = Artwork(block.timestamp, msg.sender, artwork, metadata, royalty);\n        _mint(recipient, newItemId);\n       // _setTokenURI(newItemId, tokenURI);\n        emit Mint(recipient, newItemId, artwork);\n        return newItemId;\n\n    }\n\n\n\n  function mintAndApproveNFT(address recipient, string memory metadata, string memory artwork,  uint256 royalty ) public override returns (uint256) {\n        \n        require(hashes[metadata] != 1);\n        require(hashes[artwork] != 1);\n        require(creators[msg.sender] == 1, \"KokoswapNFT: be a creator\");\n        require(royalty <= 50);\n\n        hashes[metadata] = 1;\n        hashes[artwork] = 1;\n      \n        _tokenIds.increment();\n        uint256 newItemId = _tokenIds.current();\n        artworks[newItemId] = Artwork(block.timestamp, msg.sender, artwork, metadata, royalty);\n        _mint(recipient, newItemId);\n\n        emit Mint(recipient, newItemId, artwork);\n        _approve(nftMarketContract, newItemId);\n\n        return newItemId;\n\n    }\n\n\n\n    function burnNFT(uint256 tokenId) public override returns(bool){\n        require(_isApprovedOrOwner(_msgSender(), tokenId), \"ERC721Burnable: caller is not owner nor approved\");\n        Artwork memory artwork = artworks[tokenId];\n\n        delete artworks[tokenId];\n        delete hashes[artwork.metadata];\n        delete hashes[artwork.artwork];\n\n       _burn(tokenId);\n\n       return true;\n\n    }\n\n    function getArtwork(uint256 tokenId) public view override returns (Artwork memory){\n        require( _exists(tokenId), \"ERC721: approved query for nonexistent token\" );\n        return artworks[tokenId];\n    }\n\n    function isCreator(address creator) public view override returns(bool){\n        return creators[creator] == 1;\n    }\n\n\n    function addCreator(address creator) public override onlyOwner returns(bool){\n        require(creators[creator] != 1, \"KokoswapNFT: creator already exist\");\n        creators[creator] = 1;\n        return true;\n    }\n    function removeCreator(address creator)  public  override onlyOwner returns(bool){\n        require(creators[creator] == 1, \"KokoswapNFT: creator doesn't exist\");\n        creators[creator] = 0;\n        return true;\n    }\n    \n    function setNftMarketContract(address marketContract) public  override onlyOwner returns(bool){\n       nftMarketContract = marketContract;\n        return true;\n    }\n\n    \n\n  }\n",
  "sourcePath": "/Users/osamabari/Documents/KOKOSWAP/NFT/koko_nft_contract/contracts/Kokoswap/KokoswapNFT.sol",
  "compiler": {
    "name": "solc",
    "version": "0.8.0+commit.c7dfd78e.Emscripten.clang"
  },
  "schemaVersion": "3.4.1",
  "updatedAt": "2021-07-29T09:59:15.152Z",
  "networkType": "ethereum",
  "devdoc": {
    "kind": "dev",
    "methods": {
      "approve(address,uint256)": {
        "details": "See {IERC721-approve}."
      },
      "balanceOf(address)": {
        "details": "See {IERC721-balanceOf}."
      },
      "getApproved(uint256)": {
        "details": "See {IERC721-getApproved}."
      },
      "isApprovedForAll(address,address)": {
        "details": "See {IERC721-isApprovedForAll}."
      },
      "name()": {
        "details": "See {IERC721Metadata-name}."
      },
      "owner()": {
        "details": "Returns the address of the current owner."
      },
      "ownerOf(uint256)": {
        "details": "See {IERC721-ownerOf}."
      },
      "renounceOwnership()": {
        "details": "Leaves the contract without owner. It will not be possible to call `onlyOwner` functions anymore. Can only be called by the current owner. NOTE: Renouncing ownership will leave the contract without an owner, thereby removing any functionality that is only available to the owner."
      },
      "safeTransferFrom(address,address,uint256)": {
        "details": "See {IERC721-safeTransferFrom}."
      },
      "safeTransferFrom(address,address,uint256,bytes)": {
        "details": "See {IERC721-safeTransferFrom}."
      },
      "setApprovalForAll(address,bool)": {
        "details": "See {IERC721-setApprovalForAll}."
      },
      "supportsInterface(bytes4)": {
        "details": "See {IERC165-supportsInterface}."
      },
      "symbol()": {
        "details": "See {IERC721Metadata-symbol}."
      },
      "tokenURI(uint256)": {
        "details": "See {IERC721Metadata-tokenURI}."
      },
      "transferFrom(address,address,uint256)": {
        "details": "See {IERC721-transferFrom}."
      },
      "transferOwnership(address)": {
        "details": "Transfers ownership of the contract to a new account (`newOwner`). Can only be called by the current owner."
      }
    },
    "version": 1
  },
  "userdoc": {
    "kind": "user",
    "methods": {},
    "version": 1
  }
}