{
  "contractName": "KokoswapMarket",
  "abi": [
    {
      "inputs": [],
      "stateMutability": "nonpayable",
      "type": "constructor"
    },
    {
      "anonymous": false,
      "inputs": [
        {
          "indexed": false,
          "internalType": "address",
          "name": "bidder",
          "type": "address"
        },
        {
          "indexed": true,
          "internalType": "uint256",
          "name": "tokenId",
          "type": "uint256"
        },
        {
          "indexed": false,
          "internalType": "uint256",
          "name": "value",
          "type": "uint256"
        },
        {
          "indexed": false,
          "internalType": "enum IMarket.CURRENCY",
          "name": "currency",
          "type": "uint8"
        }
      ],
      "name": "Bid",
      "type": "event"
    },
    {
      "anonymous": false,
      "inputs": [
        {
          "indexed": false,
          "internalType": "address",
          "name": "collector",
          "type": "address"
        },
        {
          "indexed": true,
          "internalType": "uint256",
          "name": "tokenId",
          "type": "uint256"
        },
        {
          "indexed": false,
          "internalType": "uint256",
          "name": "value",
          "type": "uint256"
        }
      ],
      "name": "ClaimNft",
      "type": "event"
    },
    {
      "anonymous": false,
      "inputs": [
        {
          "indexed": true,
          "internalType": "address",
          "name": "owner",
          "type": "address"
        },
        {
          "indexed": false,
          "internalType": "uint256",
          "name": "tokenId",
          "type": "uint256"
        },
        {
          "indexed": false,
          "internalType": "uint256",
          "name": "price",
          "type": "uint256"
        },
        {
          "indexed": false,
          "internalType": "uint256",
          "name": "endTime",
          "type": "uint256"
        },
        {
          "indexed": false,
          "internalType": "enum IMarket.CURRENCY",
          "name": "currency",
          "type": "uint8"
        }
      ],
      "name": "ListOnAuction",
      "type": "event"
    },
    {
      "anonymous": false,
      "inputs": [
        {
          "indexed": true,
          "internalType": "address",
          "name": "previousOwner",
          "type": "address"
        },
        {
          "indexed": true,
          "internalType": "address",
          "name": "newOwner",
          "type": "address"
        }
      ],
      "name": "OwnershipTransferred",
      "type": "event"
    },
    {
      "inputs": [],
      "name": "AUCTION_TIME",
      "outputs": [
        {
          "internalType": "uint256",
          "name": "",
          "type": "uint256"
        }
      ],
      "stateMutability": "view",
      "type": "function",
      "constant": true
    },
    {
      "inputs": [],
      "name": "ERC20_TOKEN_ADDRESS",
      "outputs": [
        {
          "internalType": "address",
          "name": "",
          "type": "address"
        }
      ],
      "stateMutability": "view",
      "type": "function",
      "constant": true
    },
    {
      "inputs": [],
      "name": "ERC721_TOKEN_ADDRESS",
      "outputs": [
        {
          "internalType": "address",
          "name": "",
          "type": "address"
        }
      ],
      "stateMutability": "view",
      "type": "function",
      "constant": true
    },
    {
      "inputs": [],
      "name": "FEE",
      "outputs": [
        {
          "internalType": "uint256",
          "name": "",
          "type": "uint256"
        }
      ],
      "stateMutability": "view",
      "type": "function",
      "constant": true
    },
    {
      "inputs": [],
      "name": "LAST_BIDDER_RESET_TIME",
      "outputs": [
        {
          "internalType": "uint256",
          "name": "",
          "type": "uint256"
        }
      ],
      "stateMutability": "view",
      "type": "function",
      "constant": true
    },
    {
      "inputs": [],
      "name": "NEXT_BID_PERCENTAGE",
      "outputs": [
        {
          "internalType": "uint256",
          "name": "",
          "type": "uint256"
        }
      ],
      "stateMutability": "view",
      "type": "function",
      "constant": true
    },
    {
      "inputs": [],
      "name": "TOKEN_FEE",
      "outputs": [
        {
          "internalType": "uint256",
          "name": "",
          "type": "uint256"
        }
      ],
      "stateMutability": "view",
      "type": "function",
      "constant": true
    },
    {
      "inputs": [],
      "name": "owner",
      "outputs": [
        {
          "internalType": "address",
          "name": "",
          "type": "address"
        }
      ],
      "stateMutability": "view",
      "type": "function",
      "constant": true
    },
    {
      "inputs": [],
      "name": "renounceOwnership",
      "outputs": [],
      "stateMutability": "nonpayable",
      "type": "function"
    },
    {
      "inputs": [
        {
          "internalType": "address",
          "name": "newOwner",
          "type": "address"
        }
      ],
      "name": "transferOwnership",
      "outputs": [],
      "stateMutability": "nonpayable",
      "type": "function"
    },
    {
      "inputs": [
        {
          "internalType": "uint256",
          "name": "tokenId",
          "type": "uint256"
        },
        {
          "internalType": "uint256",
          "name": "price",
          "type": "uint256"
        },
        {
          "internalType": "enum IMarket.CURRENCY",
          "name": "currency",
          "type": "uint8"
        },
        {
          "internalType": "uint256",
          "name": "_days",
          "type": "uint256"
        }
      ],
      "name": "listOnAuction",
      "outputs": [
        {
          "components": [
            {
              "internalType": "bool",
              "name": "active",
              "type": "bool"
            },
            {
              "internalType": "address",
              "name": "seller",
              "type": "address"
            },
            {
              "internalType": "address",
              "name": "owner",
              "type": "address"
            },
            {
              "internalType": "uint256",
              "name": "value",
              "type": "uint256"
            },
            {
              "internalType": "uint256",
              "name": "endTime",
              "type": "uint256"
            },
            {
              "internalType": "enum IMarket.CURRENCY",
              "name": "currency",
              "type": "uint8"
            }
          ],
          "internalType": "struct IMarket.Auction",
          "name": "",
          "type": "tuple"
        }
      ],
      "stateMutability": "nonpayable",
      "type": "function"
    },
    {
      "inputs": [
        {
          "internalType": "uint256",
          "name": "_tokenId",
          "type": "uint256"
        },
        {
          "internalType": "uint256",
          "name": "_price",
          "type": "uint256"
        }
      ],
      "name": "bid",
      "outputs": [
        {
          "components": [
            {
              "internalType": "bool",
              "name": "active",
              "type": "bool"
            },
            {
              "internalType": "address",
              "name": "seller",
              "type": "address"
            },
            {
              "internalType": "address",
              "name": "owner",
              "type": "address"
            },
            {
              "internalType": "uint256",
              "name": "value",
              "type": "uint256"
            },
            {
              "internalType": "uint256",
              "name": "endTime",
              "type": "uint256"
            },
            {
              "internalType": "enum IMarket.CURRENCY",
              "name": "currency",
              "type": "uint8"
            }
          ],
          "internalType": "struct IMarket.Auction",
          "name": "",
          "type": "tuple"
        }
      ],
      "stateMutability": "payable",
      "type": "function",
      "payable": true
    },
    {
      "inputs": [
        {
          "internalType": "uint256",
          "name": "_tokenId",
          "type": "uint256"
        }
      ],
      "name": "claimNft",
      "outputs": [
        {
          "internalType": "uint256",
          "name": "",
          "type": "uint256"
        }
      ],
      "stateMutability": "nonpayable",
      "type": "function"
    },
    {
      "inputs": [
        {
          "internalType": "uint256",
          "name": "_tokenId",
          "type": "uint256"
        }
      ],
      "name": "getAuction",
      "outputs": [
        {
          "components": [
            {
              "internalType": "bool",
              "name": "active",
              "type": "bool"
            },
            {
              "internalType": "address",
              "name": "seller",
              "type": "address"
            },
            {
              "internalType": "address",
              "name": "owner",
              "type": "address"
            },
            {
              "internalType": "uint256",
              "name": "value",
              "type": "uint256"
            },
            {
              "internalType": "uint256",
              "name": "endTime",
              "type": "uint256"
            },
            {
              "internalType": "enum IMarket.CURRENCY",
              "name": "currency",
              "type": "uint8"
            }
          ],
          "internalType": "struct IMarket.Auction",
          "name": "",
          "type": "tuple"
        }
      ],
      "stateMutability": "view",
      "type": "function",
      "constant": true
    },
    {
      "inputs": [
        {
          "internalType": "address",
          "name": "erc721contract",
          "type": "address"
        },
        {
          "internalType": "address",
          "name": "erc20contract",
          "type": "address"
        }
      ],
      "name": "setTokenAddress",
      "outputs": [],
      "stateMutability": "nonpayable",
      "type": "function"
    },
    {
      "inputs": [
        {
          "internalType": "uint256",
          "name": "fee",
          "type": "uint256"
        },
        {
          "internalType": "uint256",
          "name": "tokenFee",
          "type": "uint256"
        }
      ],
      "name": "setFee",
      "outputs": [],
      "stateMutability": "nonpayable",
      "type": "function"
    },
    {
      "inputs": [
        {
          "internalType": "uint256",
          "name": "nextBidPercent",
          "type": "uint256"
        }
      ],
      "name": "setNextBidPercentage",
      "outputs": [],
      "stateMutability": "nonpayable",
      "type": "function"
    },
    {
      "inputs": [
        {
          "internalType": "address",
          "name": "_address",
          "type": "address"
        },
        {
          "internalType": "uint256",
          "name": "_value",
          "type": "uint256"
        },
        {
          "internalType": "enum IMarket.CURRENCY",
          "name": "currency",
          "type": "uint8"
        }
      ],
      "name": "withdraw",
      "outputs": [],
      "stateMutability": "nonpayable",
      "type": "function"
    },
    {
      "inputs": [
        {
          "internalType": "address",
          "name": "_address",
          "type": "address"
        },
        {
          "internalType": "uint256",
          "name": "tokens",
          "type": "uint256"
        }
      ],
      "name": "transferAnyERC20Token",
      "outputs": [
        {
          "internalType": "bool",
          "name": "success",
          "type": "bool"
        }
      ],
      "stateMutability": "nonpayable",
      "type": "function"
    }
  ],
  "bytecode": "0x6080604052600f600155600f600255600560035534801561001f57600080fd5b50600061002a610079565b600080546001600160a01b0319166001600160a01b0383169081178255604051929350917f8be0079c531659141344cd1fd0a4f28419497f9722a3daafe3b4186f6b6457e0908290a35061007d565b3390565b611d3c8061008c6000396000f3fe6080604052600436106101145760003560e01c8063bb5bc5eb116100a0578063dc39d06d11610064578063dc39d06d146102b1578063dc8c0575146102de578063e592301a146102f3578063f2fde38b14610308578063f8e5601b1461032857610114565b8063bb5bc5eb14610232578063c56f1b5a14610252578063c57981b514610267578063c7afe9f21461027c578063d37231a71461029c57610114565b8063715018a6116100e7578063715018a6146101b157806378bd7935146101c65780638da5cb5b146101e657806392f6a3ce14610208578063aa9ab1741461021d57610114565b80632892a977146101195780632ec09d391461013b57806352f7c98814610171578063598647f814610191575b600080fd5b34801561012557600080fd5b5061013961013436600461183e565b610348565b005b34801561014757600080fd5b5061015b610156366004611965565b61047e565b6040516101689190611bf6565b60405180910390f35b34801561017d57600080fd5b5061013961018c366004611995565b610a35565b6101a461019f366004611995565b610a7f565b6040516101689190611b99565b3480156101bd57600080fd5b50610139611051565b3480156101d257600080fd5b506101a46101e1366004611965565b6110da565b3480156101f257600080fd5b506101fb611198565b6040516101689190611a14565b34801561021457600080fd5b506101fb6111a7565b34801561022957600080fd5b5061015b6111b6565b34801561023e57600080fd5b506101a461024d3660046119b6565b6111bc565b34801561025e57600080fd5b5061015b611462565b34801561027357600080fd5b5061015b611468565b34801561028857600080fd5b506101396102973660046117db565b61146e565b3480156102a857600080fd5b506101fb6114db565b3480156102bd57600080fd5b506102d16102cc366004611813565b6114ea565b6040516101689190611aa3565b3480156102ea57600080fd5b5061015b6115b9565b3480156102ff57600080fd5b5061015b6115bf565b34801561031457600080fd5b506101396103233660046117a3565b6115c6565b34801561033457600080fd5b50610139610343366004611965565b611686565b6103506116ca565b6001600160a01b0316610361611198565b6001600160a01b0316146103905760405162461bcd60e51b815260040161038790611b48565b60405180910390fd5b60008160018111156103b257634e487b7160e01b600052602160045260246000fd5b14156103f4576040516001600160a01b0384169083156108fc029084906000818181858888f193505050501580156103ee573d6000803e3d6000fd5b50610479565b6004805460405163a9059cbb60e01b81526001600160a01b039091169163a9059cbb91610425918791879101611a66565b602060405180830381600087803b15801561043f57600080fd5b505af1158015610453573d6000803e3d6000fd5b505050506040513d601f19601f82011682018060405250810190610477919061187b565b505b505050565b6000818152600660209081526040808320815160c081018352815460ff808216151583526101009091046001600160a01b039081169583019590955260018084015490951693820193909352600282015460608201526003820154608082015260048201548594919360a085019291169081111561050c57634e487b7160e01b600052602160045260246000fd5b600181111561052b57634e487b7160e01b600052602160045260246000fd5b905250805190915061054f5760405162461bcd60e51b815260040161038790611b10565b806080015142116105725760405162461bcd60e51b815260040161038790611aae565b60208101516001600160a01b0316331480610599575060408101516001600160a01b031633145b6105b55760405162461bcd60e51b815260040161038790611b7d565b60408101516001600160a01b03166106365760055460208201516040516323b872dd60e01b81526001600160a01b03909216916323b872dd916105ff913091908890600401611a42565b600060405180830381600087803b15801561061957600080fd5b505af115801561062d573d6000803e3d6000fd5b5050505061099d565b60055460408083015190516323b872dd60e01b81526001600160a01b03909216916323b872dd9161066e913091908890600401611a42565b600060405180830381600087803b15801561068857600080fd5b505af115801561069c573d6000803e3d6000fd5b5050600554604051630b3eefb760e11b8152600093506001600160a01b03909116915063167ddf6e906106d3908790600401611bf6565b60006040518083038186803b1580156106eb57600080fd5b505afa1580156106ff573d6000803e3d6000fd5b505050506040513d6000823e601f3d908101601f19168201604052610727919081019061189b565b905060006064826080015184606001516107419190611c8c565b61074b9190611c6c565b905060008360a00151600181111561077357634e487b7160e01b600052602160045260246000fd5b14156108405760006064600154856060015161078f9190611c8c565b6107999190611c6c565b905060006107a78383611c54565b85606001516107b69190611cab565b60208601516040519192506001600160a01b03169082156108fc029083906000818181858888f193505050501580156107f3573d6000803e3d6000fd5b5082156108395783602001516001600160a01b03166108fc849081150290604051600060405180830381858888f19350505050158015610837573d6000803e3d6000fd5b505b505061099a565b6000606460025485606001516108569190611c8c565b6108609190611c6c565b9050600061086e8383611c54565b856060015161087d9190611cab565b60048054602088015160405163a9059cbb60e01b81529394506001600160a01b039091169263a9059cbb926108b59291869101611a66565b602060405180830381600087803b1580156108cf57600080fd5b505af11580156108e3573d6000803e3d6000fd5b505050506040513d601f19601f82011682018060405250810190610907919061187b565b5082156109975760048054602086015160405163a9059cbb60e01b81526001600160a01b039092169263a9059cbb926109439291889101611a66565b602060405180830381600087803b15801561095d57600080fd5b505af1158015610971573d6000803e3d6000fd5b505050506040513d601f19601f82011682018060405250810190610995919061187b565b505b50505b50505b60008381526006602052604080822080546001600160a81b03191681556001810180546001600160a01b03191690556002810183905560038101929092556004909101805460ff19169055818101516060830151915185927fd4908414cdb2f24c8ce76341e36cb074a61b043c671e9d28eb33c11a2f4edcf992610a2392909190611a66565b60405180910390a2829150505b919050565b610a3d6116ca565b6001600160a01b0316610a4e611198565b6001600160a01b031614610a745760405162461bcd60e51b815260040161038790611b48565b600191909155600255565b610a876116ce565b6000838152600660209081526040808320815160c081018352815460ff808216151583526101009091046001600160a01b039081169583019590955260018084015490951693820193909352600282015460608201526003820154608082015260048201549093919260a0850192911690811115610b1557634e487b7160e01b600052602160045260246000fd5b6001811115610b3457634e487b7160e01b600052602160045260246000fd5b9052508051909150610b585760405162461bcd60e51b815260040161038790611b10565b8060800151421115610ba25760408101516001600160a01b031615610b8f5760405162461bcd60e51b815260040161038790611aae565b610b9c4262015180611c54565b60808201525b600060646003548360600151610bb89190611c8c565b610bc29190611c6c565b8260600151610bd19190611c54565b905060008260a001516001811115610bf957634e487b7160e01b600052602160045260246000fd5b1415610c805734811115610c1f5760405162461bcd60e51b815260040161038790611b2c565b60408201516001600160a01b031615610c755781604001516001600160a01b03166108fc83606001519081150290604051600060405180830381858888f19350505050158015610c73573d6000803e3d6000fd5b505b346060830152610e6e565b83811115610ca05760405162461bcd60e51b815260040161038790611b2c565b60048054604051636eb1769f60e11b815286926001600160a01b039092169163dd62ed3e91610cd3913391309101611a28565b60206040518083038186803b158015610ceb57600080fd5b505afa158015610cff573d6000803e3d6000fd5b505050506040513d601f19601f82011682018060405250810190610d23919061197d565b1015610d415760405162461bcd60e51b815260040161038790611b7d565b600480546040516323b872dd60e01b81526001600160a01b03909116916323b872dd91610d7491339130918a9101611a42565b602060405180830381600087803b158015610d8e57600080fd5b505af1158015610da2573d6000803e3d6000fd5b505050506040513d601f19601f82011682018060405250810190610dc6919061187b565b5060408201516001600160a01b031615610e6657600480546040808501516060860151915163a9059cbb60e01b81526001600160a01b039093169363a9059cbb93610e12939101611a66565b602060405180830381600087803b158015610e2c57600080fd5b505af1158015610e40573d6000803e3d6000fd5b505050506040513d601f19601f82011682018060405250810190610e64919061187b565b505b606082018490525b336040830152608082015161038490610e88904290611cab565b1015610ea057610e9a42610384611c54565b60808301525b600085815260066020908152604091829020845181549286015160ff1993841691151591909117610100600160a81b0319166101006001600160a01b039283160217825592850151600180830180546001600160a01b0319169290951691909117909355606085015160028201556080850151600382015560a0850151600482018054879593949293919216908381811115610f4c57634e487b7160e01b600052602160045260246000fd5b0217905550905050847f209b13671cce6f252f05be352152cc8a6236d8f374f81ce4342cc94a47be73383384606001518560a00151604051610f9093929190611a7f565b60405180910390a2600085815260066020908152604091829020825160c081018452815460ff808216151583526001600160a01b0361010090920482169483019490945260018084015490911694820194909452600282015460608201526003820154608082015260048201549093919260a085019291169081111561102657634e487b7160e01b600052602160045260246000fd5b600181111561104557634e487b7160e01b600052602160045260246000fd5b90525095945050505050565b6110596116ca565b6001600160a01b031661106a611198565b6001600160a01b0316146110905760405162461bcd60e51b815260040161038790611b48565b600080546040516001600160a01b03909116907f8be0079c531659141344cd1fd0a4f28419497f9722a3daafe3b4186f6b6457e0908390a3600080546001600160a01b0319169055565b6110e26116ce565b600082815260066020908152604091829020825160c081018452815460ff808216151583526001600160a01b0361010090920482169483019490945260018084015490911694820194909452600282015460608201526003820154608082015260048201549093919260a085019291169081111561117057634e487b7160e01b600052602160045260246000fd5b600181111561118f57634e487b7160e01b600052602160045260246000fd5b90525092915050565b6000546001600160a01b031690565b6005546001600160a01b031681565b61038481565b6111c46116ce565b6005546040516331a9108f60e11b815233916001600160a01b031690636352211e906111f4908990600401611bf6565b60206040518083038186803b15801561120c57600080fd5b505afa158015611220573d6000803e3d6000fd5b505050506040513d601f19601f8201168201806040525081019061124491906117bf565b6001600160a01b03161461126a5760405162461bcd60e51b815260040161038790611b7d565b60008581526006602052604090205460ff16156112995760405162461bcd60e51b815260040161038790611b10565b6040805160c08101825260018152336020820152600091810182905260608101869052608081016112ca4286611c54565b81526020018560018111156112ef57634e487b7160e01b600052602160045260246000fd5b9052600087815260066020908152604091829020835181549285015160ff1993841691151591909117610100600160a81b0319166101006001600160a01b039283160217825592840151600180830180546001600160a01b0319169290951691909117909355606084015160028201556080840151600382015560a08401516004820180549596508695929491939092169083818111156113a057634e487b7160e01b600052602160045260246000fd5b0217905550506005546040516323b872dd60e01b81526001600160a01b0390911691506323b872dd906113db90339030908b90600401611a42565b600060405180830381600087803b1580156113f557600080fd5b505af1158015611409573d6000803e3d6000fd5b503392507fc5660d56ca28521ee094f4313486f25d77a03c0f8de39c52fd3933d858c83fb691508890508761143e4288611c54565b8860405161144f9493929190611bff565b60405180910390a290505b949350505050565b60025481565b60015481565b6114766116ca565b6001600160a01b0316611487611198565b6001600160a01b0316146114ad5760405162461bcd60e51b815260040161038790611b48565b600580546001600160a01b039384166001600160a01b03199182161790915560048054929093169116179055565b6004546001600160a01b031681565b60006114f46116ca565b6001600160a01b0316611505611198565b6001600160a01b03161461152b5760405162461bcd60e51b815260040161038790611b48565b826001600160a01b031663a9059cbb611542611198565b846040518363ffffffff1660e01b8152600401611560929190611a66565b602060405180830381600087803b15801561157a57600080fd5b505af115801561158e573d6000803e3d6000fd5b505050506040513d601f19601f820116820180604052508101906115b2919061187b565b9392505050565b60035481565b6201518081565b6115ce6116ca565b6001600160a01b03166115df611198565b6001600160a01b0316146116055760405162461bcd60e51b815260040161038790611b48565b6001600160a01b03811661162b5760405162461bcd60e51b815260040161038790611aca565b600080546040516001600160a01b03808516939216917f8be0079c531659141344cd1fd0a4f28419497f9722a3daafe3b4186f6b6457e091a3600080546001600160a01b0319166001600160a01b0392909216919091179055565b61168e6116ca565b6001600160a01b031661169f611198565b6001600160a01b0316146116c55760405162461bcd60e51b815260040161038790611b48565b600355565b3390565b6040805160c08101825260008082526020820181905291810182905260608101829052608081018290529060a082015290565b8051610a3081611cee565b803560028110610a3057600080fd5b600082601f83011261172b578081fd5b815167ffffffffffffffff81111561174557611745611cd8565b6020611759601f8301601f19168201611c2a565b828152858284870101111561176c578384fd5b835b8381101561178957858101830151828201840152820161176e565b8381111561179957848385840101525b5095945050505050565b6000602082840312156117b4578081fd5b81356115b281611cee565b6000602082840312156117d0578081fd5b81516115b281611cee565b600080604083850312156117ed578081fd5b82356117f881611cee565b9150602083013561180881611cee565b809150509250929050565b60008060408385031215611825578182fd5b823561183081611cee565b946020939093013593505050565b600080600060608486031215611852578081fd5b833561185d81611cee565b9250602084013591506118726040850161170c565b90509250925092565b60006020828403121561188c578081fd5b815180151581146115b2578182fd5b6000602082840312156118ac578081fd5b815167ffffffffffffffff808211156118c3578283fd5b9083019060a082860312156118d6578283fd5b60405160a0810181811083821117156118f1576118f1611cd8565b6040528251815261190460208401611701565b602082015260408301518281111561191a578485fd5b6119268782860161171b565b60408301525060608301518281111561193d578485fd5b6119498782860161171b565b6060830152506080830151608082015280935050505092915050565b600060208284031215611976578081fd5b5035919050565b60006020828403121561198e578081fd5b5051919050565b600080604083850312156119a7578182fd5b50508035926020909101359150565b600080600080608085870312156119cb578081fd5b84359350602085013592506119e26040860161170c565b9396929550929360600135925050565b60028110611a1057634e487b7160e01b600052602160045260246000fd5b9052565b6001600160a01b0391909116815260200190565b6001600160a01b0392831681529116602082015260400190565b6001600160a01b039384168152919092166020820152604081019190915260600190565b6001600160a01b03929092168252602082015260400190565b6001600160a01b0384168152602081018390526060810161145a60408301846119f2565b901515815260200190565b602080825260029082015261115560f21b604082015260600190565b60208082526026908201527f4f776e61626c653a206e6577206f776e657220697320746865207a65726f206160408201526564647265737360d01b606082015260800190565b602080825260029082015261455360f01b604082015260600190565b60208082526002908201526122ab60f11b604082015260600190565b6020808252818101527f4f776e61626c653a2063616c6c6572206973206e6f7420746865206f776e6572604082015260600190565b602080825260029082015261454160f01b604082015260600190565b600060c082019050825115158252602083015160018060a01b0380821660208501528060408601511660408501525050606083015160608301526080830151608083015260a0830151611bef60a08401826119f2565b5092915050565b90815260200190565b848152602081018490526040810183905260808101611c2160608301846119f2565b95945050505050565b60405181810167ffffffffffffffff81118282101715611c4c57611c4c611cd8565b604052919050565b60008219821115611c6757611c67611cc2565b500190565b600082611c8757634e487b7160e01b81526012600452602481fd5b500490565b6000816000190483118215151615611ca657611ca6611cc2565b500290565b600082821015611cbd57611cbd611cc2565b500390565b634e487b7160e01b600052601160045260246000fd5b634e487b7160e01b600052604160045260246000fd5b6001600160a01b0381168114611d0357600080fd5b5056fea264697066735822122046d1942a4798899005abf46e3df11914b95d5a8d4e0ee8a186f47cbec2d26dde64736f6c63430008000033",
  "immutableReferences": {},
  "source": "// SPDX-License-Identifier: MIT\n\npragma solidity ^0.8.0;\n\nimport \"@openzeppelin/contracts/token/ERC721/ERC721.sol\";\nimport \"@openzeppelin/contracts/utils/Counters.sol\";\nimport \"@openzeppelin/contracts/utils/math/SafeMath.sol\";\nimport \"@openzeppelin/contracts/access/Ownable.sol\";\n\nimport \"./IMarket.sol\";\nimport \"./KokoswapNFT.sol\";\nimport \"@openzeppelin/contracts/token/ERC20/IERC20.sol\";\n\n\ncontract KokoswapMarket is IMarket,Ownable {\n\n    uint256 public constant AUCTION_TIME = 86400; //1 days\n    uint256 public constant LAST_BIDDER_RESET_TIME = 900;\n\n    uint256 public FEE = 15;\n    uint256 public TOKEN_FEE = 15;\n    uint256 public NEXT_BID_PERCENTAGE = 5;\n    \n    address public ERC20_TOKEN_ADDRESS;\n    address public ERC721_TOKEN_ADDRESS;\n\n    mapping(uint256 => Auction) private auctionList;\n\n    constructor() {}\n\n    function listOnAuction(uint256 tokenId, uint256 price, CURRENCY currency, uint256 _days ) public override returns (Auction memory) {\n        require(KokoswapNFT(ERC721_TOKEN_ADDRESS).ownerOf(tokenId) == msg.sender, \"EA\");\n         require(!auctionList[tokenId].active, \"ES\" );\n\n        Auction memory newAuction = Auction(true, msg.sender, address(0), price, _days + block.timestamp, currency );\n        auctionList[tokenId] = newAuction;\n\n        KokoswapNFT(ERC721_TOKEN_ADDRESS).transferFrom(msg.sender, address(this), tokenId);\n\n        emit ListOnAuction(msg.sender, tokenId, price, _days + block.timestamp, currency);\n\n        return newAuction;\n    }\n\n    function bid(uint256 _tokenId, uint256 _price) public payable override returns(Auction memory){\n        Auction memory auctionItem = auctionList[_tokenId];\n        require(auctionItem.active, \"ES\");\n\n        if(block.timestamp > auctionItem.endTime){\n            if(auctionItem.owner != address(0)){\n                revert(\"ET\");\n            }\n            auctionItem.endTime = AUCTION_TIME + block.timestamp;\n        }\n\n        uint256 bidValueMust = auctionItem.value + (auctionItem.value * NEXT_BID_PERCENTAGE / 100);\n        if(auctionItem.currency == CURRENCY.ETH){\n            require( bidValueMust <= msg.value, \"EV\" );\n            if(auctionItem.owner != address(0)) {\n                payable(auctionItem.owner).transfer(auctionItem.value);\n            }\n                auctionItem.value = msg.value;\n        }else{\n            require( bidValueMust <= _price, \"EV\" );\n            require(IERC20(ERC20_TOKEN_ADDRESS).allowance(msg.sender, address(this)) >= _price, \"EA\");\n            IERC20(ERC20_TOKEN_ADDRESS).transferFrom(msg.sender, address(this), _price);\n            if(auctionItem.owner != address(0)) {\n                IERC20(ERC20_TOKEN_ADDRESS).transfer(auctionItem.owner,auctionItem.value);\n            }\n            auctionItem.value = _price;\n        }\n        \n        auctionItem.owner = msg.sender;\n\n        if (auctionItem.endTime - block.timestamp < LAST_BIDDER_RESET_TIME) {\n            auctionItem.endTime = LAST_BIDDER_RESET_TIME + block.timestamp;\n        }\n\n        auctionList[_tokenId] = auctionItem;\n        emit Bid(msg.sender, _tokenId, auctionItem.value,  auctionItem.currency);\n        return auctionList[_tokenId];\n    }\n\n\n    function claimNft(uint256 _tokenId) public override returns(uint256) {\n        Auction memory auctionItem = auctionList[_tokenId];\n        require(auctionItem.active, \"ES\");\n        require(block.timestamp > auctionItem.endTime, \"ET\");\n        require(auctionItem.seller == msg.sender || auctionItem.owner == msg.sender, \"EA\");\n\n        if (auctionItem.owner == address(0)) {\n            KokoswapNFT(ERC721_TOKEN_ADDRESS).transferFrom(address(this), auctionItem.seller, _tokenId);\n        } else {\n            KokoswapNFT(ERC721_TOKEN_ADDRESS).transferFrom(address(this), auctionItem.owner, _tokenId);\n\n            KokoswapNFT.Artwork memory artwork = KokoswapNFT(ERC721_TOKEN_ADDRESS).getArtwork(_tokenId);\n            uint256 royalityValue = (auctionItem.value * artwork.royalty) / 100;\n            \n            if(auctionItem.currency == CURRENCY.ETH){\n                uint256 serviceFee = (auctionItem.value * FEE) / 100;\n                uint256 value = auctionItem.value - (serviceFee + royalityValue);\n                payable(auctionItem.seller).transfer(value);\n                if(royalityValue > 0){\n                    payable(artwork.creator).transfer(royalityValue);\n                }\n                \n            }else{\n                uint256 serviceFee = (auctionItem.value * TOKEN_FEE) / 100;\n                uint256 value = auctionItem.value - (serviceFee + royalityValue);\n                IERC20(ERC20_TOKEN_ADDRESS).transfer(auctionItem.seller,value);\n                if(royalityValue > 0){\n                    IERC20(ERC20_TOKEN_ADDRESS).transfer(artwork.creator,royalityValue);\n                }\n            }\n        }\n\n        delete auctionList[_tokenId];\n        emit ClaimNft(auctionItem.owner, _tokenId, auctionItem.value);\n        return _tokenId;\n       \n    }\n\n    \n\n    function getAuction(uint256 _tokenId) public view override returns (Auction memory) {\n        return auctionList[_tokenId];\n    }\n\n\n    function setTokenAddress(address erc721contract, address erc20contract ) public override onlyOwner {\n        ERC721_TOKEN_ADDRESS = erc721contract;\n        ERC20_TOKEN_ADDRESS = erc20contract;\n\n    }\n\n\n    function setFee(uint256 fee, uint256 tokenFee) public override onlyOwner {\n        FEE = fee;\n        TOKEN_FEE = tokenFee;\n    }\n\n    function setNextBidPercentage(uint256 nextBidPercent) public override onlyOwner {\n        NEXT_BID_PERCENTAGE = nextBidPercent;\n    }\n\n\n    function withdraw(address _address, uint256 _value, CURRENCY currency) public override onlyOwner {\n        if(currency == CURRENCY.ETH){\n            payable(_address).transfer(_value);\n        }else{\n           IERC20(ERC20_TOKEN_ADDRESS).transfer(_address,_value);\n        }\n    }\n\n     function transferAnyERC20Token(address _address, uint tokens) public onlyOwner returns (bool success) {\n        return IERC20(_address).transfer(owner(), tokens);\n    }\n\n  }\n",
  "sourcePath": "/Users/osamabari/Documents/KOKOSWAP/NFT/koko_nft_contract/contracts/KokoswapMarket.sol",
  "compiler": {
    "name": "solc",
    "version": "0.8.0+commit.c7dfd78e.Emscripten.clang"
  },
  "schemaVersion": "3.4.1",
  "updatedAt": "2021-07-29T09:59:15.167Z",
  "networkType": "ethereum",
  "devdoc": {
    "kind": "dev",
    "methods": {
      "owner()": {
        "details": "Returns the address of the current owner."
      },
      "renounceOwnership()": {
        "details": "Leaves the contract without owner. It will not be possible to call `onlyOwner` functions anymore. Can only be called by the current owner. NOTE: Renouncing ownership will leave the contract without an owner, thereby removing any functionality that is only available to the owner."
      },
      "transferOwnership(address)": {
        "details": "Transfers ownership of the contract to a new account (`newOwner`). Can only be called by the current owner."
      }
    },
    "version": 1
  },
  "userdoc": {
    "kind": "user",
    "methods": {},
    "version": 1
  }
}